{
  "contractName": "GoFundme",
  "abi": [
    {
      "inputs": [],
      "stateMutability": "payable",
      "type": "constructor",
      "payable": true
    },
    {
      "anonymous": false,
      "inputs": [
        {
          "indexed": false,
          "internalType": "uint256",
          "name": "campaignId",
          "type": "uint256"
        },
        {
          "indexed": false,
          "internalType": "address",
          "name": "creator",
          "type": "address"
        },
        {
          "indexed": false,
          "internalType": "uint256",
          "name": "targetAmount",
          "type": "uint256"
        },
        {
          "indexed": false,
          "internalType": "uint256",
          "name": "deadline",
          "type": "uint256"
        },
        {
          "indexed": false,
          "internalType": "string",
          "name": "title",
          "type": "string"
        },
        {
          "indexed": false,
          "internalType": "string",
          "name": "description",
          "type": "string"
        }
      ],
      "name": "CampaignCreated",
      "type": "event"
    },
    {
      "anonymous": false,
      "inputs": [
        {
          "indexed": false,
          "internalType": "uint256",
          "name": "campaignId",
          "type": "uint256"
        },
        {
          "indexed": false,
          "internalType": "address",
          "name": "donor",
          "type": "address"
        },
        {
          "indexed": false,
          "internalType": "uint256",
          "name": "amount",
          "type": "uint256"
        }
      ],
      "name": "DonationMade",
      "type": "event"
    },
    {
      "anonymous": false,
      "inputs": [
        {
          "indexed": false,
          "internalType": "uint256",
          "name": "campaignId",
          "type": "uint256"
        },
        {
          "indexed": false,
          "internalType": "address",
          "name": "creator",
          "type": "address"
        },
        {
          "indexed": false,
          "internalType": "uint256",
          "name": "amount",
          "type": "uint256"
        }
      ],
      "name": "FundsWithdrawn",
      "type": "event"
    },
    {
      "inputs": [],
      "name": "campaignCount",
      "outputs": [
        {
          "internalType": "uint256",
          "name": "",
          "type": "uint256"
        }
      ],
      "stateMutability": "view",
      "type": "function",
      "constant": true
    },
    {
      "inputs": [
        {
          "internalType": "uint256",
          "name": "",
          "type": "uint256"
        }
      ],
      "name": "campaigns",
      "outputs": [
        {
          "internalType": "address payable",
          "name": "creator",
          "type": "address"
        },
        {
          "internalType": "string",
          "name": "title",
          "type": "string"
        },
        {
          "internalType": "string",
          "name": "description",
          "type": "string"
        },
        {
          "internalType": "uint256",
          "name": "targetAmount",
          "type": "uint256"
        },
        {
          "internalType": "uint256",
          "name": "deadline",
          "type": "uint256"
        },
        {
          "internalType": "uint256",
          "name": "totalDonated",
          "type": "uint256"
        },
        {
          "internalType": "bool",
          "name": "withdrawn",
          "type": "bool"
        },
        {
          "internalType": "bool",
          "name": "reachedDeadline",
          "type": "bool"
        }
      ],
      "stateMutability": "view",
      "type": "function",
      "constant": true
    },
    {
      "inputs": [
        {
          "internalType": "uint256",
          "name": "targetAmount",
          "type": "uint256"
        },
        {
          "internalType": "uint256",
          "name": "deadline",
          "type": "uint256"
        },
        {
          "internalType": "string",
          "name": "title",
          "type": "string"
        },
        {
          "internalType": "string",
          "name": "description",
          "type": "string"
        }
      ],
      "name": "createCampaign",
      "outputs": [
        {
          "internalType": "uint256",
          "name": "",
          "type": "uint256"
        }
      ],
      "stateMutability": "payable",
      "type": "function",
      "payable": true
    },
    {
      "inputs": [
        {
          "internalType": "uint256",
          "name": "campaignId",
          "type": "uint256"
        }
      ],
      "name": "donate",
      "outputs": [],
      "stateMutability": "payable",
      "type": "function",
      "payable": true
    },
    {
      "inputs": [
        {
          "internalType": "uint256",
          "name": "campaignId",
          "type": "uint256"
        }
      ],
      "name": "checkDeadline",
      "outputs": [
        {
          "internalType": "bool",
          "name": "",
          "type": "bool"
        }
      ],
      "stateMutability": "view",
      "type": "function",
      "constant": true
    },
    {
      "inputs": [
        {
          "internalType": "uint256",
          "name": "campaignId",
          "type": "uint256"
        }
      ],
      "name": "checkTargetReached",
      "outputs": [
        {
          "internalType": "bool",
          "name": "",
          "type": "bool"
        }
      ],
      "stateMutability": "view",
      "type": "function",
      "constant": true
    },
    {
      "inputs": [
        {
          "internalType": "uint256",
          "name": "campaignId",
          "type": "uint256"
        }
      ],
      "name": "withdrawFunds",
      "outputs": [],
      "stateMutability": "nonpayable",
      "type": "function"
    },
    {
      "inputs": [
        {
          "internalType": "uint256",
          "name": "campaignId",
          "type": "uint256"
        }
      ],
      "name": "getBalance",
      "outputs": [
        {
          "internalType": "uint256",
          "name": "",
          "type": "uint256"
        }
      ],
      "stateMutability": "view",
      "type": "function",
      "constant": true
    },
    {
      "inputs": [
        {
          "internalType": "uint256",
          "name": "campaignId",
          "type": "uint256"
        }
      ],
      "name": "getDonors",
      "outputs": [
        {
          "internalType": "address[]",
          "name": "",
          "type": "address[]"
        }
      ],
      "stateMutability": "view",
      "type": "function",
      "constant": true
    },
    {
      "inputs": [
        {
          "internalType": "address",
          "name": "creator",
          "type": "address"
        }
      ],
      "name": "getCampaignsByCreator",
      "outputs": [
        {
          "internalType": "uint256[]",
          "name": "",
          "type": "uint256[]"
        }
      ],
      "stateMutability": "view",
      "type": "function",
      "constant": true
    },
    {
      "inputs": [],
      "name": "getAvailableCampaigns",
      "outputs": [
        {
          "components": [
            {
              "internalType": "address",
              "name": "creator",
              "type": "address"
            },
            {
              "internalType": "string",
              "name": "title",
              "type": "string"
            },
            {
              "internalType": "string",
              "name": "description",
              "type": "string"
            },
            {
              "internalType": "uint256",
              "name": "targetAmount",
              "type": "uint256"
            },
            {
              "internalType": "uint256",
              "name": "deadline",
              "type": "uint256"
            },
            {
              "internalType": "uint256",
              "name": "totalDonated",
              "type": "uint256"
            },
            {
              "internalType": "address[]",
              "name": "donators",
              "type": "address[]"
            },
            {
              "internalType": "bool",
              "name": "withdrawn",
              "type": "bool"
            },
            {
              "internalType": "bool",
              "name": "reachedDeadline",
              "type": "bool"
            }
          ],
          "internalType": "struct GoFundme.CampaignDetails[]",
          "name": "",
          "type": "tuple[]"
        }
      ],
      "stateMutability": "view",
      "type": "function",
      "constant": true
    },
    {
      "inputs": [],
      "name": "getPastCampaigns",
      "outputs": [
        {
          "components": [
            {
              "internalType": "address",
              "name": "creator",
              "type": "address"
            },
            {
              "internalType": "string",
              "name": "title",
              "type": "string"
            },
            {
              "internalType": "string",
              "name": "description",
              "type": "string"
            },
            {
              "internalType": "uint256",
              "name": "targetAmount",
              "type": "uint256"
            },
            {
              "internalType": "uint256",
              "name": "deadline",
              "type": "uint256"
            },
            {
              "internalType": "uint256",
              "name": "totalDonated",
              "type": "uint256"
            },
            {
              "internalType": "address[]",
              "name": "donators",
              "type": "address[]"
            },
            {
              "internalType": "bool",
              "name": "withdrawn",
              "type": "bool"
            },
            {
              "internalType": "bool",
              "name": "reachedDeadline",
              "type": "bool"
            }
          ],
          "internalType": "struct GoFundme.CampaignDetails[]",
          "name": "",
          "type": "tuple[]"
        }
      ],
      "stateMutability": "view",
      "type": "function",
      "constant": true
    }
  ],
  "bytecode": "0x6080604052612723806100115f395ff3fe6080604052600436106100a6575f3560e01c80637274e30d116100635780637274e30d146101f3578063a69909461461021d578063b63e0eb014610259578063d5b8d84a14610289578063f14faf6f146102c5578063f4e7cb36146102e1576100a6565b8063141961bc146100aa578063155dd5ee146100ed5780631e0104391461011557806329516511146101515780636c7558b01461018d5780636e5b46f5146101c9575b5f80fd5b3480156100b5575f80fd5b506100d060048036038101906100cb91906115a1565b61030b565b6040516100e49897969594939291906116be565b60405180910390f35b3480156100f8575f80fd5b50610113600480360381019061010e91906115a1565b610492565b005b348015610120575f80fd5b5061013b600480360381019061013691906115a1565b610713565b6040516101489190611748565b60405180910390f35b34801561015c575f80fd5b50610177600480360381019061017291906115a1565b6107bf565b6040516101849190611829565b60405180910390f35b348015610198575f80fd5b506101b360048036038101906101ae91906115a1565b6108a8565b6040516101c09190611849565b60405180910390f35b3480156101d4575f80fd5b506101dd610915565b6040516101ea9190611abf565b60405180910390f35b3480156101fe575f80fd5b50610207610a41565b6040516102149190611748565b60405180910390f35b348015610228575f80fd5b50610243600480360381019061023e91906115a1565b610a47565b6040516102509190611849565b60405180910390f35b610273600480360381019061026e9190611c0b565b610ab1565b6040516102809190611748565b60405180910390f35b348015610294575f80fd5b506102af60048036038101906102aa9190611cd1565b610c75565b6040516102bc9190611da4565b60405180910390f35b6102df60048036038101906102da91906115a1565b610e28565b005b3480156102ec575f80fd5b506102f56110fb565b6040516103029190611abf565b60405180910390f35b5f602052805f5260405f205f91509050805f015f9054906101000a900473ffffffffffffffffffffffffffffffffffffffff169080600101805461034e90611df1565b80601f016020809104026020016040519081016040528092919081815260200182805461037a90611df1565b80156103c55780601f1061039c576101008083540402835291602001916103c5565b820191905f5260205f20905b8154815290600101906020018083116103a857829003601f168201915b5050505050908060020180546103da90611df1565b80601f016020809104026020016040519081016040528092919081815260200182805461040690611df1565b80156104515780601f1061042857610100808354040283529160200191610451565b820191905f5260205f20905b81548152906001019060200180831161043457829003601f168201915b505050505090806003015490806004015490806005015490806008015f9054906101000a900460ff16908060080160019054906101000a900460ff16905088565b8060015481106104d7576040517f08c379a00000000000000000000000000000000000000000000000000000000081526004016104ce90611e6b565b60405180910390fd5b5f805f8481526020019081526020015f2090503373ffffffffffffffffffffffffffffffffffffffff16815f015f9054906101000a900473ffffffffffffffffffffffffffffffffffffffff1673ffffffffffffffffffffffffffffffffffffffff161461057a576040517f08c379a000000000000000000000000000000000000000000000000000000000815260040161057190611ef9565b60405180910390fd5b60011515816008015f9054906101000a900460ff161515146105d1576040517f08c379a00000000000000000000000000000000000000000000000000000000081526004016105c890611f61565b60405180910390fd5b6105da836108a8565b80156105ec57506105ea83610a47565b155b61062b576040517f08c379a000000000000000000000000000000000000000000000000000000000815260040161062290611fef565b60405180910390fd5b5f81600501549050815f015f9054906101000a900473ffffffffffffffffffffffffffffffffffffffff1673ffffffffffffffffffffffffffffffffffffffff166108fc8290811502906040515f60405180830381858888f19350505050158015610698573d5f803e3d5ffd5b506001826008015f6101000a81548160ff02191690831515021790555060018260080160016101000a81548160ff0219169083151502179055507ff440aec6b52895984d061d622e6edeba6210f7c3e059be920663140c084560d78433836040516107059392919061201c565b60405180910390a150505050565b5f816001548110610759576040517f08c379a000000000000000000000000000000000000000000000000000000000815260040161075090611e6b565b60405180910390fd5b5f805f8581526020019081526020015f2090506001548411156107b1576040517f08c379a00000000000000000000000000000000000000000000000000000000081526004016107a89061209b565b60405180910390fd5b806005015492505050919050565b6060816001548110610806576040517f08c379a00000000000000000000000000000000000000000000000000000000081526004016107fd90611e6b565b60405180910390fd5b5f805f8581526020019081526020015f2090508060070180548060200260200160405190810160405280929190818152602001828054801561089a57602002820191905f5260205f20905b815f9054906101000a900473ffffffffffffffffffffffffffffffffffffffff1673ffffffffffffffffffffffffffffffffffffffff1681526020019060010190808311610851575b505050505092505050919050565b5f8160015481106108ee576040517f08c379a00000000000000000000000000000000000000000000000000000000081526004016108e590611e6b565b60405180910390fd5b5f805f8581526020019081526020015f209050806003015481600501541492505050919050565b60605f805f90505b6001548110156109665761093f5f808381526020019081526020015f20611227565b1561095357818061094f906120e6565b9250505b808061095e906120e6565b91505061091d565b505f8167ffffffffffffffff81111561098257610981611ae7565b5b6040519080825280602002602001820160405280156109bb57816020015b6109a86114fd565b8152602001906001900390816109a05790505b5090505f805f90505b600154811015610a37575f805f8381526020019081526020015f2090506109ea81611227565b15610a23576109f88161126c565b848480610a04906120e6565b955081518110610a1757610a1661212d565b5b60200260200101819052505b508080610a2f906120e6565b9150506109c4565b5081935050505090565b60015481565b5f816001548110610a8d576040517f08c379a0000000000000000000000000000000000000000000000000000000008152600401610a8490611e6b565b60405180910390fd5b5f805f8581526020019081526020015f209050428160040154111592505050919050565b5f808511610af4576040517f08c379a0000000000000000000000000000000000000000000000000000000008152600401610aeb906121ca565b60405180910390fd5b428411610b36576040517f08c379a0000000000000000000000000000000000000000000000000000000008152600401610b2d90612232565b60405180910390fd5b5f805f60015481526020019081526020015f20905033815f015f6101000a81548173ffffffffffffffffffffffffffffffffffffffff021916908373ffffffffffffffffffffffffffffffffffffffff16021790555085816003018190555083816001019081610ba691906123ed565b5082816002019081610bb891906123ed565b508481600401819055505f81600501819055505f8160080160016101000a81548160ff0219169083151502179055505f816008015f6101000a81548160ff0219169083151502179055507f98a0d441b7626ac9b31750373850d01cdb57ad3406ddc03bb1d40a12c18de8226001543388888888604051610c3d969594939291906124bc565b60405180910390a160015f815480929190610c57906120e6565b919050555060018054610c6a9190612529565b915050949350505050565b60605f60015467ffffffffffffffff811115610c9457610c93611ae7565b5b604051908082528060200260200182016040528015610cc25781602001602082028036833780820191505090505b5090505f805b600154811015610d78578473ffffffffffffffffffffffffffffffffffffffff165f808381526020019081526020015f205f015f9054906101000a900473ffffffffffffffffffffffffffffffffffffffff1673ffffffffffffffffffffffffffffffffffffffff1603610d655780838381518110610d4a57610d4961212d565b5b6020026020010181815250508180610d61906120e6565b9250505b8080610d70906120e6565b915050610cc8565b505f8167ffffffffffffffff811115610d9457610d93611ae7565b5b604051908082528060200260200182016040528015610dc25781602001602082028036833780820191505090505b5090505f5b82811015610e1c57838181518110610de257610de161212d565b5b6020026020010151828281518110610dfd57610dfc61212d565b5b6020026020010181815250508080610e14906120e6565b915050610dc7565b50809350505050919050565b806001548110610e6d576040517f08c379a0000000000000000000000000000000000000000000000000000000008152600401610e6490611e6b565b60405180910390fd5b5f805f8481526020019081526020015f209050806008015f9054906101000a900460ff1615610ed1576040517f08c379a0000000000000000000000000000000000000000000000000000000008152600401610ec8906125cc565b60405180910390fd5b8060040154421115610f18576040517f08c379a0000000000000000000000000000000000000000000000000000000008152600401610f0f90612634565b60405180910390fd5b8060080160019054906101000a900460ff1615610f6a576040517f08c379a0000000000000000000000000000000000000000000000000000000008152600401610f619061269c565b60405180910390fd5b5f816006015f3373ffffffffffffffffffffffffffffffffffffffff1673ffffffffffffffffffffffffffffffffffffffff1681526020019081526020015f205403611013578060070133908060018154018082558091505060019003905f5260205f20015f9091909190916101000a81548173ffffffffffffffffffffffffffffffffffffffff021916908373ffffffffffffffffffffffffffffffffffffffff1602179055505b34816005015f82825461102691906126ba565b9250508190555034816006015f3373ffffffffffffffffffffffffffffffffffffffff1673ffffffffffffffffffffffffffffffffffffffff1681526020019081526020015f205461107891906126ba565b816006015f3373ffffffffffffffffffffffffffffffffffffffff1673ffffffffffffffffffffffffffffffffffffffff1681526020019081526020015f20819055507fe555da28bdb778f65d22794d88927ebaeca03f7de9d1b7d39245bc8fb5ca078a8333346040516110ee9392919061201c565b60405180910390a1505050565b60605f805f90505b60015481101561114c576111255f808381526020019081526020015f206114bd565b15611139578180611135906120e6565b9250505b8080611144906120e6565b915050611103565b505f8167ffffffffffffffff81111561116857611167611ae7565b5b6040519080825280602002602001820160405280156111a157816020015b61118e6114fd565b8152602001906001900390816111865790505b5090505f805f90505b60015481101561121d575f805f8381526020019081526020015f2090506111d0816114bd565b15611209576111de8161126c565b8484806111ea906120e6565b9550815181106111fd576111fc61212d565b5b60200260200101819052505b508080611215906120e6565b9150506111aa565b5081935050505090565b5f816008015f9054906101000a900460ff1615801561125557508160080160019054906101000a900460ff16155b8015611265575081600401544211155b9050919050565b6112746114fd565b604051806101200160405280835f015f9054906101000a900473ffffffffffffffffffffffffffffffffffffffff1673ffffffffffffffffffffffffffffffffffffffff1681526020018360010180546112cd90611df1565b80601f01602080910402602001604051908101604052809291908181526020018280546112f990611df1565b80156113445780601f1061131b57610100808354040283529160200191611344565b820191905f5260205f20905b81548152906001019060200180831161132757829003601f168201915b5050505050815260200183600201805461135d90611df1565b80601f016020809104026020016040519081016040528092919081815260200182805461138990611df1565b80156113d45780601f106113ab576101008083540402835291602001916113d4565b820191905f5260205f20905b8154815290600101906020018083116113b757829003601f168201915b505050505081526020018360030154815260200183600401548152602001836005015481526020018360070180548060200260200160405190810160405280929190818152602001828054801561147d57602002820191905f5260205f20905b815f9054906101000a900473ffffffffffffffffffffffffffffffffffffffff1673ffffffffffffffffffffffffffffffffffffffff1681526020019060010190808311611434575b50505050508152602001836008015f9054906101000a900460ff16151581526020018360080160019054906101000a900460ff1615158152509050919050565b5f816008015f9054906101000a900460ff16806114e857508160080160019054906101000a900460ff165b806114f65750816004015442115b9050919050565b6040518061012001604052805f73ffffffffffffffffffffffffffffffffffffffff16815260200160608152602001606081526020015f81526020015f81526020015f8152602001606081526020015f151581526020015f151581525090565b5f604051905090565b5f80fd5b5f80fd5b5f819050919050565b6115808161156e565b811461158a575f80fd5b50565b5f8135905061159b81611577565b92915050565b5f602082840312156115b6576115b5611566565b5b5f6115c38482850161158d565b91505092915050565b5f73ffffffffffffffffffffffffffffffffffffffff82169050919050565b5f6115f5826115cc565b9050919050565b611605816115eb565b82525050565b5f81519050919050565b5f82825260208201905092915050565b5f5b83811015611642578082015181840152602081019050611627565b5f8484015250505050565b5f601f19601f8301169050919050565b5f6116678261160b565b6116718185611615565b9350611681818560208601611625565b61168a8161164d565b840191505092915050565b61169e8161156e565b82525050565b5f8115159050919050565b6116b8816116a4565b82525050565b5f610100820190506116d25f83018b6115fc565b81810360208301526116e4818a61165d565b905081810360408301526116f8818961165d565b90506117076060830188611695565b6117146080830187611695565b61172160a0830186611695565b61172e60c08301856116af565b61173b60e08301846116af565b9998505050505050505050565b5f60208201905061175b5f830184611695565b92915050565b5f81519050919050565b5f82825260208201905092915050565b5f819050602082019050919050565b5f611794826115cc565b9050919050565b6117a48161178a565b82525050565b5f6117b5838361179b565b60208301905092915050565b5f602082019050919050565b5f6117d782611761565b6117e1818561176b565b93506117ec8361177b565b805f5b8381101561181c57815161180388826117aa565b975061180e836117c1565b9250506001810190506117ef565b5085935050505092915050565b5f6020820190508181035f83015261184181846117cd565b905092915050565b5f60208201905061185c5f8301846116af565b92915050565b5f81519050919050565b5f82825260208201905092915050565b5f819050602082019050919050565b5f82825260208201905092915050565b5f6118a58261160b565b6118af818561188b565b93506118bf818560208601611625565b6118c88161164d565b840191505092915050565b6118dc8161156e565b82525050565b5f82825260208201905092915050565b5f6118fc82611761565b61190681856118e2565b93506119118361177b565b805f5b8381101561194157815161192888826117aa565b9750611933836117c1565b925050600181019050611914565b5085935050505092915050565b611957816116a4565b82525050565b5f61012083015f8301516119735f86018261179b565b506020830151848203602086015261198b828261189b565b915050604083015184820360408601526119a5828261189b565b91505060608301516119ba60608601826118d3565b5060808301516119cd60808601826118d3565b5060a08301516119e060a08601826118d3565b5060c083015184820360c08601526119f882826118f2565b91505060e0830151611a0d60e086018261194e565b50610100830151611a2261010086018261194e565b508091505092915050565b5f611a38838361195d565b905092915050565b5f602082019050919050565b5f611a5682611862565b611a60818561186c565b935083602082028501611a728561187c565b805f5b85811015611aad5784840389528151611a8e8582611a2d565b9450611a9983611a40565b925060208a01995050600181019050611a75565b50829750879550505050505092915050565b5f6020820190508181035f830152611ad78184611a4c565b905092915050565b5f80fd5b5f80fd5b7f4e487b71000000000000000000000000000000000000000000000000000000005f52604160045260245ffd5b611b1d8261164d565b810181811067ffffffffffffffff82111715611b3c57611b3b611ae7565b5b80604052505050565b5f611b4e61155d565b9050611b5a8282611b14565b919050565b5f67ffffffffffffffff821115611b7957611b78611ae7565b5b611b828261164d565b9050602081019050919050565b828183375f83830152505050565b5f611baf611baa84611b5f565b611b45565b905082815260208101848484011115611bcb57611bca611ae3565b5b611bd6848285611b8f565b509392505050565b5f82601f830112611bf257611bf1611adf565b5b8135611c02848260208601611b9d565b91505092915050565b5f805f8060808587031215611c2357611c22611566565b5b5f611c308782880161158d565b9450506020611c418782880161158d565b935050604085013567ffffffffffffffff811115611c6257611c6161156a565b5b611c6e87828801611bde565b925050606085013567ffffffffffffffff811115611c8f57611c8e61156a565b5b611c9b87828801611bde565b91505092959194509250565b611cb08161178a565b8114611cba575f80fd5b50565b5f81359050611ccb81611ca7565b92915050565b5f60208284031215611ce657611ce5611566565b5b5f611cf384828501611cbd565b91505092915050565b5f81519050919050565b5f82825260208201905092915050565b5f819050602082019050919050565b5f611d3083836118d3565b60208301905092915050565b5f602082019050919050565b5f611d5282611cfc565b611d5c8185611d06565b9350611d6783611d16565b805f5b83811015611d97578151611d7e8882611d25565b9750611d8983611d3c565b925050600181019050611d6a565b5085935050505092915050565b5f6020820190508181035f830152611dbc8184611d48565b905092915050565b7f4e487b71000000000000000000000000000000000000000000000000000000005f52602260045260245ffd5b5f6002820490506001821680611e0857607f821691505b602082108103611e1b57611e1a611dc4565b5b50919050565b7f43616d706169676e20646f6573206e6f742065786973740000000000000000005f82015250565b5f611e55601783611615565b9150611e6082611e21565b602082019050919050565b5f6020820190508181035f830152611e8281611e49565b9050919050565b7f4f6e6c79207468652063726561746f722063616e2077697468647261772066755f8201527f6e64732e00000000000000000000000000000000000000000000000000000000602082015250565b5f611ee3602483611615565b9150611eee82611e89565b604082019050919050565b5f6020820190508181035f830152611f1081611ed7565b9050919050565b7f46756e647320616c72656164792077697468647261776e2e00000000000000005f82015250565b5f611f4b601883611615565b9150611f5682611f17565b602082019050919050565b5f6020820190508181035f830152611f7881611f3f565b9050919050565b7f546172676574206e6f742072656163686564206f7220646561646c696e6520705f8201527f61737365642e0000000000000000000000000000000000000000000000000000602082015250565b5f611fd9602683611615565b9150611fe482611f7f565b604082019050919050565b5f6020820190508181035f83015261200681611fcd565b9050919050565b6120168161178a565b82525050565b5f60608201905061202f5f830186611695565b61203c602083018561200d565b6120496040830184611695565b949350505050565b7f496e76616c69642063616d706169676e2049442e0000000000000000000000005f82015250565b5f612085601483611615565b915061209082612051565b602082019050919050565b5f6020820190508181035f8301526120b281612079565b9050919050565b7f4e487b71000000000000000000000000000000000000000000000000000000005f52601160045260245ffd5b5f6120f08261156e565b91507fffffffffffffffffffffffffffffffffffffffffffffffffffffffffffffffff8203612122576121216120b9565b5b600182019050919050565b7f4e487b71000000000000000000000000000000000000000000000000000000005f52603260045260245ffd5b7f54617267657420616d6f756e74206d75737420626520677265617465722074685f8201527f616e207a65726f2e000000000000000000000000000000000000000000000000602082015250565b5f6121b4602883611615565b91506121bf8261215a565b604082019050919050565b5f6020820190508181035f8301526121e1816121a8565b9050919050565b7f446561646c696e65206d75737420626520696e20746865206675747572652e005f82015250565b5f61221c601f83611615565b9150612227826121e8565b602082019050919050565b5f6020820190508181035f83015261224981612210565b9050919050565b5f819050815f5260205f209050919050565b5f6020601f8301049050919050565b5f82821b905092915050565b5f600883026122ac7fffffffffffffffffffffffffffffffffffffffffffffffffffffffffffffffff82612271565b6122b68683612271565b95508019841693508086168417925050509392505050565b5f819050919050565b5f6122f16122ec6122e78461156e565b6122ce565b61156e565b9050919050565b5f819050919050565b61230a836122d7565b61231e612316826122f8565b84845461227d565b825550505050565b5f90565b612332612326565b61233d818484612301565b505050565b5b81811015612360576123555f8261232a565b600181019050612343565b5050565b601f8211156123a55761237681612250565b61237f84612262565b8101602085101561238e578190505b6123a261239a85612262565b830182612342565b50505b505050565b5f82821c905092915050565b5f6123c55f19846008026123aa565b1980831691505092915050565b5f6123dd83836123b6565b9150826002028217905092915050565b6123f68261160b565b67ffffffffffffffff81111561240f5761240e611ae7565b5b6124198254611df1565b612424828285612364565b5f60209050601f831160018114612455575f8415612443578287015190505b61244d85826123d2565b8655506124b4565b601f19841661246386612250565b5f5b8281101561248a57848901518255600182019150602085019450602081019050612465565b868310156124a757848901516124a3601f8916826123b6565b8355505b6001600288020188555050505b505050505050565b5f60c0820190506124cf5f830189611695565b6124dc602083018861200d565b6124e96040830187611695565b6124f66060830186611695565b8181036080830152612508818561165d565b905081810360a083015261251c818461165d565b9050979650505050505050565b5f6125338261156e565b915061253e8361156e565b9250828203905081811115612556576125556120b9565b5b92915050565b7f43616d706169676e2066756e647320616c72656164792077697468647261776e5f8201527f2e00000000000000000000000000000000000000000000000000000000000000602082015250565b5f6125b6602183611615565b91506125c18261255c565b604082019050919050565b5f6020820190508181035f8301526125e3816125aa565b9050919050565b7f43616d706169676e2068617320657870697265640000000000000000000000005f82015250565b5f61261e601483611615565b9150612629826125ea565b602082019050919050565b5f6020820190508181035f83015261264b81612612565b9050919050565b7f43616d706169676e20646561646c696e6520686173207061737365642e0000005f82015250565b5f612686601d83611615565b915061269182612652565b602082019050919050565b5f6020820190508181035f8301526126b38161267a565b9050919050565b5f6126c48261156e565b91506126cf8361156e565b92508282019050808211156126e7576126e66120b9565b5b9291505056fea264697066735822122011af0cd6d61a78dea9128f01c90f02f30ee5cb93fa1aea49dd77f8247cea75bc64736f6c63430008150033",
  "immutableReferences": {},
  "source": "// SPDX-License-Identifier: MIT\npragma solidity ^0.8.11;\n\ncontract GoFundme {\nconstructor() payable {}\n    struct Campaign {\n        address payable creator;\n        // new params\n        string title; \n        string description;\n        uint256 targetAmount;\n        uint256 deadline; // Unix timestamp (seconds since epoch)\n        uint256 totalDonated;\n        mapping(address => uint256) donations; //   \n        address[] donators; // Tracks individual donor contributions\n        bool withdrawn;\n        bool reachedDeadline;\n    }\n    struct CampaignDetails {\n         address creator;\n    string title;\n    string description;\n    uint256 targetAmount;\n    uint256 deadline;\n    uint256 totalDonated;\n    address[] donators;\n    bool withdrawn;\n    bool reachedDeadline;\n    }\n\n    mapping(uint256 => Campaign) public campaigns;\n    uint256 public campaignCount; // Keeps track of the number of campaigns\n\n    // Event to notify when a campaign is created\n    event CampaignCreated(uint256 campaignId, address creator, uint256 targetAmount, uint256 deadline, string title, string description);\n\n    // Event to notify when a donation is made\n    event DonationMade(uint256 campaignId, address donor, uint256 amount);\n\n    // Event to notify when funds are withdrawn\n    event FundsWithdrawn(uint256 campaignId, address creator, uint256 amount);\n\n    modifier campaignExists(uint campaignId) {\n        require(campaignId < campaignCount, \"Campaign does not exist\");\n        _;\n    }\n// 1. Create a new campaign\n    function createCampaign(uint256 targetAmount, uint256 deadline, string memory title, string memory description) public payable returns (uint256){\n        require(targetAmount > 0, \"Target amount must be greater than zero.\");\n        require(deadline > block.timestamp, \"Deadline must be in the future.\");\n\n Campaign storage newCampaign = campaigns[campaignCount];\n        newCampaign.creator = payable(msg.sender);\n        newCampaign.targetAmount = targetAmount;\n        newCampaign.title = title;\n        newCampaign.description = description;\n        newCampaign.deadline = deadline;\n        newCampaign.totalDonated = 0;\n        newCampaign.reachedDeadline = false;\n        newCampaign.withdrawn = false;  \n\n        emit CampaignCreated(campaignCount, msg.sender, targetAmount, deadline, title, description);\n        campaignCount++; // Increment campaign count\n        return  campaignCount - 1;\n    }\n// 2, Donate to the campaign\n    function donate(uint256 campaignId) public payable campaignExists(campaignId){\n        Campaign storage campaign = campaigns[campaignId];\n        require(!campaign.withdrawn, \"Campaign funds already withdrawn.\");\n        require(block.timestamp <= campaign.deadline, \"Campaign has expired\");\n        require(!campaign.reachedDeadline, \"Campaign deadline has passed.\");\n\n   if (campaign.donations[msg.sender] == 0) {\n            campaign.donators.push(msg.sender); // Add the donor if not already present\n        }\n\n       \n        campaign.totalDonated += msg.value;\n        campaign.donations[msg.sender] = campaign.donations[msg.sender] + msg.value;\n\n// to send to the campaign owner directly\n// (bool sent,) = payable (campaign.creator).call{value: msg.value}(\"\");\n// if(sent) {}else {revert();\n\n        emit DonationMade(campaignId, msg.sender, msg.value);\n    }\n// 3. Check if campaign hasn't exist the deadline\n    function checkDeadline(uint256 campaignId) public view campaignExists(campaignId) returns (bool) {\n        Campaign storage campaign = campaigns[campaignId];\n        return campaign.deadline <= block.timestamp;\n    }\n// 4. Check if the target for the deadline has been reached \n    function checkTargetReached(uint256 campaignId) public view campaignExists(campaignId) returns (bool) {\n        Campaign storage campaign = campaigns[campaignId];\n        return campaign.totalDonated == campaign.targetAmount;\n    }\n// 5. Withdraw funds by the campaign creator\n    function withdrawFunds(uint256 campaignId) campaignExists(campaignId) public {\n        Campaign storage campaign = campaigns[campaignId];\n        require(campaign.creator == msg.sender, \"Only the creator can withdraw funds.\");\n        require(campaign.withdrawn == true, \"Funds already withdrawn.\");\n        require(checkTargetReached(campaignId) && !checkDeadline(campaignId), \"Target not reached or deadline passed.\");\n        uint256 amount = campaign.totalDonated;\n        campaign.creator.transfer(amount);\n        campaign.withdrawn = true;\n        campaign.reachedDeadline = true; // Set to true to prevent future withdrawals\n\n        emit FundsWithdrawn(campaignId, msg.sender, amount);\n    }\n// 6. Fetch the balance for a campaign\n    function getBalance(uint256 campaignId) campaignExists(campaignId) public view returns (uint256) {\n        Campaign storage campaign = campaigns[campaignId];\n        require(campaignId <= campaignCount, \"Invalid campaign ID.\");\n        return campaign.totalDonated;\n    }\n    // 7. Get donators\n   function getDonors(uint256 campaignId) public view campaignExists(campaignId) returns (address[] memory) {\n        Campaign storage campaign = campaigns[campaignId];\n        return campaign.donators;\n    }\n\n// 8, get all campaigns for a particular creator\nfunction getCampaignsByCreator(address creator) public view returns (uint256[] memory) {\n    uint256[] memory result = new uint256[](campaignCount);\n    uint256 count = 0;\n\n    for (uint256 i = 0; i < campaignCount; i++) {\n        if (campaigns[i].creator == creator) {\n            result[count] = i;\n            count++;\n        }\n    }\n\n    // Resize the array to fit the actual count\n    uint256[] memory filteredResult = new uint256[](count);\n    for (uint256 j = 0; j < count; j++) {\n        filteredResult[j] = result[j];\n    }\n\n    return filteredResult;\n}\n\n\n//9. Get all active campaigns\nfunction getAvailableCampaigns() public view returns (CampaignDetails[] memory) {\n    uint256 matchCount;\n    \n    // First pass - count matches\n    for (uint256 i = 0; i < campaignCount; i++) {\n        if (_isAvailable(campaigns[i])) {\n            matchCount++;\n        }\n    }\n\n    // Second pass - populate results\n    CampaignDetails[] memory result = new CampaignDetails[](matchCount);\n    uint256 index;\n    \n    for (uint256 i = 0; i < campaignCount; i++) {\n        Campaign storage c = campaigns[i];\n        if (_isAvailable(c)) {\n            result[index++] = _mapCampaign(c);\n        }\n    }\n    \n    return result;\n}\n\n//10. Get all past campaigns\nfunction getPastCampaigns() public view returns (CampaignDetails[] memory) {\n    uint256 matchCount;\n\n    // First pass - count matches\n    for (uint256 i = 0; i < campaignCount; i++) {\n        if (_isPast(campaigns[i])) {\n            matchCount++;\n        }\n    }\n\n    // Second pass - populate results\n    CampaignDetails[] memory result = new CampaignDetails[](matchCount);\n    uint256 index;\n    \n    for (uint256 i = 0; i < campaignCount; i++) {\n        Campaign storage c = campaigns[i];\n        if (_isPast(c)) {\n            result[index++] = _mapCampaign(c);\n        }\n    }\n    \n    return result;\n}\n\n// Internal helper to check availability\nfunction _isAvailable(Campaign storage c) internal view returns (bool) {\n    return !c.withdrawn && !c.reachedDeadline && block.timestamp <= c.deadline;\n}\n\n// Internal helper to check if campaign is concluded\nfunction _isPast(Campaign storage c) internal view returns (bool) {\n    return c.withdrawn || c.reachedDeadline || block.timestamp > c.deadline;\n}\n\n// Internal helper to map storage struct to memory struct\nfunction _mapCampaign(Campaign storage c) internal view returns (CampaignDetails memory) {\n    return CampaignDetails({\n        creator: c.creator,\n        title: c.title,\n        description: c.description,\n        targetAmount: c.targetAmount,\n        deadline: c.deadline,\n        totalDonated: c.totalDonated,\n        donators: c.donators,\n        withdrawn: c.withdrawn,\n        reachedDeadline: c.reachedDeadline\n    });\n}\n\n}",
  "sourcePath": "/home/alibaba/Downloads/projects/Crowdfund-web3/smart_contract/contracts/Crowdfund.sol",
  "compiler": {
    "name": "solc",
    "version": "0.8.21+commit.d9974bed.Emscripten.clang"
  },
  "schemaVersion": "3.4.16",
  "updatedAt": "2025-01-28T23:42:41.556Z",
  "networkType": "ethereum",
  "devdoc": {
    "kind": "dev",
    "methods": {},
    "version": 1
  },
  "userdoc": {
    "kind": "user",
    "methods": {},
    "version": 1
  }
}