{
  "contractName": "GoFundme",
  "abi": [
    {
      "inputs": [],
      "stateMutability": "payable",
      "type": "constructor",
      "payable": true
    },
    {
      "anonymous": false,
      "inputs": [
        {
          "indexed": false,
          "internalType": "uint256",
          "name": "campaignId",
          "type": "uint256"
        },
        {
          "indexed": false,
          "internalType": "address",
          "name": "creator",
          "type": "address"
        },
        {
          "indexed": false,
          "internalType": "uint256",
          "name": "targetAmount",
          "type": "uint256"
        },
        {
          "indexed": false,
          "internalType": "uint256",
          "name": "deadline",
          "type": "uint256"
        },
        {
          "indexed": false,
          "internalType": "string",
          "name": "title",
          "type": "string"
        },
        {
          "indexed": false,
          "internalType": "string",
          "name": "description",
          "type": "string"
        }
      ],
      "name": "CampaignCreated",
      "type": "event"
    },
    {
      "anonymous": false,
      "inputs": [
        {
          "indexed": false,
          "internalType": "uint256",
          "name": "campaignId",
          "type": "uint256"
        },
        {
          "indexed": false,
          "internalType": "address",
          "name": "donor",
          "type": "address"
        },
        {
          "indexed": false,
          "internalType": "uint256",
          "name": "amount",
          "type": "uint256"
        }
      ],
      "name": "DonationMade",
      "type": "event"
    },
    {
      "anonymous": false,
      "inputs": [
        {
          "indexed": false,
          "internalType": "uint256",
          "name": "campaignId",
          "type": "uint256"
        },
        {
          "indexed": false,
          "internalType": "address",
          "name": "creator",
          "type": "address"
        },
        {
          "indexed": false,
          "internalType": "uint256",
          "name": "amount",
          "type": "uint256"
        }
      ],
      "name": "FundsWithdrawn",
      "type": "event"
    },
    {
      "anonymous": false,
      "inputs": [
        {
          "indexed": false,
          "internalType": "uint256",
          "name": "campaignId",
          "type": "uint256"
        },
        {
          "indexed": false,
          "internalType": "address",
          "name": "donor",
          "type": "address"
        },
        {
          "indexed": false,
          "internalType": "uint256",
          "name": "amount",
          "type": "uint256"
        }
      ],
      "name": "RefundClaimed",
      "type": "event"
    },
    {
      "anonymous": false,
      "inputs": [
        {
          "indexed": false,
          "internalType": "uint256",
          "name": "campaignId",
          "type": "uint256"
        },
        {
          "indexed": false,
          "internalType": "uint256",
          "name": "newTargetAmount",
          "type": "uint256"
        }
      ],
      "name": "TargetUpdated",
      "type": "event"
    },
    {
      "inputs": [],
      "name": "campaignCount",
      "outputs": [
        {
          "internalType": "uint256",
          "name": "",
          "type": "uint256"
        }
      ],
      "stateMutability": "view",
      "type": "function",
      "constant": true
    },
    {
      "inputs": [
        {
          "internalType": "uint256",
          "name": "",
          "type": "uint256"
        }
      ],
      "name": "campaigns",
      "outputs": [
        {
          "internalType": "address payable",
          "name": "creator",
          "type": "address"
        },
        {
          "internalType": "string",
          "name": "name",
          "type": "string"
        },
        {
          "internalType": "string",
          "name": "title",
          "type": "string"
        },
        {
          "internalType": "string",
          "name": "description",
          "type": "string"
        },
        {
          "internalType": "uint256",
          "name": "targetAmount",
          "type": "uint256"
        },
        {
          "internalType": "string",
          "name": "image",
          "type": "string"
        },
        {
          "internalType": "uint256",
          "name": "createdAt",
          "type": "uint256"
        },
        {
          "internalType": "uint256",
          "name": "deadline",
          "type": "uint256"
        },
        {
          "internalType": "uint256",
          "name": "totalDonated",
          "type": "uint256"
        },
        {
          "internalType": "bool",
          "name": "withdrawn",
          "type": "bool"
        },
        {
          "internalType": "bool",
          "name": "reachedDeadline",
          "type": "bool"
        }
      ],
      "stateMutability": "view",
      "type": "function",
      "constant": true
    },
    {
      "inputs": [
        {
          "internalType": "string",
          "name": "name",
          "type": "string"
        },
        {
          "internalType": "string",
          "name": "title",
          "type": "string"
        },
        {
          "internalType": "string",
          "name": "description",
          "type": "string"
        },
        {
          "internalType": "uint256",
          "name": "targetAmount",
          "type": "uint256"
        },
        {
          "internalType": "string",
          "name": "image",
          "type": "string"
        },
        {
          "internalType": "uint256",
          "name": "deadline",
          "type": "uint256"
        }
      ],
      "name": "createCampaign",
      "outputs": [
        {
          "internalType": "uint256",
          "name": "",
          "type": "uint256"
        }
      ],
      "stateMutability": "payable",
      "type": "function",
      "payable": true
    },
    {
      "inputs": [
        {
          "internalType": "uint256",
          "name": "campaignId",
          "type": "uint256"
        }
      ],
      "name": "donate",
      "outputs": [],
      "stateMutability": "payable",
      "type": "function",
      "payable": true
    },
    {
      "inputs": [
        {
          "internalType": "uint256",
          "name": "campaignId",
          "type": "uint256"
        }
      ],
      "name": "checkDeadline",
      "outputs": [
        {
          "internalType": "bool",
          "name": "",
          "type": "bool"
        }
      ],
      "stateMutability": "view",
      "type": "function",
      "constant": true
    },
    {
      "inputs": [
        {
          "internalType": "uint256",
          "name": "campaignId",
          "type": "uint256"
        }
      ],
      "name": "checkTargetReached",
      "outputs": [
        {
          "internalType": "bool",
          "name": "",
          "type": "bool"
        }
      ],
      "stateMutability": "view",
      "type": "function",
      "constant": true
    },
    {
      "inputs": [
        {
          "internalType": "uint256",
          "name": "campaignId",
          "type": "uint256"
        }
      ],
      "name": "withdrawFunds",
      "outputs": [],
      "stateMutability": "nonpayable",
      "type": "function"
    },
    {
      "inputs": [
        {
          "internalType": "uint256",
          "name": "campaignId",
          "type": "uint256"
        }
      ],
      "name": "getBalance",
      "outputs": [
        {
          "internalType": "uint256",
          "name": "",
          "type": "uint256"
        }
      ],
      "stateMutability": "view",
      "type": "function",
      "constant": true
    },
    {
      "inputs": [
        {
          "internalType": "uint256",
          "name": "campaignId",
          "type": "uint256"
        }
      ],
      "name": "getDonors",
      "outputs": [
        {
          "components": [
            {
              "internalType": "address",
              "name": "donor",
              "type": "address"
            },
            {
              "internalType": "uint256",
              "name": "amount",
              "type": "uint256"
            }
          ],
          "internalType": "struct GoFundme.Donor[]",
          "name": "",
          "type": "tuple[]"
        }
      ],
      "stateMutability": "view",
      "type": "function",
      "constant": true
    },
    {
      "inputs": [
        {
          "internalType": "address",
          "name": "creator",
          "type": "address"
        }
      ],
      "name": "getCampaignsByCreator",
      "outputs": [
        {
          "components": [
            {
              "internalType": "address",
              "name": "creator",
              "type": "address"
            },
            {
              "internalType": "string",
              "name": "name",
              "type": "string"
            },
            {
              "internalType": "string",
              "name": "title",
              "type": "string"
            },
            {
              "internalType": "string",
              "name": "description",
              "type": "string"
            },
            {
              "internalType": "uint256",
              "name": "targetAmount",
              "type": "uint256"
            },
            {
              "internalType": "string",
              "name": "image",
              "type": "string"
            },
            {
              "internalType": "uint256",
              "name": "createdAt",
              "type": "uint256"
            },
            {
              "internalType": "uint256",
              "name": "deadline",
              "type": "uint256"
            },
            {
              "internalType": "uint256",
              "name": "totalDonated",
              "type": "uint256"
            },
            {
              "internalType": "address[]",
              "name": "donators",
              "type": "address[]"
            },
            {
              "internalType": "bool",
              "name": "withdrawn",
              "type": "bool"
            },
            {
              "internalType": "bool",
              "name": "reachedDeadline",
              "type": "bool"
            }
          ],
          "internalType": "struct GoFundme.CampaignDetails[]",
          "name": "",
          "type": "tuple[]"
        }
      ],
      "stateMutability": "view",
      "type": "function",
      "constant": true
    },
    {
      "inputs": [],
      "name": "getAvailableCampaigns",
      "outputs": [
        {
          "components": [
            {
              "internalType": "address",
              "name": "creator",
              "type": "address"
            },
            {
              "internalType": "string",
              "name": "name",
              "type": "string"
            },
            {
              "internalType": "string",
              "name": "title",
              "type": "string"
            },
            {
              "internalType": "string",
              "name": "description",
              "type": "string"
            },
            {
              "internalType": "uint256",
              "name": "targetAmount",
              "type": "uint256"
            },
            {
              "internalType": "string",
              "name": "image",
              "type": "string"
            },
            {
              "internalType": "uint256",
              "name": "createdAt",
              "type": "uint256"
            },
            {
              "internalType": "uint256",
              "name": "deadline",
              "type": "uint256"
            },
            {
              "internalType": "uint256",
              "name": "totalDonated",
              "type": "uint256"
            },
            {
              "internalType": "address[]",
              "name": "donators",
              "type": "address[]"
            },
            {
              "internalType": "bool",
              "name": "withdrawn",
              "type": "bool"
            },
            {
              "internalType": "bool",
              "name": "reachedDeadline",
              "type": "bool"
            }
          ],
          "internalType": "struct GoFundme.CampaignDetails[]",
          "name": "",
          "type": "tuple[]"
        }
      ],
      "stateMutability": "view",
      "type": "function",
      "constant": true
    },
    {
      "inputs": [],
      "name": "getPastCampaigns",
      "outputs": [
        {
          "components": [
            {
              "internalType": "address",
              "name": "creator",
              "type": "address"
            },
            {
              "internalType": "string",
              "name": "name",
              "type": "string"
            },
            {
              "internalType": "string",
              "name": "title",
              "type": "string"
            },
            {
              "internalType": "string",
              "name": "description",
              "type": "string"
            },
            {
              "internalType": "uint256",
              "name": "targetAmount",
              "type": "uint256"
            },
            {
              "internalType": "string",
              "name": "image",
              "type": "string"
            },
            {
              "internalType": "uint256",
              "name": "createdAt",
              "type": "uint256"
            },
            {
              "internalType": "uint256",
              "name": "deadline",
              "type": "uint256"
            },
            {
              "internalType": "uint256",
              "name": "totalDonated",
              "type": "uint256"
            },
            {
              "internalType": "address[]",
              "name": "donators",
              "type": "address[]"
            },
            {
              "internalType": "bool",
              "name": "withdrawn",
              "type": "bool"
            },
            {
              "internalType": "bool",
              "name": "reachedDeadline",
              "type": "bool"
            }
          ],
          "internalType": "struct GoFundme.CampaignDetails[]",
          "name": "",
          "type": "tuple[]"
        }
      ],
      "stateMutability": "view",
      "type": "function",
      "constant": true
    },
    {
      "inputs": [
        {
          "internalType": "uint256",
          "name": "campaignId",
          "type": "uint256"
        }
      ],
      "name": "deleteCampaign",
      "outputs": [],
      "stateMutability": "nonpayable",
      "type": "function"
    },
    {
      "inputs": [
        {
          "internalType": "uint256",
          "name": "campaignId",
          "type": "uint256"
        }
      ],
      "name": "getCampaignById",
      "outputs": [
        {
          "components": [
            {
              "internalType": "address",
              "name": "creator",
              "type": "address"
            },
            {
              "internalType": "string",
              "name": "name",
              "type": "string"
            },
            {
              "internalType": "string",
              "name": "title",
              "type": "string"
            },
            {
              "internalType": "string",
              "name": "description",
              "type": "string"
            },
            {
              "internalType": "uint256",
              "name": "targetAmount",
              "type": "uint256"
            },
            {
              "internalType": "string",
              "name": "image",
              "type": "string"
            },
            {
              "internalType": "uint256",
              "name": "createdAt",
              "type": "uint256"
            },
            {
              "internalType": "uint256",
              "name": "deadline",
              "type": "uint256"
            },
            {
              "internalType": "uint256",
              "name": "totalDonated",
              "type": "uint256"
            },
            {
              "internalType": "address[]",
              "name": "donators",
              "type": "address[]"
            },
            {
              "internalType": "bool",
              "name": "withdrawn",
              "type": "bool"
            },
            {
              "internalType": "bool",
              "name": "reachedDeadline",
              "type": "bool"
            }
          ],
          "internalType": "struct GoFundme.CampaignDetails",
          "name": "",
          "type": "tuple"
        }
      ],
      "stateMutability": "view",
      "type": "function",
      "constant": true
    },
    {
      "inputs": [
        {
          "internalType": "uint256",
          "name": "campaignId",
          "type": "uint256"
        },
        {
          "internalType": "uint256",
          "name": "newTargetAmount",
          "type": "uint256"
        }
      ],
      "name": "updateTargetAmount",
      "outputs": [],
      "stateMutability": "nonpayable",
      "type": "function"
    },
    {
      "inputs": [
        {
          "internalType": "uint256",
          "name": "campaignId",
          "type": "uint256"
        }
      ],
      "name": "claimRefund",
      "outputs": [],
      "stateMutability": "nonpayable",
      "type": "function"
    }
  ],
  "bytecode": "0x6080604052613893806100115f395ff3fe6080604052600436106100f2575f3560e01c80637274e30d11610089578063d5b8d84a11610058578063d5b8d84a14610350578063e6ffcaa11461038c578063f14faf6f146103c8578063f4e7cb36146103e4576100f2565b80637274e30d1461029257806375970193146102bc578063a6990946146102e4578063b3795aad14610320576100f2565b80634eedb7d9116100c55780634eedb7d9146101dc5780635b7baf64146102045780636c7558b01461022c5780636e5b46f514610268576100f2565b8063141961bc146100f6578063155dd5ee1461013c5780631e0104391461016457806329516511146101a0575b5f80fd5b348015610101575f80fd5b5061011c60048036038101906101179190612068565b61040e565b6040516101339b9a99989796959493929190612185565b60405180910390f35b348015610147575f80fd5b50610162600480360381019061015d9190612068565b6106b3565b005b34801561016f575f80fd5b5061018a60048036038101906101859190612068565b6109c8565b604051610197919061224a565b60405180910390f35b3480156101ab575f80fd5b506101c660048036038101906101c19190612068565b610a2f565b6040516101d39190612367565b60405180910390f35b3480156101e7575f80fd5b5061020260048036038101906101fd9190612387565b610bdf565b005b34801561020f575f80fd5b5061022a60048036038101906102259190612068565b610d55565b005b348015610237575f80fd5b50610252600480360381019061024d9190612068565b61100a565b60405161025f91906123c5565b60405180910390f35b348015610273575f80fd5b5061027c611078565b60405161028991906126b5565b60405180910390f35b34801561029d575f80fd5b506102a66111ae565b6040516102b3919061224a565b60405180910390f35b3480156102c7575f80fd5b506102e260048036038101906102dd9190612068565b6111b4565b005b3480156102ef575f80fd5b5061030a60048036038101906103059190612068565b611320565b60405161031791906123c5565b60405180910390f35b61033a60048036038101906103359190612801565b61138a565b604051610347919061224a565b60405180910390f35b34801561035b575f80fd5b5061037660048036038101906103719190612924565b61157d565b60405161038391906126b5565b60405180910390f35b348015610397575f80fd5b506103b260048036038101906103ad9190612068565b611745565b6040516103bf9190612a6c565b60405180910390f35b6103e260048036038101906103dd9190612068565b6117b2565b005b3480156103ef575f80fd5b506103f8611a4c565b60405161040591906126b5565b60405180910390f35b5f602052805f5260405f205f91509050805f015f9054906101000a900473ffffffffffffffffffffffffffffffffffffffff169080600101805461045190612ab9565b80601f016020809104026020016040519081016040528092919081815260200182805461047d90612ab9565b80156104c85780601f1061049f576101008083540402835291602001916104c8565b820191905f5260205f20905b8154815290600101906020018083116104ab57829003601f168201915b5050505050908060020180546104dd90612ab9565b80601f016020809104026020016040519081016040528092919081815260200182805461050990612ab9565b80156105545780601f1061052b57610100808354040283529160200191610554565b820191905f5260205f20905b81548152906001019060200180831161053757829003601f168201915b50505050509080600301805461056990612ab9565b80601f016020809104026020016040519081016040528092919081815260200182805461059590612ab9565b80156105e05780601f106105b7576101008083540402835291602001916105e0565b820191905f5260205f20905b8154815290600101906020018083116105c357829003601f168201915b5050505050908060040154908060050180546105fb90612ab9565b80601f016020809104026020016040519081016040528092919081815260200182805461062790612ab9565b80156106725780601f1061064957610100808354040283529160200191610672565b820191905f5260205f20905b81548152906001019060200180831161065557829003601f168201915b50505050509080600601549080600701549080600801549080600b015f9054906101000a900460ff169080600b0160019054906101000a900460ff1690508b565b8060015481106106f8576040517f08c379a00000000000000000000000000000000000000000000000000000000081526004016106ef90612b33565b60405180910390fd5b5f805f8481526020019081526020015f2090503373ffffffffffffffffffffffffffffffffffffffff16815f015f9054906101000a900473ffffffffffffffffffffffffffffffffffffffff1673ffffffffffffffffffffffffffffffffffffffff161461079b576040517f08c379a000000000000000000000000000000000000000000000000000000000815260040161079290612bc1565b60405180910390fd5b80600b015f9054906101000a900460ff16156107ec576040517f08c379a00000000000000000000000000000000000000000000000000000000081526004016107e390612c29565b60405180910390fd5b6107f58361100a565b610834576040517f08c379a000000000000000000000000000000000000000000000000000000000815260040161082b90612c91565b60405180910390fd5b806007015442111561087b576040517f08c379a000000000000000000000000000000000000000000000000000000000815260040161087290612cf9565b60405180910390fd5b5f81600801549050600182600b015f6101000a81548160ff021916908315150217905550600182600b0160016101000a81548160ff0219169083151502179055505f825f015f9054906101000a900473ffffffffffffffffffffffffffffffffffffffff1673ffffffffffffffffffffffffffffffffffffffff168260405161090390612d44565b5f6040518083038185875af1925050503d805f811461093d576040519150601f19603f3d011682016040523d82523d5f602084013e610942565b606091505b5050905080610986576040517f08c379a000000000000000000000000000000000000000000000000000000000815260040161097d90612da2565b60405180910390fd5b7ff440aec6b52895984d061d622e6edeba6210f7c3e059be920663140c084560d78533846040516109b993929190612dcf565b60405180910390a15050505050565b5f816001548110610a0e576040517f08c379a0000000000000000000000000000000000000000000000000000000008152600401610a0590612b33565b60405180910390fd5b5f805f8581526020019081526020015f209050806008015492505050919050565b6060816001548110610a76576040517f08c379a0000000000000000000000000000000000000000000000000000000008152600401610a6d90612b33565b60405180910390fd5b5f805f8581526020019081526020015f2090505f81600a018054905090505f8167ffffffffffffffff811115610aaf57610aae6126dd565b5b604051908082528060200260200182016040528015610ae857816020015b610ad5611f82565b815260200190600190039081610acd5790505b5090505f5b82811015610bd2575f84600a018281548110610b0c57610b0b612e04565b5b905f5260205f20015f9054906101000a900473ffffffffffffffffffffffffffffffffffffffff16905060405180604001604052808273ffffffffffffffffffffffffffffffffffffffff168152602001866009015f8473ffffffffffffffffffffffffffffffffffffffff1673ffffffffffffffffffffffffffffffffffffffff1681526020019081526020015f2054815250838381518110610bb357610bb2612e04565b5b6020026020010181905250508080610bca90612e5e565b915050610aed565b5080945050505050919050565b816001548110610c24576040517f08c379a0000000000000000000000000000000000000000000000000000000008152600401610c1b90612b33565b60405180910390fd5b5f805f8581526020019081526020015f2090503373ffffffffffffffffffffffffffffffffffffffff16815f015f9054906101000a900473ffffffffffffffffffffffffffffffffffffffff1673ffffffffffffffffffffffffffffffffffffffff1614610cc7576040517f08c379a0000000000000000000000000000000000000000000000000000000008152600401610cbe90612f15565b60405180910390fd5b80600801548311610d0d576040517f08c379a0000000000000000000000000000000000000000000000000000000008152600401610d0490612fa3565b60405180910390fd5b8281600401819055507f7f88365aae4228588bbe2e4fe761eb6c12cbdef7cac2a092afe3cfaee88199738484604051610d47929190612fc1565b60405180910390a150505050565b806001548110610d9a576040517f08c379a0000000000000000000000000000000000000000000000000000000008152600401610d9190612b33565b60405180910390fd5b5f805f8481526020019081526020015f20905080600701544211610df3576040517f08c379a0000000000000000000000000000000000000000000000000000000008152600401610dea90613032565b60405180910390fd5b8060040154816008015410610e3d576040517f08c379a0000000000000000000000000000000000000000000000000000000008152600401610e34906130c0565b60405180910390fd5b5f816009015f3373ffffffffffffffffffffffffffffffffffffffff1673ffffffffffffffffffffffffffffffffffffffff1681526020019081526020015f205490505f8111610ec2576040517f08c379a0000000000000000000000000000000000000000000000000000000008152600401610eb990613128565b60405180910390fd5b5f826009015f3373ffffffffffffffffffffffffffffffffffffffff1673ffffffffffffffffffffffffffffffffffffffff1681526020019081526020015f208190555080826008015f828254610f199190613146565b925050819055505f3373ffffffffffffffffffffffffffffffffffffffff1682604051610f4590612d44565b5f6040518083038185875af1925050503d805f8114610f7f576040519150601f19603f3d011682016040523d82523d5f602084013e610f84565b606091505b5050905080610fc8576040517f08c379a0000000000000000000000000000000000000000000000000000000008152600401610fbf906131c3565b60405180910390fd5b7ff3f402280ef0a7905e124aa621b65eaeb2725c343e8b36d398ed78c29daf285c853384604051610ffb93929190612dcf565b60405180910390a15050505050565b5f816001548110611050576040517f08c379a000000000000000000000000000000000000000000000000000000000815260040161104790612b33565b60405180910390fd5b5f805f8581526020019081526020015f20905080600401548160080154101592505050919050565b60605f805f90505b6001548110156110c9576110a25f808381526020019081526020015f20611b82565b156110b65781806110b290612e5e565b9250505b80806110c190612e5e565b915050611080565b505f8167ffffffffffffffff8111156110e5576110e46126dd565b5b60405190808252806020026020018201604052801561111e57816020015b61110b611fb0565b8152602001906001900390816111035790505b5090505f805f90505b6001548110156111a4576111495f808381526020019081526020015f20611b82565b15611191576111665f808381526020019081526020015f20611bc7565b83838061117290612e5e565b94508151811061118557611184612e04565b5b60200260200101819052505b808061119c90612e5e565b915050611127565b5081935050505090565b60015481565b8060015481106111f9576040517f08c379a00000000000000000000000000000000000000000000000000000000081526004016111f090612b33565b60405180910390fd5b5f805f8481526020019081526020015f2090503373ffffffffffffffffffffffffffffffffffffffff16815f015f9054906101000a900473ffffffffffffffffffffffffffffffffffffffff1673ffffffffffffffffffffffffffffffffffffffff161461129c576040517f08c379a000000000000000000000000000000000000000000000000000000000815260040161129390613251565b60405180910390fd5b5f8160080154146112e2576040517f08c379a00000000000000000000000000000000000000000000000000000000081526004016112d9906132df565b60405180910390fd5b600181600b015f6101000a81548160ff021916908315150217905550600181600b0160016101000a81548160ff021916908315150217905550505050565b5f816001548110611366576040517f08c379a000000000000000000000000000000000000000000000000000000000815260040161135d90612b33565b60405180910390fd5b5f805f8581526020019081526020015f209050428160070154111592505050919050565b5f8084116113cd576040517f08c379a00000000000000000000000000000000000000000000000000000000081526004016113c49061336d565b60405180910390fd5b42821161140f576040517f08c379a0000000000000000000000000000000000000000000000000000000008152600401611406906133d5565b60405180910390fd5b5f805f60015481526020019081526020015f20905033815f015f6101000a81548173ffffffffffffffffffffffffffffffffffffffff021916908373ffffffffffffffffffffffffffffffffffffffff160217905550878160010190816114769190613590565b50868160020190816114889190613590565b508581600301908161149a9190613590565b50848160040181905550838160050190816114b59190613590565b504281600601819055508281600701819055505f81600801819055505f81600b015f6101000a81548160ff0219169083151502179055505f81600b0160016101000a81548160ff0219169083151502179055507f98a0d441b7626ac9b31750373850d01cdb57ad3406ddc03bb1d40a12c18de8226001543387868b8b6040516115439695949392919061365f565b60405180910390a160015f81548092919061155d90612e5e565b9190505550600180546115709190613146565b9150509695505050505050565b60605f805f90505b600154811015611615578373ffffffffffffffffffffffffffffffffffffffff165f808381526020019081526020015f205f015f9054906101000a900473ffffffffffffffffffffffffffffffffffffffff1673ffffffffffffffffffffffffffffffffffffffff16036116025781806115fe90612e5e565b9250505b808061160d90612e5e565b915050611585565b505f8167ffffffffffffffff811115611631576116306126dd565b5b60405190808252806020026020018201604052801561166a57816020015b611657611fb0565b81526020019060019003908161164f5790505b5090505f805f90505b600154811015611739578573ffffffffffffffffffffffffffffffffffffffff165f808381526020019081526020015f205f015f9054906101000a900473ffffffffffffffffffffffffffffffffffffffff1673ffffffffffffffffffffffffffffffffffffffff1603611726576116f95f808381526020019081526020015f20611bc7565b83838151811061170c5761170b612e04565b5b6020026020010181905250818061172290612e5e565b9250505b808061173190612e5e565b915050611673565b50819350505050919050565b61174d611fb0565b816001548110611792576040517f08c379a000000000000000000000000000000000000000000000000000000000815260040161178990612b33565b60405180910390fd5b6117aa5f808581526020019081526020015f20611bc7565b915050919050565b8060015481106117f7576040517f08c379a00000000000000000000000000000000000000000000000000000000081526004016117ee90612b33565b60405180910390fd5b5f805f8481526020019081526020015f20905080600b015f9054906101000a900460ff161561185b576040517f08c379a00000000000000000000000000000000000000000000000000000000081526004016118529061373c565b60405180910390fd5b80600701544211156118a2576040517f08c379a0000000000000000000000000000000000000000000000000000000008152600401611899906137a4565b60405180910390fd5b80600b0160019054906101000a900460ff16156118f4576040517f08c379a00000000000000000000000000000000000000000000000000000000081526004016118eb9061380c565b60405180910390fd5b5f816009015f3373ffffffffffffffffffffffffffffffffffffffff1673ffffffffffffffffffffffffffffffffffffffff1681526020019081526020015f20540361199d5780600a0133908060018154018082558091505060019003905f5260205f20015f9091909190916101000a81548173ffffffffffffffffffffffffffffffffffffffff021916908373ffffffffffffffffffffffffffffffffffffffff1602179055505b34816008015f8282546119b0919061382a565b9250508190555034816009015f3373ffffffffffffffffffffffffffffffffffffffff1673ffffffffffffffffffffffffffffffffffffffff1681526020019081526020015f205f828254611a05919061382a565b925050819055507fe555da28bdb778f65d22794d88927ebaeca03f7de9d1b7d39245bc8fb5ca078a833334604051611a3f93929190612dcf565b60405180910390a1505050565b60605f805f90505b600154811015611a9d57611a765f808381526020019081526020015f20611f42565b15611a8a578180611a8690612e5e565b9250505b8080611a9590612e5e565b915050611a54565b505f8167ffffffffffffffff811115611ab957611ab86126dd565b5b604051908082528060200260200182016040528015611af257816020015b611adf611fb0565b815260200190600190039081611ad75790505b5090505f805f90505b600154811015611b7857611b1d5f808381526020019081526020015f20611f42565b15611b6557611b3a5f808381526020019081526020015f20611bc7565b838380611b4690612e5e565b945081518110611b5957611b58612e04565b5b60200260200101819052505b8080611b7090612e5e565b915050611afb565b5081935050505090565b5f81600b015f9054906101000a900460ff16158015611bb0575081600b0160019054906101000a900460ff16155b8015611bc0575081600701544211155b9050919050565b611bcf611fb0565b604051806101800160405280835f015f9054906101000a900473ffffffffffffffffffffffffffffffffffffffff1673ffffffffffffffffffffffffffffffffffffffff168152602001836001018054611c2890612ab9565b80601f0160208091040260200160405190810160405280929190818152602001828054611c5490612ab9565b8015611c9f5780601f10611c7657610100808354040283529160200191611c9f565b820191905f5260205f20905b815481529060010190602001808311611c8257829003601f168201915b50505050508152602001836002018054611cb890612ab9565b80601f0160208091040260200160405190810160405280929190818152602001828054611ce490612ab9565b8015611d2f5780601f10611d0657610100808354040283529160200191611d2f565b820191905f5260205f20905b815481529060010190602001808311611d1257829003601f168201915b50505050508152602001836003018054611d4890612ab9565b80601f0160208091040260200160405190810160405280929190818152602001828054611d7490612ab9565b8015611dbf5780601f10611d9657610100808354040283529160200191611dbf565b820191905f5260205f20905b815481529060010190602001808311611da257829003601f168201915b5050505050815260200183600401548152602001836005018054611de290612ab9565b80601f0160208091040260200160405190810160405280929190818152602001828054611e0e90612ab9565b8015611e595780601f10611e3057610100808354040283529160200191611e59565b820191905f5260205f20905b815481529060010190602001808311611e3c57829003601f168201915b5050505050815260200183600601548152602001836007015481526020018360080154815260200183600a01805480602002602001604051908101604052809291908181526020018280548015611f0257602002820191905f5260205f20905b815f9054906101000a900473ffffffffffffffffffffffffffffffffffffffff1673ffffffffffffffffffffffffffffffffffffffff1681526020019060010190808311611eb9575b5050505050815260200183600b015f9054906101000a900460ff161515815260200183600b0160019054906101000a900460ff1615158152509050919050565b5f81600b015f9054906101000a900460ff1680611f6d575081600b0160019054906101000a900460ff165b80611f7b5750816007015442115b9050919050565b60405180604001604052805f73ffffffffffffffffffffffffffffffffffffffff1681526020015f81525090565b6040518061018001604052805f73ffffffffffffffffffffffffffffffffffffffff1681526020016060815260200160608152602001606081526020015f8152602001606081526020015f81526020015f81526020015f8152602001606081526020015f151581526020015f151581525090565b5f604051905090565b5f80fd5b5f80fd5b5f819050919050565b61204781612035565b8114612051575f80fd5b50565b5f813590506120628161203e565b92915050565b5f6020828403121561207d5761207c61202d565b5b5f61208a84828501612054565b91505092915050565b5f73ffffffffffffffffffffffffffffffffffffffff82169050919050565b5f6120bc82612093565b9050919050565b6120cc816120b2565b82525050565b5f81519050919050565b5f82825260208201905092915050565b5f5b838110156121095780820151818401526020810190506120ee565b5f8484015250505050565b5f601f19601f8301169050919050565b5f61212e826120d2565b61213881856120dc565b93506121488185602086016120ec565b61215181612114565b840191505092915050565b61216581612035565b82525050565b5f8115159050919050565b61217f8161216b565b82525050565b5f610160820190506121995f83018e6120c3565b81810360208301526121ab818d612124565b905081810360408301526121bf818c612124565b905081810360608301526121d3818b612124565b90506121e2608083018a61215c565b81810360a08301526121f48189612124565b905061220360c083018861215c565b61221060e083018761215c565b61221e61010083018661215c565b61222c610120830185612176565b61223a610140830184612176565b9c9b505050505050505050505050565b5f60208201905061225d5f83018461215c565b92915050565b5f81519050919050565b5f82825260208201905092915050565b5f819050602082019050919050565b5f61229682612093565b9050919050565b6122a68161228c565b82525050565b6122b581612035565b82525050565b604082015f8201516122cf5f85018261229d565b5060208201516122e260208501826122ac565b50505050565b5f6122f383836122bb565b60408301905092915050565b5f602082019050919050565b5f61231582612263565b61231f818561226d565b935061232a8361227d565b805f5b8381101561235a57815161234188826122e8565b975061234c836122ff565b92505060018101905061232d565b5085935050505092915050565b5f6020820190508181035f83015261237f818461230b565b905092915050565b5f806040838503121561239d5761239c61202d565b5b5f6123aa85828601612054565b92505060206123bb85828601612054565b9150509250929050565b5f6020820190506123d85f830184612176565b92915050565b5f81519050919050565b5f82825260208201905092915050565b5f819050602082019050919050565b5f82825260208201905092915050565b5f612421826120d2565b61242b8185612407565b935061243b8185602086016120ec565b61244481612114565b840191505092915050565b5f81519050919050565b5f82825260208201905092915050565b5f819050602082019050919050565b5f612483838361229d565b60208301905092915050565b5f602082019050919050565b5f6124a58261244f565b6124af8185612459565b93506124ba83612469565b805f5b838110156124ea5781516124d18882612478565b97506124dc8361248f565b9250506001810190506124bd565b5085935050505092915050565b6125008161216b565b82525050565b5f61018083015f83015161251c5f86018261229d565b50602083015184820360208601526125348282612417565b9150506040830151848203604086015261254e8282612417565b915050606083015184820360608601526125688282612417565b915050608083015161257d60808601826122ac565b5060a083015184820360a08601526125958282612417565b91505060c08301516125aa60c08601826122ac565b5060e08301516125bd60e08601826122ac565b506101008301516125d26101008601826122ac565b506101208301518482036101208601526125ec828261249b565b9150506101408301516126036101408601826124f7565b506101608301516126186101608601826124f7565b508091505092915050565b5f61262e8383612506565b905092915050565b5f602082019050919050565b5f61264c826123de565b61265681856123e8565b935083602082028501612668856123f8565b805f5b858110156126a357848403895281516126848582612623565b945061268f83612636565b925060208a0199505060018101905061266b565b50829750879550505050505092915050565b5f6020820190508181035f8301526126cd8184612642565b905092915050565b5f80fd5b5f80fd5b7f4e487b71000000000000000000000000000000000000000000000000000000005f52604160045260245ffd5b61271382612114565b810181811067ffffffffffffffff82111715612732576127316126dd565b5b80604052505050565b5f612744612024565b9050612750828261270a565b919050565b5f67ffffffffffffffff82111561276f5761276e6126dd565b5b61277882612114565b9050602081019050919050565b828183375f83830152505050565b5f6127a56127a084612755565b61273b565b9050828152602081018484840111156127c1576127c06126d9565b5b6127cc848285612785565b509392505050565b5f82601f8301126127e8576127e76126d5565b5b81356127f8848260208601612793565b91505092915050565b5f805f805f8060c0878903121561281b5761281a61202d565b5b5f87013567ffffffffffffffff81111561283857612837612031565b5b61284489828a016127d4565b965050602087013567ffffffffffffffff81111561286557612864612031565b5b61287189828a016127d4565b955050604087013567ffffffffffffffff81111561289257612891612031565b5b61289e89828a016127d4565b94505060606128af89828a01612054565b935050608087013567ffffffffffffffff8111156128d0576128cf612031565b5b6128dc89828a016127d4565b92505060a06128ed89828a01612054565b9150509295509295509295565b6129038161228c565b811461290d575f80fd5b50565b5f8135905061291e816128fa565b92915050565b5f602082840312156129395761293861202d565b5b5f61294684828501612910565b91505092915050565b5f61018083015f8301516129655f86018261229d565b506020830151848203602086015261297d8282612417565b915050604083015184820360408601526129978282612417565b915050606083015184820360608601526129b18282612417565b91505060808301516129c660808601826122ac565b5060a083015184820360a08601526129de8282612417565b91505060c08301516129f360c08601826122ac565b5060e0830151612a0660e08601826122ac565b50610100830151612a1b6101008601826122ac565b50610120830151848203610120860152612a35828261249b565b915050610140830151612a4c6101408601826124f7565b50610160830151612a616101608601826124f7565b508091505092915050565b5f6020820190508181035f830152612a84818461294f565b905092915050565b7f4e487b71000000000000000000000000000000000000000000000000000000005f52602260045260245ffd5b5f6002820490506001821680612ad057607f821691505b602082108103612ae357612ae2612a8c565b5b50919050565b7f43616d706169676e20646f6573206e6f742065786973740000000000000000005f82015250565b5f612b1d6017836120dc565b9150612b2882612ae9565b602082019050919050565b5f6020820190508181035f830152612b4a81612b11565b9050919050565b7f4f6e6c79207468652063726561746f722063616e2077697468647261772066755f8201527f6e64732e00000000000000000000000000000000000000000000000000000000602082015250565b5f612bab6024836120dc565b9150612bb682612b51565b604082019050919050565b5f6020820190508181035f830152612bd881612b9f565b9050919050565b7f46756e647320616c72656164792077697468647261776e2e00000000000000005f82015250565b5f612c136018836120dc565b9150612c1e82612bdf565b602082019050919050565b5f6020820190508181035f830152612c4081612c07565b9050919050565b7f546172676574206e6f7420726561636865642e000000000000000000000000005f82015250565b5f612c7b6013836120dc565b9150612c8682612c47565b602082019050919050565b5f6020820190508181035f830152612ca881612c6f565b9050919050565b7f446561646c696e652070617373656400000000000000000000000000000000005f82015250565b5f612ce3600f836120dc565b9150612cee82612caf565b602082019050919050565b5f6020820190508181035f830152612d1081612cd7565b9050919050565b5f81905092915050565b50565b5f612d2f5f83612d17565b9150612d3a82612d21565b5f82019050919050565b5f612d4e82612d24565b9150819050919050565b7f5472616e73666572206661696c656400000000000000000000000000000000005f82015250565b5f612d8c600f836120dc565b9150612d9782612d58565b602082019050919050565b5f6020820190508181035f830152612db981612d80565b9050919050565b612dc98161228c565b82525050565b5f606082019050612de25f83018661215c565b612def6020830185612dc0565b612dfc604083018461215c565b949350505050565b7f4e487b71000000000000000000000000000000000000000000000000000000005f52603260045260245ffd5b7f4e487b71000000000000000000000000000000000000000000000000000000005f52601160045260245ffd5b5f612e6882612035565b91507fffffffffffffffffffffffffffffffffffffffffffffffffffffffffffffffff8203612e9a57612e99612e31565b5b600182019050919050565b7f4f6e6c79207468652063726561746f722063616e2075706461746520746865205f8201527f74617267657420616d6f756e742e000000000000000000000000000000000000602082015250565b5f612eff602e836120dc565b9150612f0a82612ea5565b604082019050919050565b5f6020820190508181035f830152612f2c81612ef3565b9050919050565b7f4e657720746172676574206d7573742062652067726561746572207468616e205f8201527f74686520616d6f756e7420616c726561647920646f6e617465642e0000000000602082015250565b5f612f8d603b836120dc565b9150612f9882612f33565b604082019050919050565b5f6020820190508181035f830152612fba81612f81565b9050919050565b5f604082019050612fd45f83018561215c565b612fe1602083018461215c565b9392505050565b7f43616d706169676e206973207374696c6c206163746976652e000000000000005f82015250565b5f61301c6019836120dc565b915061302782612fe8565b602082019050919050565b5f6020820190508181035f83015261304981613010565b9050919050565b7f43616d706169676e207265616368656420697473207461726765743b207265665f8201527f756e64206e6f7420617661696c61626c652e0000000000000000000000000000602082015250565b5f6130aa6032836120dc565b91506130b582613050565b604082019050919050565b5f6020820190508181035f8301526130d78161309e565b9050919050565b7f4e6f20646f6e6174696f6e20666f756e6420666f722073656e6465722e0000005f82015250565b5f613112601d836120dc565b915061311d826130de565b602082019050919050565b5f6020820190508181035f83015261313f81613106565b9050919050565b5f61315082612035565b915061315b83612035565b925082820390508181111561317357613172612e31565b5b92915050565b7f526566756e64207472616e73666572206661696c6564000000000000000000005f82015250565b5f6131ad6016836120dc565b91506131b882613179565b602082019050919050565b5f6020820190508181035f8301526131da816131a1565b9050919050565b7f4f6e6c79207468652063726561746f722063616e2064656c65746520746869735f8201527f2063616d706169676e2e00000000000000000000000000000000000000000000602082015250565b5f61323b602a836120dc565b9150613246826131e1565b604082019050919050565b5f6020820190508181035f8301526132688161322f565b9050919050565b7f43616e6e6f742064656c65746520612063616d706169676e20746861742068615f8201527f7320726563656976656420646f6e6174696f6e732e0000000000000000000000602082015250565b5f6132c96035836120dc565b91506132d48261326f565b604082019050919050565b5f6020820190508181035f8301526132f6816132bd565b9050919050565b7f54617267657420616d6f756e74206d75737420626520677265617465722074685f8201527f616e207a65726f2e000000000000000000000000000000000000000000000000602082015250565b5f6133576028836120dc565b9150613362826132fd565b604082019050919050565b5f6020820190508181035f8301526133848161334b565b9050919050565b7f446561646c696e65206d75737420626520696e20746865206675747572652e005f82015250565b5f6133bf601f836120dc565b91506133ca8261338b565b602082019050919050565b5f6020820190508181035f8301526133ec816133b3565b9050919050565b5f819050815f5260205f209050919050565b5f6020601f8301049050919050565b5f82821b905092915050565b5f6008830261344f7fffffffffffffffffffffffffffffffffffffffffffffffffffffffffffffffff82613414565b6134598683613414565b95508019841693508086168417925050509392505050565b5f819050919050565b5f61349461348f61348a84612035565b613471565b612035565b9050919050565b5f819050919050565b6134ad8361347a565b6134c16134b98261349b565b848454613420565b825550505050565b5f90565b6134d56134c9565b6134e08184846134a4565b505050565b5b81811015613503576134f85f826134cd565b6001810190506134e6565b5050565b601f82111561354857613519816133f3565b61352284613405565b81016020851015613531578190505b61354561353d85613405565b8301826134e5565b50505b505050565b5f82821c905092915050565b5f6135685f198460080261354d565b1980831691505092915050565b5f6135808383613559565b9150826002028217905092915050565b613599826120d2565b67ffffffffffffffff8111156135b2576135b16126dd565b5b6135bc8254612ab9565b6135c7828285613507565b5f60209050601f8311600181146135f8575f84156135e6578287015190505b6135f08582613575565b865550613657565b601f198416613606866133f3565b5f5b8281101561362d57848901518255600182019150602085019450602081019050613608565b8683101561364a5784890151613646601f891682613559565b8355505b6001600288020188555050505b505050505050565b5f60c0820190506136725f83018961215c565b61367f6020830188612dc0565b61368c604083018761215c565b613699606083018661215c565b81810360808301526136ab8185612124565b905081810360a08301526136bf8184612124565b9050979650505050505050565b7f43616d706169676e2066756e647320616c72656164792077697468647261776e5f8201527f2e00000000000000000000000000000000000000000000000000000000000000602082015250565b5f6137266021836120dc565b9150613731826136cc565b604082019050919050565b5f6020820190508181035f8301526137538161371a565b9050919050565b7f43616d706169676e2068617320657870697265640000000000000000000000005f82015250565b5f61378e6014836120dc565b91506137998261375a565b602082019050919050565b5f6020820190508181035f8301526137bb81613782565b9050919050565b7f43616d706169676e20646561646c696e6520686173207061737365642e0000005f82015250565b5f6137f6601d836120dc565b9150613801826137c2565b602082019050919050565b5f6020820190508181035f830152613823816137ea565b9050919050565b5f61383482612035565b915061383f83612035565b925082820190508082111561385757613856612e31565b5b9291505056fea2646970667358221220970bfd70a7c629e55588b98cbd264b95980ac51d15a7d86cb55a8c585cd2776e64736f6c63430008150033",
  "immutableReferences": {},
  "source": "// SPDX-License-Identifier: MIT\npragma solidity ^0.8.11;\n\ncontract GoFundme {\n    constructor() payable {}\n\n    struct Campaign {\n        address payable creator;\n        string name;\n        string title; \n        string description;\n        uint256 targetAmount;\n        string image;\n        uint256 createdAt;\n        uint256 deadline; // Unix timestamp (seconds since epoch)\n        uint256 totalDonated;\n        mapping(address => uint256) donations;\n        address[] donators;\n        bool withdrawn;\n        bool reachedDeadline;\n    }\n    \n    // Struct for returning campaign details in memory (no mappings)\n    struct CampaignDetails {\n        address creator;\n        string name;\n        string title;\n        string description;\n        uint256 targetAmount;\n        string image;\n        uint256 createdAt;\n        uint256 deadline;\n        uint256 totalDonated;\n        address[] donators;\n        bool withdrawn;\n        bool reachedDeadline;\n    }\n\n    // Struct for returning donor information\n    struct Donor {\n        address donor;\n        uint256 amount;\n    }\n\n    mapping(uint256 => Campaign) public campaigns;\n    uint256 public campaignCount;\n\n    // Events\n    event CampaignCreated(uint256 campaignId, address creator, uint256 targetAmount, uint256 deadline, string title, string description);\n    event DonationMade(uint256 campaignId, address donor, uint256 amount);\n    event FundsWithdrawn(uint256 campaignId, address creator, uint256 amount);\n    event TargetUpdated(uint256 campaignId, uint256 newTargetAmount);\n    event RefundClaimed(uint256 campaignId, address donor, uint256 amount);\n\n    modifier campaignExists(uint campaignId) {\n        require(campaignId < campaignCount, \"Campaign does not exist\");\n        _;\n    }\n\n    // 1. Create a new campaign\n    function createCampaign(\n        string memory name,\n        string memory title,\n        string memory description,\n        uint256 targetAmount,\n        string memory image,\n        uint256 deadline\n    ) public payable returns (uint256) {\n        require(targetAmount > 0, \"Target amount must be greater than zero.\");\n        require(deadline > block.timestamp, \"Deadline must be in the future.\");\n\n        Campaign storage newCampaign = campaigns[campaignCount];\n        newCampaign.creator = payable(msg.sender);\n        newCampaign.name = name;\n        newCampaign.title = title;\n        newCampaign.description = description;\n        newCampaign.targetAmount = targetAmount;\n        newCampaign.image = image;\n        newCampaign.createdAt = block.timestamp;\n        newCampaign.deadline = deadline;\n        newCampaign.totalDonated = 0;\n        newCampaign.withdrawn = false;\n        newCampaign.reachedDeadline = false;\n\n        emit CampaignCreated(campaignCount, msg.sender, targetAmount, deadline, title, description);\n        campaignCount++; // Increment campaign count\n        return campaignCount - 1;\n    }\n\n    // 2. Donate to the campaign\n    function donate(uint256 campaignId) public payable campaignExists(campaignId) {\n        Campaign storage campaign = campaigns[campaignId];\n        require(!campaign.withdrawn, \"Campaign funds already withdrawn.\");\n        require(block.timestamp <= campaign.deadline, \"Campaign has expired\");\n        require(!campaign.reachedDeadline, \"Campaign deadline has passed.\");\n\n        // If first donation from sender, add them to the donators array.\n        if (campaign.donations[msg.sender] == 0) {\n            campaign.donators.push(msg.sender);\n        }\n\n        campaign.totalDonated += msg.value;\n        campaign.donations[msg.sender] += msg.value;\n        emit DonationMade(campaignId, msg.sender, msg.value);\n    }\n\n    // 3. Check if campaign has reached the deadline\n    function checkDeadline(uint256 campaignId) public view campaignExists(campaignId) returns (bool) {\n        Campaign storage campaign = campaigns[campaignId];\n        return campaign.deadline <= block.timestamp;\n    }\n\n    // 4. Check if the target for the campaign has been reached \n    function checkTargetReached(uint256 campaignId) public view campaignExists(campaignId) returns (bool) {\n        Campaign storage campaign = campaigns[campaignId];\n        return campaign.totalDonated >= campaign.targetAmount;\n    }\n\n    // 5. Withdraw funds by the campaign creator\n    function withdrawFunds(uint256 campaignId) public campaignExists(campaignId) {\n        Campaign storage campaign = campaigns[campaignId];\n        require(campaign.creator == msg.sender, \"Only the creator can withdraw funds.\");\n        require(!campaign.withdrawn, \"Funds already withdrawn.\");\n        require(checkTargetReached(campaignId), \"Target not reached.\");\n        require(block.timestamp <= campaign.deadline, \"Deadline passed\");\n\n        uint256 amount = campaign.totalDonated;\n        campaign.withdrawn = true;\n        campaign.reachedDeadline = true; // Prevent further withdrawals\n\n        // Transfer funds\n        (bool success, ) = campaign.creator.call{value: amount}(\"\");\n        require(success, \"Transfer failed\");\n\n        emit FundsWithdrawn(campaignId, msg.sender, amount);\n    }\n\n    // 6. Fetch the balance for a campaign\n    function getBalance(uint256 campaignId) public view campaignExists(campaignId) returns (uint256) {\n        Campaign storage campaign = campaigns[campaignId];\n        return campaign.totalDonated;\n    }\n\n    // 7. Get donators with the amounts they donated\n    function getDonors(uint256 campaignId) public view campaignExists(campaignId) returns (Donor[] memory) {\n        Campaign storage campaign = campaigns[campaignId];\n        uint256 donorCount = campaign.donators.length;\n        Donor[] memory donorsList = new Donor[](donorCount);\n\n        for (uint256 i = 0; i < donorCount; i++) {\n            address donorAddr = campaign.donators[i];\n            donorsList[i] = Donor({\n                donor: donorAddr,\n                amount: campaign.donations[donorAddr]\n            });\n        }\n        return donorsList;\n    }\n\n    // 8. Get all campaigns for a particular creator using _mapCampaign\n    function getCampaignsByCreator(address creator) public view returns (CampaignDetails[] memory) {\n        // First, count how many campaigns are created by the given creator.\n        uint256 countResult;\n        for (uint256 i = 0; i < campaignCount; i++) {\n            if (campaigns[i].creator == creator) {\n                countResult++;\n            }\n        }\n\n        // Allocate a new array for matching campaigns.\n        CampaignDetails[] memory result = new CampaignDetails[](countResult);\n        uint256 index;\n        for (uint256 i = 0; i < campaignCount; i++) {\n            if (campaigns[i].creator == creator) {\n                result[index] = _mapCampaign(campaigns[i]);\n                index++;\n            }\n        }\n        return result;\n    }\n\n    // 9. Get all active campaigns\n    function getAvailableCampaigns() public view returns (CampaignDetails[] memory) {\n        uint256 matchCount;\n        for (uint256 i = 0; i < campaignCount; i++) {\n            if (_isAvailable(campaigns[i])) {\n                matchCount++;\n            }\n        }\n\n        CampaignDetails[] memory result = new CampaignDetails[](matchCount);\n        uint256 index;\n        for (uint256 i = 0; i < campaignCount; i++) {\n            if (_isAvailable(campaigns[i])) {\n                result[index++] = _mapCampaign(campaigns[i]);\n            }\n        }\n        return result;\n    }\n\n    // 10. Get all past campaigns\n    function getPastCampaigns() public view returns (CampaignDetails[] memory) {\n        uint256 matchCount;\n        for (uint256 i = 0; i < campaignCount; i++) {\n            if (_isPast(campaigns[i])) {\n                matchCount++;\n            }\n        }\n\n        CampaignDetails[] memory result = new CampaignDetails[](matchCount);\n        uint256 index;\n        for (uint256 i = 0; i < campaignCount; i++) {\n            if (_isPast(campaigns[i])) {\n                result[index++] = _mapCampaign(campaigns[i]);\n            }\n        }\n        return result;\n    }\n\n    // Internal helper to check campaign availability\n    function _isAvailable(Campaign storage c) internal view returns (bool) {\n        return !c.withdrawn && !c.reachedDeadline && block.timestamp <= c.deadline;\n    }\n\n    // Internal helper to check if a campaign is past (i.e. finished or expired)\n    function _isPast(Campaign storage c) internal view returns (bool) {\n        return c.withdrawn || c.reachedDeadline || block.timestamp > c.deadline;\n    }\n\n    // Internal helper to map storage Campaign struct to a memory CampaignDetails struct\n    function _mapCampaign(Campaign storage c) internal view returns (CampaignDetails memory) {\n        return CampaignDetails({\n            creator: c.creator,\n            name: c.name,\n            title: c.title,\n            description: c.description,\n            targetAmount: c.targetAmount,\n            image: c.image,\n            createdAt: c.createdAt,\n            deadline: c.deadline,\n            totalDonated: c.totalDonated,\n            donators: c.donators,\n            withdrawn: c.withdrawn,\n            reachedDeadline: c.reachedDeadline\n        });\n    }\n\n    // 11. Delete a campaign by the creator\n    function deleteCampaign(uint256 campaignId) public campaignExists(campaignId) {\n        Campaign storage campaign = campaigns[campaignId];\n        require(campaign.creator == msg.sender, \"Only the creator can delete this campaign.\");\n        require(campaign.totalDonated == 0, \"Cannot delete a campaign that has received donations.\");\n\n        campaign.withdrawn = true;\n        campaign.reachedDeadline = true;\n        // The donators array remains intact to maintain record history.\n    }\n\n    // 12. Get a campaign using its ID\n    function getCampaignById(uint256 campaignId) public view campaignExists(campaignId) returns (CampaignDetails memory) {\n        return _mapCampaign(campaigns[campaignId]);\n    }\n\n    // --- New functions based on TODOs ---\n\n    // Update targetAmount field for a campaign.\n    function updateTargetAmount(uint256 campaignId, uint256 newTargetAmount) public campaignExists(campaignId) {\n        Campaign storage campaign = campaigns[campaignId];\n        require(campaign.creator == msg.sender, \"Only the creator can update the target amount.\");\n        // Ensure the new target is greater than the amount already donated.\n        require(newTargetAmount > campaign.totalDonated, \"New target must be greater than the amount already donated.\");\n        campaign.targetAmount = newTargetAmount;\n        emit TargetUpdated(campaignId, newTargetAmount);\n    }\n\n    // Allow donors to claim a refund if the campaign did not reach its target by the deadline.\n    function claimRefund(uint256 campaignId) public campaignExists(campaignId) {\n        Campaign storage campaign = campaigns[campaignId];\n        require(block.timestamp > campaign.deadline, \"Campaign is still active.\");\n        require(campaign.totalDonated < campaign.targetAmount, \"Campaign reached its target; refund not available.\");\n        uint256 donatedAmount = campaign.donations[msg.sender];\n        require(donatedAmount > 0, \"No donation found for sender.\");\n\n        // Set donation to zero before transfer to prevent re-entrancy.\n        campaign.donations[msg.sender] = 0;\n        // Adjust totalDonated if needed (optional)\n        campaign.totalDonated -= donatedAmount;\n        \n        (bool success, ) = payable(msg.sender).call{value: donatedAmount}(\"\");\n        require(success, \"Refund transfer failed\");\n\n        emit RefundClaimed(campaignId, msg.sender, donatedAmount);\n    }\n}\n",
  "sourcePath": "/home/alibaba/Downloads/projects/Crowdfund-web3/smart_contract/contracts/Crowdfund.sol",
  "compiler": {
    "name": "solc",
    "version": "0.8.21+commit.d9974bed.Emscripten.clang"
  },
  "schemaVersion": "3.4.16",
  "updatedAt": "2025-02-04T22:58:42.795Z",
  "networkType": "ethereum",
  "devdoc": {
    "kind": "dev",
    "methods": {},
    "version": 1
  },
  "userdoc": {
    "kind": "user",
    "methods": {},
    "version": 1
  }
}