{
  "contractName": "GoFundme",
  "abi": [
    {
      "inputs": [],
      "stateMutability": "payable",
      "type": "constructor",
      "payable": true
    },
    {
      "anonymous": false,
      "inputs": [
        {
          "indexed": false,
          "internalType": "uint256",
          "name": "campaignId",
          "type": "uint256"
        },
        {
          "indexed": false,
          "internalType": "address",
          "name": "creator",
          "type": "address"
        },
        {
          "indexed": false,
          "internalType": "uint256",
          "name": "targetAmount",
          "type": "uint256"
        },
        {
          "indexed": false,
          "internalType": "uint256",
          "name": "deadline",
          "type": "uint256"
        },
        {
          "indexed": false,
          "internalType": "string",
          "name": "title",
          "type": "string"
        },
        {
          "indexed": false,
          "internalType": "string",
          "name": "description",
          "type": "string"
        }
      ],
      "name": "CampaignCreated",
      "type": "event"
    },
    {
      "anonymous": false,
      "inputs": [
        {
          "indexed": false,
          "internalType": "uint256",
          "name": "campaignId",
          "type": "uint256"
        },
        {
          "indexed": false,
          "internalType": "address",
          "name": "donor",
          "type": "address"
        },
        {
          "indexed": false,
          "internalType": "uint256",
          "name": "amount",
          "type": "uint256"
        }
      ],
      "name": "DonationMade",
      "type": "event"
    },
    {
      "anonymous": false,
      "inputs": [
        {
          "indexed": false,
          "internalType": "uint256",
          "name": "campaignId",
          "type": "uint256"
        },
        {
          "indexed": false,
          "internalType": "address",
          "name": "creator",
          "type": "address"
        },
        {
          "indexed": false,
          "internalType": "uint256",
          "name": "amount",
          "type": "uint256"
        }
      ],
      "name": "FundsWithdrawn",
      "type": "event"
    },
    {
      "inputs": [],
      "name": "campaignCount",
      "outputs": [
        {
          "internalType": "uint256",
          "name": "",
          "type": "uint256"
        }
      ],
      "stateMutability": "view",
      "type": "function",
      "constant": true
    },
    {
      "inputs": [
        {
          "internalType": "uint256",
          "name": "",
          "type": "uint256"
        }
      ],
      "name": "campaigns",
      "outputs": [
        {
          "internalType": "address payable",
          "name": "creator",
          "type": "address"
        },
        {
          "internalType": "string",
          "name": "title",
          "type": "string"
        },
        {
          "internalType": "string",
          "name": "description",
          "type": "string"
        },
        {
          "internalType": "uint256",
          "name": "targetAmount",
          "type": "uint256"
        },
        {
          "internalType": "uint256",
          "name": "deadline",
          "type": "uint256"
        },
        {
          "internalType": "uint256",
          "name": "totalDonated",
          "type": "uint256"
        },
        {
          "internalType": "bool",
          "name": "withdrawn",
          "type": "bool"
        },
        {
          "internalType": "bool",
          "name": "reachedDeadline",
          "type": "bool"
        }
      ],
      "stateMutability": "view",
      "type": "function",
      "constant": true
    },
    {
      "inputs": [
        {
          "internalType": "uint256",
          "name": "targetAmount",
          "type": "uint256"
        },
        {
          "internalType": "uint256",
          "name": "deadline",
          "type": "uint256"
        },
        {
          "internalType": "string",
          "name": "title",
          "type": "string"
        },
        {
          "internalType": "string",
          "name": "description",
          "type": "string"
        }
      ],
      "name": "createCampaign",
      "outputs": [
        {
          "internalType": "uint256",
          "name": "",
          "type": "uint256"
        }
      ],
      "stateMutability": "payable",
      "type": "function",
      "payable": true
    },
    {
      "inputs": [
        {
          "internalType": "uint256",
          "name": "campaignId",
          "type": "uint256"
        }
      ],
      "name": "donate",
      "outputs": [],
      "stateMutability": "payable",
      "type": "function",
      "payable": true
    },
    {
      "inputs": [
        {
          "internalType": "uint256",
          "name": "campaignId",
          "type": "uint256"
        }
      ],
      "name": "checkDeadline",
      "outputs": [
        {
          "internalType": "bool",
          "name": "",
          "type": "bool"
        }
      ],
      "stateMutability": "view",
      "type": "function",
      "constant": true
    },
    {
      "inputs": [
        {
          "internalType": "uint256",
          "name": "campaignId",
          "type": "uint256"
        }
      ],
      "name": "checkTargetReached",
      "outputs": [
        {
          "internalType": "bool",
          "name": "",
          "type": "bool"
        }
      ],
      "stateMutability": "view",
      "type": "function",
      "constant": true
    },
    {
      "inputs": [
        {
          "internalType": "uint256",
          "name": "campaignId",
          "type": "uint256"
        }
      ],
      "name": "withdrawFunds",
      "outputs": [],
      "stateMutability": "nonpayable",
      "type": "function"
    },
    {
      "inputs": [
        {
          "internalType": "uint256",
          "name": "campaignId",
          "type": "uint256"
        }
      ],
      "name": "getBalance",
      "outputs": [
        {
          "internalType": "uint256",
          "name": "",
          "type": "uint256"
        }
      ],
      "stateMutability": "view",
      "type": "function",
      "constant": true
    },
    {
      "inputs": [
        {
          "internalType": "uint256",
          "name": "campaignId",
          "type": "uint256"
        }
      ],
      "name": "getDonors",
      "outputs": [
        {
          "internalType": "address[]",
          "name": "",
          "type": "address[]"
        }
      ],
      "stateMutability": "view",
      "type": "function",
      "constant": true
    },
    {
      "inputs": [
        {
          "internalType": "address",
          "name": "creator",
          "type": "address"
        }
      ],
      "name": "getCampaignsByCreator",
      "outputs": [
        {
          "internalType": "uint256[]",
          "name": "",
          "type": "uint256[]"
        }
      ],
      "stateMutability": "view",
      "type": "function",
      "constant": true
    },
    {
      "inputs": [],
      "name": "getAllCampaigns",
      "outputs": [
        {
          "internalType": "uint256[]",
          "name": "",
          "type": "uint256[]"
        }
      ],
      "stateMutability": "view",
      "type": "function",
      "constant": true
    }
  ],
  "bytecode": "0x6080604052611f89806100115f395ff3fe60806040526004361061009b575f3560e01c80637274e30d116100635780637274e30d146101be57806386cdf604146101e8578063a699094614610212578063b63e0eb01461024e578063d5b8d84a1461027e578063f14faf6f146102ba5761009b565b8063141961bc1461009f578063155dd5ee146100e25780631e0104391461010a57806329516511146101465780636c7558b014610182575b5f80fd5b3480156100aa575f80fd5b506100c560048036038101906100c09190611075565b6102d6565b6040516100d9989796959493929190611192565b60405180910390f35b3480156100ed575f80fd5b5061010860048036038101906101039190611075565b61045d565b005b348015610115575f80fd5b50610130600480360381019061012b9190611075565b6106de565b60405161013d919061121c565b60405180910390f35b348015610151575f80fd5b5061016c60048036038101906101679190611075565b61078a565b60405161017991906112fd565b60405180910390f35b34801561018d575f80fd5b506101a860048036038101906101a39190611075565b610873565b6040516101b5919061131d565b60405180910390f35b3480156101c9575f80fd5b506101d26108e0565b6040516101df919061121c565b60405180910390f35b3480156101f3575f80fd5b506101fc6108e6565b60405161020991906113ed565b60405180910390f35b34801561021d575f80fd5b5061023860048036038101906102339190611075565b61097d565b604051610245919061131d565b60405180910390f35b61026860048036038101906102639190611539565b6109e7565b604051610275919061121c565b60405180910390f35b348015610289575f80fd5b506102a4600480360381019061029f91906115ff565b610bab565b6040516102b191906113ed565b60405180910390f35b6102d460048036038101906102cf9190611075565b610d5e565b005b5f602052805f5260405f205f91509050805f015f9054906101000a900473ffffffffffffffffffffffffffffffffffffffff169080600101805461031990611657565b80601f016020809104026020016040519081016040528092919081815260200182805461034590611657565b80156103905780601f1061036757610100808354040283529160200191610390565b820191905f5260205f20905b81548152906001019060200180831161037357829003601f168201915b5050505050908060020180546103a590611657565b80601f01602080910402602001604051908101604052809291908181526020018280546103d190611657565b801561041c5780601f106103f35761010080835404028352916020019161041c565b820191905f5260205f20905b8154815290600101906020018083116103ff57829003601f168201915b505050505090806003015490806004015490806005015490806008015f9054906101000a900460ff16908060080160019054906101000a900460ff16905088565b8060015481106104a2576040517f08c379a0000000000000000000000000000000000000000000000000000000008152600401610499906116d1565b60405180910390fd5b5f805f8481526020019081526020015f2090503373ffffffffffffffffffffffffffffffffffffffff16815f015f9054906101000a900473ffffffffffffffffffffffffffffffffffffffff1673ffffffffffffffffffffffffffffffffffffffff1614610545576040517f08c379a000000000000000000000000000000000000000000000000000000000815260040161053c9061175f565b60405180910390fd5b60011515816008015f9054906101000a900460ff1615151461059c576040517f08c379a0000000000000000000000000000000000000000000000000000000008152600401610593906117c7565b60405180910390fd5b6105a583610873565b80156105b757506105b58361097d565b155b6105f6576040517f08c379a00000000000000000000000000000000000000000000000000000000081526004016105ed90611855565b60405180910390fd5b5f81600501549050815f015f9054906101000a900473ffffffffffffffffffffffffffffffffffffffff1673ffffffffffffffffffffffffffffffffffffffff166108fc8290811502906040515f60405180830381858888f19350505050158015610663573d5f803e3d5ffd5b506001826008015f6101000a81548160ff02191690831515021790555060018260080160016101000a81548160ff0219169083151502179055507ff440aec6b52895984d061d622e6edeba6210f7c3e059be920663140c084560d78433836040516106d093929190611882565b60405180910390a150505050565b5f816001548110610724576040517f08c379a000000000000000000000000000000000000000000000000000000000815260040161071b906116d1565b60405180910390fd5b5f805f8581526020019081526020015f20905060015484111561077c576040517f08c379a000000000000000000000000000000000000000000000000000000000815260040161077390611901565b60405180910390fd5b806005015492505050919050565b60608160015481106107d1576040517f08c379a00000000000000000000000000000000000000000000000000000000081526004016107c8906116d1565b60405180910390fd5b5f805f8581526020019081526020015f2090508060070180548060200260200160405190810160405280929190818152602001828054801561086557602002820191905f5260205f20905b815f9054906101000a900473ffffffffffffffffffffffffffffffffffffffff1673ffffffffffffffffffffffffffffffffffffffff168152602001906001019080831161081c575b505050505092505050919050565b5f8160015481106108b9576040517f08c379a00000000000000000000000000000000000000000000000000000000081526004016108b0906116d1565b60405180910390fd5b5f805f8581526020019081526020015f209050806003015481600501541492505050919050565b60015481565b60605f60015467ffffffffffffffff81111561090557610904611415565b5b6040519080825280602002602001820160405280156109335781602001602082028036833780820191505090505b5090505f5b60015481101561097557808282815181106109565761095561191f565b5b602002602001018181525050808061096d90611979565b915050610938565b508091505090565b5f8160015481106109c3576040517f08c379a00000000000000000000000000000000000000000000000000000000081526004016109ba906116d1565b60405180910390fd5b5f805f8581526020019081526020015f209050428160040154111592505050919050565b5f808511610a2a576040517f08c379a0000000000000000000000000000000000000000000000000000000008152600401610a2190611a30565b60405180910390fd5b428411610a6c576040517f08c379a0000000000000000000000000000000000000000000000000000000008152600401610a6390611a98565b60405180910390fd5b5f805f60015481526020019081526020015f20905033815f015f6101000a81548173ffffffffffffffffffffffffffffffffffffffff021916908373ffffffffffffffffffffffffffffffffffffffff16021790555085816003018190555083816001019081610adc9190611c53565b5082816002019081610aee9190611c53565b508481600401819055505f81600501819055505f8160080160016101000a81548160ff0219169083151502179055505f816008015f6101000a81548160ff0219169083151502179055507f98a0d441b7626ac9b31750373850d01cdb57ad3406ddc03bb1d40a12c18de8226001543388888888604051610b7396959493929190611d22565b60405180910390a160015f815480929190610b8d90611979565b919050555060018054610ba09190611d8f565b915050949350505050565b60605f60015467ffffffffffffffff811115610bca57610bc9611415565b5b604051908082528060200260200182016040528015610bf85781602001602082028036833780820191505090505b5090505f805b600154811015610cae578473ffffffffffffffffffffffffffffffffffffffff165f808381526020019081526020015f205f015f9054906101000a900473ffffffffffffffffffffffffffffffffffffffff1673ffffffffffffffffffffffffffffffffffffffff1603610c9b5780838381518110610c8057610c7f61191f565b5b6020026020010181815250508180610c9790611979565b9250505b8080610ca690611979565b915050610bfe565b505f8167ffffffffffffffff811115610cca57610cc9611415565b5b604051908082528060200260200182016040528015610cf85781602001602082028036833780820191505090505b5090505f5b82811015610d5257838181518110610d1857610d1761191f565b5b6020026020010151828281518110610d3357610d3261191f565b5b6020026020010181815250508080610d4a90611979565b915050610cfd565b50809350505050919050565b806001548110610da3576040517f08c379a0000000000000000000000000000000000000000000000000000000008152600401610d9a906116d1565b60405180910390fd5b5f805f8481526020019081526020015f209050806008015f9054906101000a900460ff1615610e07576040517f08c379a0000000000000000000000000000000000000000000000000000000008152600401610dfe90611e32565b60405180910390fd5b8060040154421115610e4e576040517f08c379a0000000000000000000000000000000000000000000000000000000008152600401610e4590611e9a565b60405180910390fd5b8060080160019054906101000a900460ff1615610ea0576040517f08c379a0000000000000000000000000000000000000000000000000000000008152600401610e9790611f02565b60405180910390fd5b5f816006015f3373ffffffffffffffffffffffffffffffffffffffff1673ffffffffffffffffffffffffffffffffffffffff1681526020019081526020015f205403610f49578060070133908060018154018082558091505060019003905f5260205f20015f9091909190916101000a81548173ffffffffffffffffffffffffffffffffffffffff021916908373ffffffffffffffffffffffffffffffffffffffff1602179055505b34816005015f828254610f5c9190611f20565b9250508190555034816006015f3373ffffffffffffffffffffffffffffffffffffffff1673ffffffffffffffffffffffffffffffffffffffff1681526020019081526020015f2054610fae9190611f20565b816006015f3373ffffffffffffffffffffffffffffffffffffffff1673ffffffffffffffffffffffffffffffffffffffff1681526020019081526020015f20819055507fe555da28bdb778f65d22794d88927ebaeca03f7de9d1b7d39245bc8fb5ca078a83333460405161102493929190611882565b60405180910390a1505050565b5f604051905090565b5f80fd5b5f80fd5b5f819050919050565b61105481611042565b811461105e575f80fd5b50565b5f8135905061106f8161104b565b92915050565b5f6020828403121561108a5761108961103a565b5b5f61109784828501611061565b91505092915050565b5f73ffffffffffffffffffffffffffffffffffffffff82169050919050565b5f6110c9826110a0565b9050919050565b6110d9816110bf565b82525050565b5f81519050919050565b5f82825260208201905092915050565b5f5b838110156111165780820151818401526020810190506110fb565b5f8484015250505050565b5f601f19601f8301169050919050565b5f61113b826110df565b61114581856110e9565b93506111558185602086016110f9565b61115e81611121565b840191505092915050565b61117281611042565b82525050565b5f8115159050919050565b61118c81611178565b82525050565b5f610100820190506111a65f83018b6110d0565b81810360208301526111b8818a611131565b905081810360408301526111cc8189611131565b90506111db6060830188611169565b6111e86080830187611169565b6111f560a0830186611169565b61120260c0830185611183565b61120f60e0830184611183565b9998505050505050505050565b5f60208201905061122f5f830184611169565b92915050565b5f81519050919050565b5f82825260208201905092915050565b5f819050602082019050919050565b5f611268826110a0565b9050919050565b6112788161125e565b82525050565b5f611289838361126f565b60208301905092915050565b5f602082019050919050565b5f6112ab82611235565b6112b5818561123f565b93506112c08361124f565b805f5b838110156112f05781516112d7888261127e565b97506112e283611295565b9250506001810190506112c3565b5085935050505092915050565b5f6020820190508181035f83015261131581846112a1565b905092915050565b5f6020820190506113305f830184611183565b92915050565b5f81519050919050565b5f82825260208201905092915050565b5f819050602082019050919050565b61136881611042565b82525050565b5f611379838361135f565b60208301905092915050565b5f602082019050919050565b5f61139b82611336565b6113a58185611340565b93506113b083611350565b805f5b838110156113e05781516113c7888261136e565b97506113d283611385565b9250506001810190506113b3565b5085935050505092915050565b5f6020820190508181035f8301526114058184611391565b905092915050565b5f80fd5b5f80fd5b7f4e487b71000000000000000000000000000000000000000000000000000000005f52604160045260245ffd5b61144b82611121565b810181811067ffffffffffffffff8211171561146a57611469611415565b5b80604052505050565b5f61147c611031565b90506114888282611442565b919050565b5f67ffffffffffffffff8211156114a7576114a6611415565b5b6114b082611121565b9050602081019050919050565b828183375f83830152505050565b5f6114dd6114d88461148d565b611473565b9050828152602081018484840111156114f9576114f8611411565b5b6115048482856114bd565b509392505050565b5f82601f8301126115205761151f61140d565b5b81356115308482602086016114cb565b91505092915050565b5f805f80608085870312156115515761155061103a565b5b5f61155e87828801611061565b945050602061156f87828801611061565b935050604085013567ffffffffffffffff8111156115905761158f61103e565b5b61159c8782880161150c565b925050606085013567ffffffffffffffff8111156115bd576115bc61103e565b5b6115c98782880161150c565b91505092959194509250565b6115de8161125e565b81146115e8575f80fd5b50565b5f813590506115f9816115d5565b92915050565b5f602082840312156116145761161361103a565b5b5f611621848285016115eb565b91505092915050565b7f4e487b71000000000000000000000000000000000000000000000000000000005f52602260045260245ffd5b5f600282049050600182168061166e57607f821691505b6020821081036116815761168061162a565b5b50919050565b7f43616d706169676e20646f6573206e6f742065786973740000000000000000005f82015250565b5f6116bb6017836110e9565b91506116c682611687565b602082019050919050565b5f6020820190508181035f8301526116e8816116af565b9050919050565b7f4f6e6c79207468652063726561746f722063616e2077697468647261772066755f8201527f6e64732e00000000000000000000000000000000000000000000000000000000602082015250565b5f6117496024836110e9565b9150611754826116ef565b604082019050919050565b5f6020820190508181035f8301526117768161173d565b9050919050565b7f46756e647320616c72656164792077697468647261776e2e00000000000000005f82015250565b5f6117b16018836110e9565b91506117bc8261177d565b602082019050919050565b5f6020820190508181035f8301526117de816117a5565b9050919050565b7f546172676574206e6f742072656163686564206f7220646561646c696e6520705f8201527f61737365642e0000000000000000000000000000000000000000000000000000602082015250565b5f61183f6026836110e9565b915061184a826117e5565b604082019050919050565b5f6020820190508181035f83015261186c81611833565b9050919050565b61187c8161125e565b82525050565b5f6060820190506118955f830186611169565b6118a26020830185611873565b6118af6040830184611169565b949350505050565b7f496e76616c69642063616d706169676e2049442e0000000000000000000000005f82015250565b5f6118eb6014836110e9565b91506118f6826118b7565b602082019050919050565b5f6020820190508181035f830152611918816118df565b9050919050565b7f4e487b71000000000000000000000000000000000000000000000000000000005f52603260045260245ffd5b7f4e487b71000000000000000000000000000000000000000000000000000000005f52601160045260245ffd5b5f61198382611042565b91507fffffffffffffffffffffffffffffffffffffffffffffffffffffffffffffffff82036119b5576119b461194c565b5b600182019050919050565b7f54617267657420616d6f756e74206d75737420626520677265617465722074685f8201527f616e207a65726f2e000000000000000000000000000000000000000000000000602082015250565b5f611a1a6028836110e9565b9150611a25826119c0565b604082019050919050565b5f6020820190508181035f830152611a4781611a0e565b9050919050565b7f446561646c696e65206d75737420626520696e20746865206675747572652e005f82015250565b5f611a82601f836110e9565b9150611a8d82611a4e565b602082019050919050565b5f6020820190508181035f830152611aaf81611a76565b9050919050565b5f819050815f5260205f209050919050565b5f6020601f8301049050919050565b5f82821b905092915050565b5f60088302611b127fffffffffffffffffffffffffffffffffffffffffffffffffffffffffffffffff82611ad7565b611b1c8683611ad7565b95508019841693508086168417925050509392505050565b5f819050919050565b5f611b57611b52611b4d84611042565b611b34565b611042565b9050919050565b5f819050919050565b611b7083611b3d565b611b84611b7c82611b5e565b848454611ae3565b825550505050565b5f90565b611b98611b8c565b611ba3818484611b67565b505050565b5b81811015611bc657611bbb5f82611b90565b600181019050611ba9565b5050565b601f821115611c0b57611bdc81611ab6565b611be584611ac8565b81016020851015611bf4578190505b611c08611c0085611ac8565b830182611ba8565b50505b505050565b5f82821c905092915050565b5f611c2b5f1984600802611c10565b1980831691505092915050565b5f611c438383611c1c565b9150826002028217905092915050565b611c5c826110df565b67ffffffffffffffff811115611c7557611c74611415565b5b611c7f8254611657565b611c8a828285611bca565b5f60209050601f831160018114611cbb575f8415611ca9578287015190505b611cb38582611c38565b865550611d1a565b601f198416611cc986611ab6565b5f5b82811015611cf057848901518255600182019150602085019450602081019050611ccb565b86831015611d0d5784890151611d09601f891682611c1c565b8355505b6001600288020188555050505b505050505050565b5f60c082019050611d355f830189611169565b611d426020830188611873565b611d4f6040830187611169565b611d5c6060830186611169565b8181036080830152611d6e8185611131565b905081810360a0830152611d828184611131565b9050979650505050505050565b5f611d9982611042565b9150611da483611042565b9250828203905081811115611dbc57611dbb61194c565b5b92915050565b7f43616d706169676e2066756e647320616c72656164792077697468647261776e5f8201527f2e00000000000000000000000000000000000000000000000000000000000000602082015250565b5f611e1c6021836110e9565b9150611e2782611dc2565b604082019050919050565b5f6020820190508181035f830152611e4981611e10565b9050919050565b7f43616d706169676e2068617320657870697265640000000000000000000000005f82015250565b5f611e846014836110e9565b9150611e8f82611e50565b602082019050919050565b5f6020820190508181035f830152611eb181611e78565b9050919050565b7f43616d706169676e20646561646c696e6520686173207061737365642e0000005f82015250565b5f611eec601d836110e9565b9150611ef782611eb8565b602082019050919050565b5f6020820190508181035f830152611f1981611ee0565b9050919050565b5f611f2a82611042565b9150611f3583611042565b9250828201905080821115611f4d57611f4c61194c565b5b9291505056fea2646970667358221220668af7ae8a8b9993c89174991abe69673019aed6549736e737d2d9cf682cb0ca64736f6c63430008150033",
  "immutableReferences": {},
  "source": "// SPDX-License-Identifier: MIT\npragma solidity ^0.8.11;\n\ncontract GoFundme {\nconstructor() payable {}\n    struct Campaign {\n        address payable creator;\n        // new params\n        string title; \n        string description;\n        uint256 targetAmount;\n        uint256 deadline; // Unix timestamp (seconds since epoch)\n        uint256 totalDonated;\n        mapping(address => uint256) donations; //   \n        address[] donators; // Tracks individual donor contributions\n        bool withdrawn;\n        bool reachedDeadline;\n    }\n\n    mapping(uint256 => Campaign) public campaigns;\n    uint256 public campaignCount; // Keeps track of the number of campaigns\n\n    // Event to notify when a campaign is created\n    event CampaignCreated(uint256 campaignId, address creator, uint256 targetAmount, uint256 deadline, string title, string description);\n\n    // Event to notify when a donation is made\n    event DonationMade(uint256 campaignId, address donor, uint256 amount);\n\n    // Event to notify when funds are withdrawn\n    event FundsWithdrawn(uint256 campaignId, address creator, uint256 amount);\n\n    modifier campaignExists(uint campaignId) {\n        require(campaignId < campaignCount, \"Campaign does not exist\");\n        _;\n    }\n// 1. Create a new campaign\n    function createCampaign(uint256 targetAmount, uint256 deadline, string memory title, string memory description) public payable returns (uint256){\n        require(targetAmount > 0, \"Target amount must be greater than zero.\");\n        require(deadline > block.timestamp, \"Deadline must be in the future.\");\n\n Campaign storage newCampaign = campaigns[campaignCount];\n        newCampaign.creator = payable(msg.sender);\n        newCampaign.targetAmount = targetAmount;\n        newCampaign.title = title;\n        newCampaign.description = description;\n        newCampaign.deadline = deadline;\n        newCampaign.totalDonated = 0;\n        newCampaign.reachedDeadline = false;\n        newCampaign.withdrawn = false;  \n\n        emit CampaignCreated(campaignCount, msg.sender, targetAmount, deadline, title, description);\n        campaignCount++; // Increment campaign count\n        return  campaignCount - 1;\n    }\n// 2, Donate to the campaign\n    function donate(uint256 campaignId) public payable campaignExists(campaignId){\n        Campaign storage campaign = campaigns[campaignId];\n        require(!campaign.withdrawn, \"Campaign funds already withdrawn.\");\n        require(block.timestamp <= campaign.deadline, \"Campaign has expired\");\n        require(!campaign.reachedDeadline, \"Campaign deadline has passed.\");\n\n   if (campaign.donations[msg.sender] == 0) {\n            campaign.donators.push(msg.sender); // Add the donor if not already present\n        }\n\n       \n        campaign.totalDonated += msg.value;\n        campaign.donations[msg.sender] = campaign.donations[msg.sender] + msg.value;\n\n// to send to the campaign owner directly\n// (bool sent,) = payable (campaign.creator).call{value: msg.value}(\"\");\n// if(sent) {}else {revert();\n\n        emit DonationMade(campaignId, msg.sender, msg.value);\n    }\n// 3. Check if campaign hasn't exist the deadline\n    function checkDeadline(uint256 campaignId) public view campaignExists(campaignId) returns (bool) {\n        Campaign storage campaign = campaigns[campaignId];\n        return campaign.deadline <= block.timestamp;\n    }\n// 4. Check if the target for the deadline has been reached \n    function checkTargetReached(uint256 campaignId) public view campaignExists(campaignId) returns (bool) {\n        Campaign storage campaign = campaigns[campaignId];\n        return campaign.totalDonated == campaign.targetAmount;\n    }\n// 5. Withdraw funds by the campaign creator\n    function withdrawFunds(uint256 campaignId) campaignExists(campaignId) public {\n        Campaign storage campaign = campaigns[campaignId];\n        require(campaign.creator == msg.sender, \"Only the creator can withdraw funds.\");\n        require(campaign.withdrawn == true, \"Funds already withdrawn.\");\n        require(checkTargetReached(campaignId) && !checkDeadline(campaignId), \"Target not reached or deadline passed.\");\n        uint256 amount = campaign.totalDonated;\n        campaign.creator.transfer(amount);\n        campaign.withdrawn = true;\n        campaign.reachedDeadline = true; // Set to true to prevent future withdrawals\n\n        emit FundsWithdrawn(campaignId, msg.sender, amount);\n    }\n// 6. Fetch the balance for a campaign\n    function getBalance(uint256 campaignId) campaignExists(campaignId) public view returns (uint256) {\n        Campaign storage campaign = campaigns[campaignId];\n        require(campaignId <= campaignCount, \"Invalid campaign ID.\");\n        return campaign.totalDonated;\n    }\n    // 7. Get donators\n   function getDonors(uint256 campaignId) public view campaignExists(campaignId) returns (address[] memory) {\n        Campaign storage campaign = campaigns[campaignId];\n        return campaign.donators;\n    }\n\n// 8, get all campaigns for a particular creator\nfunction getCampaignsByCreator(address creator) public view returns (uint256[] memory) {\n    uint256[] memory result = new uint256[](campaignCount);\n    uint256 count = 0;\n\n    for (uint256 i = 0; i < campaignCount; i++) {\n        if (campaigns[i].creator == creator) {\n            result[count] = i;\n            count++;\n        }\n    }\n\n    // Resize the array to fit the actual count\n    uint256[] memory filteredResult = new uint256[](count);\n    for (uint256 j = 0; j < count; j++) {\n        filteredResult[j] = result[j];\n    }\n\n    return filteredResult;\n}\n// 9. Get all campaigns \nfunction getAllCampaigns() public view returns (uint256[] memory) {\n    uint256[] memory result = new uint256[](campaignCount);\n\n    for (uint256 i = 0; i < campaignCount; i++) {\n        result[i] = i;\n    }\n\n    return result;\n}\n\n}",
  "sourcePath": "/home/alibaba/Downloads/projects/Crowdfund-web3/smart_contract/contracts/Crowdfund.sol",
  "compiler": {
    "name": "solc",
    "version": "0.8.21+commit.d9974bed.Emscripten.clang"
  },
  "schemaVersion": "3.4.16",
  "updatedAt": "2025-01-27T02:18:53.659Z",
  "networkType": "ethereum",
  "devdoc": {
    "kind": "dev",
    "methods": {},
    "version": 1
  },
  "userdoc": {
    "kind": "user",
    "methods": {},
    "version": 1
  }
}