{
  "contractName": "GoFundme",
  "abi": [
    {
      "inputs": [],
      "stateMutability": "payable",
      "type": "constructor"
    },
    {
      "anonymous": false,
      "inputs": [
        {
          "indexed": false,
          "internalType": "uint256",
          "name": "campaignId",
          "type": "uint256"
        },
        {
          "indexed": false,
          "internalType": "address",
          "name": "creator",
          "type": "address"
        },
        {
          "indexed": false,
          "internalType": "uint256",
          "name": "targetAmount",
          "type": "uint256"
        },
        {
          "indexed": false,
          "internalType": "uint256",
          "name": "deadline",
          "type": "uint256"
        },
        {
          "indexed": false,
          "internalType": "string",
          "name": "title",
          "type": "string"
        },
        {
          "indexed": false,
          "internalType": "string",
          "name": "description",
          "type": "string"
        }
      ],
      "name": "CampaignCreated",
      "type": "event"
    },
    {
      "anonymous": false,
      "inputs": [
        {
          "indexed": false,
          "internalType": "uint256",
          "name": "campaignId",
          "type": "uint256"
        },
        {
          "indexed": false,
          "internalType": "address",
          "name": "donor",
          "type": "address"
        },
        {
          "indexed": false,
          "internalType": "uint256",
          "name": "amount",
          "type": "uint256"
        }
      ],
      "name": "DonationMade",
      "type": "event"
    },
    {
      "anonymous": false,
      "inputs": [
        {
          "indexed": false,
          "internalType": "uint256",
          "name": "campaignId",
          "type": "uint256"
        },
        {
          "indexed": false,
          "internalType": "address",
          "name": "creator",
          "type": "address"
        },
        {
          "indexed": false,
          "internalType": "uint256",
          "name": "amount",
          "type": "uint256"
        }
      ],
      "name": "FundsWithdrawn",
      "type": "event"
    },
    {
      "anonymous": false,
      "inputs": [
        {
          "indexed": false,
          "internalType": "uint256",
          "name": "campaignId",
          "type": "uint256"
        },
        {
          "indexed": false,
          "internalType": "address",
          "name": "donor",
          "type": "address"
        },
        {
          "indexed": false,
          "internalType": "uint256",
          "name": "amount",
          "type": "uint256"
        }
      ],
      "name": "RefundClaimed",
      "type": "event"
    },
    {
      "anonymous": false,
      "inputs": [
        {
          "indexed": false,
          "internalType": "uint256",
          "name": "campaignId",
          "type": "uint256"
        },
        {
          "indexed": false,
          "internalType": "uint256",
          "name": "newTargetAmount",
          "type": "uint256"
        }
      ],
      "name": "TargetUpdated",
      "type": "event"
    },
    {
      "inputs": [],
      "name": "campaignCount",
      "outputs": [
        {
          "internalType": "uint256",
          "name": "",
          "type": "uint256"
        }
      ],
      "stateMutability": "view",
      "type": "function"
    },
    {
      "inputs": [
        {
          "internalType": "uint256",
          "name": "",
          "type": "uint256"
        }
      ],
      "name": "campaigns",
      "outputs": [
        {
          "internalType": "address payable",
          "name": "creator",
          "type": "address"
        },
        {
          "internalType": "string",
          "name": "name",
          "type": "string"
        },
        {
          "internalType": "string",
          "name": "title",
          "type": "string"
        },
        {
          "internalType": "string",
          "name": "description",
          "type": "string"
        },
        {
          "internalType": "uint256",
          "name": "targetAmount",
          "type": "uint256"
        },
        {
          "internalType": "string",
          "name": "image",
          "type": "string"
        },
        {
          "internalType": "uint256",
          "name": "createdAt",
          "type": "uint256"
        },
        {
          "internalType": "uint256",
          "name": "deadline",
          "type": "uint256"
        },
        {
          "internalType": "uint256",
          "name": "totalDonated",
          "type": "uint256"
        },
        {
          "internalType": "bool",
          "name": "withdrawn",
          "type": "bool"
        },
        {
          "internalType": "bool",
          "name": "reachedDeadline",
          "type": "bool"
        }
      ],
      "stateMutability": "view",
      "type": "function"
    },
    {
      "inputs": [
        {
          "internalType": "string",
          "name": "name",
          "type": "string"
        },
        {
          "internalType": "string",
          "name": "title",
          "type": "string"
        },
        {
          "internalType": "string",
          "name": "description",
          "type": "string"
        },
        {
          "internalType": "uint256",
          "name": "targetAmount",
          "type": "uint256"
        },
        {
          "internalType": "string",
          "name": "image",
          "type": "string"
        },
        {
          "internalType": "uint256",
          "name": "deadline",
          "type": "uint256"
        }
      ],
      "name": "createCampaign",
      "outputs": [
        {
          "internalType": "uint256",
          "name": "",
          "type": "uint256"
        }
      ],
      "stateMutability": "payable",
      "type": "function"
    },
    {
      "inputs": [
        {
          "internalType": "uint256",
          "name": "campaignId",
          "type": "uint256"
        }
      ],
      "name": "donate",
      "outputs": [],
      "stateMutability": "payable",
      "type": "function"
    },
    {
      "inputs": [
        {
          "internalType": "uint256",
          "name": "campaignId",
          "type": "uint256"
        }
      ],
      "name": "checkDeadline",
      "outputs": [
        {
          "internalType": "bool",
          "name": "",
          "type": "bool"
        }
      ],
      "stateMutability": "view",
      "type": "function"
    },
    {
      "inputs": [
        {
          "internalType": "uint256",
          "name": "campaignId",
          "type": "uint256"
        }
      ],
      "name": "checkTargetReached",
      "outputs": [
        {
          "internalType": "bool",
          "name": "",
          "type": "bool"
        }
      ],
      "stateMutability": "view",
      "type": "function"
    },
    {
      "inputs": [
        {
          "internalType": "uint256",
          "name": "campaignId",
          "type": "uint256"
        }
      ],
      "name": "withdrawFunds",
      "outputs": [],
      "stateMutability": "nonpayable",
      "type": "function"
    },
    {
      "inputs": [],
      "name": "getAddressBalance",
      "outputs": [
        {
          "internalType": "uint256",
          "name": "",
          "type": "uint256"
        }
      ],
      "stateMutability": "view",
      "type": "function"
    },
    {
      "inputs": [
        {
          "internalType": "uint256",
          "name": "campaignId",
          "type": "uint256"
        }
      ],
      "name": "getBalance",
      "outputs": [
        {
          "internalType": "uint256",
          "name": "",
          "type": "uint256"
        }
      ],
      "stateMutability": "view",
      "type": "function"
    },
    {
      "inputs": [
        {
          "internalType": "uint256",
          "name": "campaignId",
          "type": "uint256"
        }
      ],
      "name": "getDonors",
      "outputs": [
        {
          "components": [
            {
              "internalType": "address",
              "name": "donor",
              "type": "address"
            },
            {
              "internalType": "uint256",
              "name": "amount",
              "type": "uint256"
            }
          ],
          "internalType": "struct GoFundme.Donor[]",
          "name": "",
          "type": "tuple[]"
        }
      ],
      "stateMutability": "view",
      "type": "function"
    },
    {
      "inputs": [
        {
          "internalType": "address",
          "name": "creator",
          "type": "address"
        }
      ],
      "name": "getAvailableCampaignsByCreator",
      "outputs": [
        {
          "components": [
            {
              "internalType": "address",
              "name": "creator",
              "type": "address"
            },
            {
              "internalType": "string",
              "name": "name",
              "type": "string"
            },
            {
              "internalType": "string",
              "name": "title",
              "type": "string"
            },
            {
              "internalType": "string",
              "name": "description",
              "type": "string"
            },
            {
              "internalType": "uint256",
              "name": "targetAmount",
              "type": "uint256"
            },
            {
              "internalType": "string",
              "name": "image",
              "type": "string"
            },
            {
              "internalType": "uint256",
              "name": "createdAt",
              "type": "uint256"
            },
            {
              "internalType": "uint256",
              "name": "deadline",
              "type": "uint256"
            },
            {
              "internalType": "uint256",
              "name": "totalDonated",
              "type": "uint256"
            },
            {
              "internalType": "address[]",
              "name": "donators",
              "type": "address[]"
            },
            {
              "internalType": "bool",
              "name": "withdrawn",
              "type": "bool"
            },
            {
              "internalType": "bool",
              "name": "reachedDeadline",
              "type": "bool"
            }
          ],
          "internalType": "struct GoFundme.CampaignDetails[]",
          "name": "",
          "type": "tuple[]"
        }
      ],
      "stateMutability": "view",
      "type": "function"
    },
    {
      "inputs": [
        {
          "internalType": "address",
          "name": "creator",
          "type": "address"
        }
      ],
      "name": "getPastCampaignsByCreator",
      "outputs": [
        {
          "components": [
            {
              "internalType": "address",
              "name": "creator",
              "type": "address"
            },
            {
              "internalType": "string",
              "name": "name",
              "type": "string"
            },
            {
              "internalType": "string",
              "name": "title",
              "type": "string"
            },
            {
              "internalType": "string",
              "name": "description",
              "type": "string"
            },
            {
              "internalType": "uint256",
              "name": "targetAmount",
              "type": "uint256"
            },
            {
              "internalType": "string",
              "name": "image",
              "type": "string"
            },
            {
              "internalType": "uint256",
              "name": "createdAt",
              "type": "uint256"
            },
            {
              "internalType": "uint256",
              "name": "deadline",
              "type": "uint256"
            },
            {
              "internalType": "uint256",
              "name": "totalDonated",
              "type": "uint256"
            },
            {
              "internalType": "address[]",
              "name": "donators",
              "type": "address[]"
            },
            {
              "internalType": "bool",
              "name": "withdrawn",
              "type": "bool"
            },
            {
              "internalType": "bool",
              "name": "reachedDeadline",
              "type": "bool"
            }
          ],
          "internalType": "struct GoFundme.CampaignDetails[]",
          "name": "",
          "type": "tuple[]"
        }
      ],
      "stateMutability": "view",
      "type": "function"
    },
    {
      "inputs": [],
      "name": "getAvailableCampaigns",
      "outputs": [
        {
          "components": [
            {
              "internalType": "address",
              "name": "creator",
              "type": "address"
            },
            {
              "internalType": "string",
              "name": "name",
              "type": "string"
            },
            {
              "internalType": "string",
              "name": "title",
              "type": "string"
            },
            {
              "internalType": "string",
              "name": "description",
              "type": "string"
            },
            {
              "internalType": "uint256",
              "name": "targetAmount",
              "type": "uint256"
            },
            {
              "internalType": "string",
              "name": "image",
              "type": "string"
            },
            {
              "internalType": "uint256",
              "name": "createdAt",
              "type": "uint256"
            },
            {
              "internalType": "uint256",
              "name": "deadline",
              "type": "uint256"
            },
            {
              "internalType": "uint256",
              "name": "totalDonated",
              "type": "uint256"
            },
            {
              "internalType": "address[]",
              "name": "donators",
              "type": "address[]"
            },
            {
              "internalType": "bool",
              "name": "withdrawn",
              "type": "bool"
            },
            {
              "internalType": "bool",
              "name": "reachedDeadline",
              "type": "bool"
            }
          ],
          "internalType": "struct GoFundme.CampaignDetails[]",
          "name": "",
          "type": "tuple[]"
        }
      ],
      "stateMutability": "view",
      "type": "function"
    },
    {
      "inputs": [],
      "name": "getPastCampaigns",
      "outputs": [
        {
          "components": [
            {
              "internalType": "address",
              "name": "creator",
              "type": "address"
            },
            {
              "internalType": "string",
              "name": "name",
              "type": "string"
            },
            {
              "internalType": "string",
              "name": "title",
              "type": "string"
            },
            {
              "internalType": "string",
              "name": "description",
              "type": "string"
            },
            {
              "internalType": "uint256",
              "name": "targetAmount",
              "type": "uint256"
            },
            {
              "internalType": "string",
              "name": "image",
              "type": "string"
            },
            {
              "internalType": "uint256",
              "name": "createdAt",
              "type": "uint256"
            },
            {
              "internalType": "uint256",
              "name": "deadline",
              "type": "uint256"
            },
            {
              "internalType": "uint256",
              "name": "totalDonated",
              "type": "uint256"
            },
            {
              "internalType": "address[]",
              "name": "donators",
              "type": "address[]"
            },
            {
              "internalType": "bool",
              "name": "withdrawn",
              "type": "bool"
            },
            {
              "internalType": "bool",
              "name": "reachedDeadline",
              "type": "bool"
            }
          ],
          "internalType": "struct GoFundme.CampaignDetails[]",
          "name": "",
          "type": "tuple[]"
        }
      ],
      "stateMutability": "view",
      "type": "function"
    },
    {
      "inputs": [
        {
          "internalType": "uint256",
          "name": "campaignId",
          "type": "uint256"
        }
      ],
      "name": "deleteCampaign",
      "outputs": [],
      "stateMutability": "nonpayable",
      "type": "function"
    },
    {
      "inputs": [
        {
          "internalType": "uint256",
          "name": "campaignId",
          "type": "uint256"
        }
      ],
      "name": "getCampaignById",
      "outputs": [
        {
          "components": [
            {
              "internalType": "address",
              "name": "creator",
              "type": "address"
            },
            {
              "internalType": "string",
              "name": "name",
              "type": "string"
            },
            {
              "internalType": "string",
              "name": "title",
              "type": "string"
            },
            {
              "internalType": "string",
              "name": "description",
              "type": "string"
            },
            {
              "internalType": "uint256",
              "name": "targetAmount",
              "type": "uint256"
            },
            {
              "internalType": "string",
              "name": "image",
              "type": "string"
            },
            {
              "internalType": "uint256",
              "name": "createdAt",
              "type": "uint256"
            },
            {
              "internalType": "uint256",
              "name": "deadline",
              "type": "uint256"
            },
            {
              "internalType": "uint256",
              "name": "totalDonated",
              "type": "uint256"
            },
            {
              "internalType": "address[]",
              "name": "donators",
              "type": "address[]"
            },
            {
              "internalType": "bool",
              "name": "withdrawn",
              "type": "bool"
            },
            {
              "internalType": "bool",
              "name": "reachedDeadline",
              "type": "bool"
            }
          ],
          "internalType": "struct GoFundme.CampaignDetails",
          "name": "",
          "type": "tuple"
        }
      ],
      "stateMutability": "view",
      "type": "function"
    },
    {
      "inputs": [
        {
          "internalType": "uint256",
          "name": "campaignId",
          "type": "uint256"
        },
        {
          "internalType": "uint256",
          "name": "newTargetAmount",
          "type": "uint256"
        }
      ],
      "name": "updateTargetAmount",
      "outputs": [],
      "stateMutability": "nonpayable",
      "type": "function"
    },
    {
      "inputs": [
        {
          "internalType": "uint256",
          "name": "campaignId",
          "type": "uint256"
        }
      ],
      "name": "claimRefund",
      "outputs": [],
      "stateMutability": "nonpayable",
      "type": "function"
    }
  ],
  "bytecode": "0x6080604052613b19806100115f395ff3fe608060405260043610610108575f3560e01c80637274e30d11610094578063a699094611610063578063a69909461461039c578063b3795aad146103d8578063e6ffcaa114610408578063f14faf6f14610444578063f4e7cb361461046057610108565b80637274e30d146102e4578063759701931461030e57806375eb2ad1146103365780639fd23cd31461036057610108565b80633243382d116100db5780633243382d146101f25780634eedb7d91461022e5780635b7baf64146102565780636c7558b01461027e5780636e5b46f5146102ba57610108565b8063141961bc1461010c578063155dd5ee146101525780631e0104391461017a57806329516511146101b6575b5f80fd5b348015610117575f80fd5b50610132600480360381019061012d9190612356565b61048a565b6040516101499b9a99989796959493929190612473565b60405180910390f35b34801561015d575f80fd5b5061017860048036038101906101739190612356565b61072f565b005b348015610185575f80fd5b506101a0600480360381019061019b9190612356565b610a06565b6040516101ad9190612538565b60405180910390f35b3480156101c1575f80fd5b506101dc60048036038101906101d79190612356565b610a6d565b6040516101e99190612655565b60405180910390f35b3480156101fd575f80fd5b506102186004803603810190610213919061269f565b610c1d565b60405161022591906129a1565b60405180910390f35b348015610239575f80fd5b50610254600480360381019061024f91906129c1565b610e27565b005b348015610261575f80fd5b5061027c60048036038101906102779190612356565b610f9d565b005b348015610289575f80fd5b506102a4600480360381019061029f9190612356565b611252565b6040516102b191906129ff565b60405180910390f35b3480156102c5575f80fd5b506102ce6112c0565b6040516102db91906129a1565b60405180910390f35b3480156102ef575f80fd5b506102f86113f6565b6040516103059190612538565b60405180910390f35b348015610319575f80fd5b50610334600480360381019061032f9190612356565b6113fc565b005b348015610341575f80fd5b5061034a611568565b6040516103579190612538565b60405180910390f35b34801561036b575f80fd5b506103866004803603810190610381919061269f565b61156f565b60405161039391906129a1565b60405180910390f35b3480156103a7575f80fd5b506103c260048036038101906103bd9190612356565b611779565b6040516103cf91906129ff565b60405180910390f35b6103f260048036038101906103ed9190612b44565b6117e3565b6040516103ff9190612538565b60405180910390f35b348015610413575f80fd5b5061042e60048036038101906104299190612356565b6119d6565b60405161043b9190612d5a565b60405180910390f35b61045e60048036038101906104599190612356565b611a43565b005b34801561046b575f80fd5b50610474611cdd565b60405161048191906129a1565b60405180910390f35b5f602052805f5260405f205f91509050805f015f9054906101000a900473ffffffffffffffffffffffffffffffffffffffff16908060010180546104cd90612da7565b80601f01602080910402602001604051908101604052809291908181526020018280546104f990612da7565b80156105445780601f1061051b57610100808354040283529160200191610544565b820191905f5260205f20905b81548152906001019060200180831161052757829003601f168201915b50505050509080600201805461055990612da7565b80601f016020809104026020016040519081016040528092919081815260200182805461058590612da7565b80156105d05780601f106105a7576101008083540402835291602001916105d0565b820191905f5260205f20905b8154815290600101906020018083116105b357829003601f168201915b5050505050908060030180546105e590612da7565b80601f016020809104026020016040519081016040528092919081815260200182805461061190612da7565b801561065c5780601f106106335761010080835404028352916020019161065c565b820191905f5260205f20905b81548152906001019060200180831161063f57829003601f168201915b50505050509080600401549080600501805461067790612da7565b80601f01602080910402602001604051908101604052809291908181526020018280546106a390612da7565b80156106ee5780601f106106c5576101008083540402835291602001916106ee565b820191905f5260205f20905b8154815290600101906020018083116106d157829003601f168201915b50505050509080600601549080600701549080600801549080600b015f9054906101000a900460ff169080600b0160019054906101000a900460ff1690508b565b806001548110610774576040517f08c379a000000000000000000000000000000000000000000000000000000000815260040161076b90612e21565b60405180910390fd5b61077d82611e13565b5f805f8481526020019081526020015f2090503373ffffffffffffffffffffffffffffffffffffffff16815f015f9054906101000a900473ffffffffffffffffffffffffffffffffffffffff1673ffffffffffffffffffffffffffffffffffffffff1614610820576040517f08c379a000000000000000000000000000000000000000000000000000000000815260040161081790612eaf565b60405180910390fd5b80600b015f9054906101000a900460ff1615610871576040517f08c379a000000000000000000000000000000000000000000000000000000000815260040161086890612f17565b60405180910390fd5b61087a83611252565b6108b9576040517f08c379a00000000000000000000000000000000000000000000000000000000081526004016108b090612f7f565b60405180910390fd5b5f81600801549050600182600b015f6101000a81548160ff021916908315150217905550600182600b0160016101000a81548160ff0219169083151502179055505f825f015f9054906101000a900473ffffffffffffffffffffffffffffffffffffffff1673ffffffffffffffffffffffffffffffffffffffff168260405161094190612fca565b5f6040518083038185875af1925050503d805f811461097b576040519150601f19603f3d011682016040523d82523d5f602084013e610980565b606091505b50509050806109c4576040517f08c379a00000000000000000000000000000000000000000000000000000000081526004016109bb90613028565b60405180910390fd5b7ff440aec6b52895984d061d622e6edeba6210f7c3e059be920663140c084560d78533846040516109f793929190613055565b60405180910390a15050505050565b5f816001548110610a4c576040517f08c379a0000000000000000000000000000000000000000000000000000000008152600401610a4390612e21565b60405180910390fd5b5f805f8581526020019081526020015f209050806008015492505050919050565b6060816001548110610ab4576040517f08c379a0000000000000000000000000000000000000000000000000000000008152600401610aab90612e21565b60405180910390fd5b5f805f8581526020019081526020015f2090505f81600a018054905090505f8167ffffffffffffffff811115610aed57610aec612a20565b5b604051908082528060200260200182016040528015610b2657816020015b610b13612270565b815260200190600190039081610b0b5790505b5090505f5b82811015610c10575f84600a018281548110610b4a57610b4961308a565b5b905f5260205f20015f9054906101000a900473ffffffffffffffffffffffffffffffffffffffff16905060405180604001604052808273ffffffffffffffffffffffffffffffffffffffff168152602001866009015f8473ffffffffffffffffffffffffffffffffffffffff1673ffffffffffffffffffffffffffffffffffffffff1681526020019081526020015f2054815250838381518110610bf157610bf061308a565b5b6020026020010181905250508080610c08906130e4565b915050610b2b565b5080945050505050919050565b60605f805f90505b600154811015610cd657610c475f808381526020019081526020015f20611e70565b8015610caf57508373ffffffffffffffffffffffffffffffffffffffff165f808381526020019081526020015f205f015f9054906101000a900473ffffffffffffffffffffffffffffffffffffffff1673ffffffffffffffffffffffffffffffffffffffff16145b15610cc3578180610cbf906130e4565b9250505b8080610cce906130e4565b915050610c25565b505f8167ffffffffffffffff811115610cf257610cf1612a20565b5b604051908082528060200260200182016040528015610d2b57816020015b610d1861229e565b815260200190600190039081610d105790505b5090505f805f90505b600154811015610e1b57610d565f808381526020019081526020015f20611e70565b8015610dbe57508573ffffffffffffffffffffffffffffffffffffffff165f808381526020019081526020015f205f015f9054906101000a900473ffffffffffffffffffffffffffffffffffffffff1673ffffffffffffffffffffffffffffffffffffffff16145b15610e0857610ddb5f808381526020019081526020015f20611eb5565b838381518110610dee57610ded61308a565b5b60200260200101819052508180610e04906130e4565b9250505b8080610e13906130e4565b915050610d34565b50819350505050919050565b816001548110610e6c576040517f08c379a0000000000000000000000000000000000000000000000000000000008152600401610e6390612e21565b60405180910390fd5b5f805f8581526020019081526020015f2090503373ffffffffffffffffffffffffffffffffffffffff16815f015f9054906101000a900473ffffffffffffffffffffffffffffffffffffffff1673ffffffffffffffffffffffffffffffffffffffff1614610f0f576040517f08c379a0000000000000000000000000000000000000000000000000000000008152600401610f069061319b565b60405180910390fd5b80600801548311610f55576040517f08c379a0000000000000000000000000000000000000000000000000000000008152600401610f4c90613229565b60405180910390fd5b8281600401819055507f7f88365aae4228588bbe2e4fe761eb6c12cbdef7cac2a092afe3cfaee88199738484604051610f8f929190613247565b60405180910390a150505050565b806001548110610fe2576040517f08c379a0000000000000000000000000000000000000000000000000000000008152600401610fd990612e21565b60405180910390fd5b5f805f8481526020019081526020015f2090508060070154421161103b576040517f08c379a0000000000000000000000000000000000000000000000000000000008152600401611032906132b8565b60405180910390fd5b8060040154816008015410611085576040517f08c379a000000000000000000000000000000000000000000000000000000000815260040161107c90613346565b60405180910390fd5b5f816009015f3373ffffffffffffffffffffffffffffffffffffffff1673ffffffffffffffffffffffffffffffffffffffff1681526020019081526020015f205490505f811161110a576040517f08c379a0000000000000000000000000000000000000000000000000000000008152600401611101906133ae565b60405180910390fd5b5f826009015f3373ffffffffffffffffffffffffffffffffffffffff1673ffffffffffffffffffffffffffffffffffffffff1681526020019081526020015f208190555080826008015f82825461116191906133cc565b925050819055505f3373ffffffffffffffffffffffffffffffffffffffff168260405161118d90612fca565b5f6040518083038185875af1925050503d805f81146111c7576040519150601f19603f3d011682016040523d82523d5f602084013e6111cc565b606091505b5050905080611210576040517f08c379a000000000000000000000000000000000000000000000000000000000815260040161120790613449565b60405180910390fd5b7ff3f402280ef0a7905e124aa621b65eaeb2725c343e8b36d398ed78c29daf285c85338460405161124393929190613055565b60405180910390a15050505050565b5f816001548110611298576040517f08c379a000000000000000000000000000000000000000000000000000000000815260040161128f90612e21565b60405180910390fd5b5f805f8581526020019081526020015f20905080600401548160080154101592505050919050565b60605f805f90505b600154811015611311576112ea5f808381526020019081526020015f20611e70565b156112fe5781806112fa906130e4565b9250505b8080611309906130e4565b9150506112c8565b505f8167ffffffffffffffff81111561132d5761132c612a20565b5b60405190808252806020026020018201604052801561136657816020015b61135361229e565b81526020019060019003908161134b5790505b5090505f805f90505b6001548110156113ec576113915f808381526020019081526020015f20611e70565b156113d9576113ae5f808381526020019081526020015f20611eb5565b8383806113ba906130e4565b9450815181106113cd576113cc61308a565b5b60200260200101819052505b80806113e4906130e4565b91505061136f565b5081935050505090565b60015481565b806001548110611441576040517f08c379a000000000000000000000000000000000000000000000000000000000815260040161143890612e21565b60405180910390fd5b5f805f8481526020019081526020015f2090503373ffffffffffffffffffffffffffffffffffffffff16815f015f9054906101000a900473ffffffffffffffffffffffffffffffffffffffff1673ffffffffffffffffffffffffffffffffffffffff16146114e4576040517f08c379a00000000000000000000000000000000000000000000000000000000081526004016114db906134d7565b60405180910390fd5b5f81600801541461152a576040517f08c379a000000000000000000000000000000000000000000000000000000000815260040161152190613565565b60405180910390fd5b600181600b015f6101000a81548160ff021916908315150217905550600181600b0160016101000a81548160ff021916908315150217905550505050565b5f47905090565b60605f805f90505b600154811015611628576115995f808381526020019081526020015f20612230565b801561160157508373ffffffffffffffffffffffffffffffffffffffff165f808381526020019081526020015f205f015f9054906101000a900473ffffffffffffffffffffffffffffffffffffffff1673ffffffffffffffffffffffffffffffffffffffff16145b15611615578180611611906130e4565b9250505b8080611620906130e4565b915050611577565b505f8167ffffffffffffffff81111561164457611643612a20565b5b60405190808252806020026020018201604052801561167d57816020015b61166a61229e565b8152602001906001900390816116625790505b5090505f805f90505b60015481101561176d576116a85f808381526020019081526020015f20612230565b801561171057508573ffffffffffffffffffffffffffffffffffffffff165f808381526020019081526020015f205f015f9054906101000a900473ffffffffffffffffffffffffffffffffffffffff1673ffffffffffffffffffffffffffffffffffffffff16145b1561175a5761172d5f808381526020019081526020015f20611eb5565b8383815181106117405761173f61308a565b5b60200260200101819052508180611756906130e4565b9250505b8080611765906130e4565b915050611686565b50819350505050919050565b5f8160015481106117bf576040517f08c379a00000000000000000000000000000000000000000000000000000000081526004016117b690612e21565b60405180910390fd5b5f805f8581526020019081526020015f209050428160070154111592505050919050565b5f808411611826576040517f08c379a000000000000000000000000000000000000000000000000000000000815260040161181d906135f3565b60405180910390fd5b428211611868576040517f08c379a000000000000000000000000000000000000000000000000000000000815260040161185f9061365b565b60405180910390fd5b5f805f60015481526020019081526020015f20905033815f015f6101000a81548173ffffffffffffffffffffffffffffffffffffffff021916908373ffffffffffffffffffffffffffffffffffffffff160217905550878160010190816118cf9190613816565b50868160020190816118e19190613816565b50858160030190816118f39190613816565b508481600401819055508381600501908161190e9190613816565b504281600601819055508281600701819055505f81600801819055505f81600b015f6101000a81548160ff0219169083151502179055505f81600b0160016101000a81548160ff0219169083151502179055507f98a0d441b7626ac9b31750373850d01cdb57ad3406ddc03bb1d40a12c18de8226001543387868b8b60405161199c969594939291906138e5565b60405180910390a160015f8154809291906119b6906130e4565b9190505550600180546119c991906133cc565b9150509695505050505050565b6119de61229e565b816001548110611a23576040517f08c379a0000000000000000000000000000000000000000000000000000000008152600401611a1a90612e21565b60405180910390fd5b611a3b5f808581526020019081526020015f20611eb5565b915050919050565b806001548110611a88576040517f08c379a0000000000000000000000000000000000000000000000000000000008152600401611a7f90612e21565b60405180910390fd5b5f805f8481526020019081526020015f20905080600b015f9054906101000a900460ff1615611aec576040517f08c379a0000000000000000000000000000000000000000000000000000000008152600401611ae3906139c2565b60405180910390fd5b8060070154421115611b33576040517f08c379a0000000000000000000000000000000000000000000000000000000008152600401611b2a90613a2a565b60405180910390fd5b80600b0160019054906101000a900460ff1615611b85576040517f08c379a0000000000000000000000000000000000000000000000000000000008152600401611b7c90613a92565b60405180910390fd5b5f816009015f3373ffffffffffffffffffffffffffffffffffffffff1673ffffffffffffffffffffffffffffffffffffffff1681526020019081526020015f205403611c2e5780600a0133908060018154018082558091505060019003905f5260205f20015f9091909190916101000a81548173ffffffffffffffffffffffffffffffffffffffff021916908373ffffffffffffffffffffffffffffffffffffffff1602179055505b34816008015f828254611c419190613ab0565b9250508190555034816009015f3373ffffffffffffffffffffffffffffffffffffffff1673ffffffffffffffffffffffffffffffffffffffff1681526020019081526020015f205f828254611c969190613ab0565b925050819055507fe555da28bdb778f65d22794d88927ebaeca03f7de9d1b7d39245bc8fb5ca078a833334604051611cd093929190613055565b60405180910390a1505050565b60605f805f90505b600154811015611d2e57611d075f808381526020019081526020015f20612230565b15611d1b578180611d17906130e4565b9250505b8080611d26906130e4565b915050611ce5565b505f8167ffffffffffffffff811115611d4a57611d49612a20565b5b604051908082528060200260200182016040528015611d8357816020015b611d7061229e565b815260200190600190039081611d685790505b5090505f805f90505b600154811015611e0957611dae5f808381526020019081526020015f20612230565b15611df657611dcb5f808381526020019081526020015f20611eb5565b838380611dd7906130e4565b945081518110611dea57611de961308a565b5b60200260200101819052505b8080611e01906130e4565b915050611d8c565b5081935050505090565b5f805f8381526020019081526020015f20905080600701544210158015611e49575080600b0160019054906101000a900460ff16155b15611e6c57600181600b0160016101000a81548160ff0219169083151502179055505b5050565b5f81600b015f9054906101000a900460ff16158015611e9e575081600b0160019054906101000a900460ff16155b8015611eae575081600701544211155b9050919050565b611ebd61229e565b604051806101800160405280835f015f9054906101000a900473ffffffffffffffffffffffffffffffffffffffff1673ffffffffffffffffffffffffffffffffffffffff168152602001836001018054611f1690612da7565b80601f0160208091040260200160405190810160405280929190818152602001828054611f4290612da7565b8015611f8d5780601f10611f6457610100808354040283529160200191611f8d565b820191905f5260205f20905b815481529060010190602001808311611f7057829003601f168201915b50505050508152602001836002018054611fa690612da7565b80601f0160208091040260200160405190810160405280929190818152602001828054611fd290612da7565b801561201d5780601f10611ff45761010080835404028352916020019161201d565b820191905f5260205f20905b81548152906001019060200180831161200057829003601f168201915b5050505050815260200183600301805461203690612da7565b80601f016020809104026020016040519081016040528092919081815260200182805461206290612da7565b80156120ad5780601f10612084576101008083540402835291602001916120ad565b820191905f5260205f20905b81548152906001019060200180831161209057829003601f168201915b50505050508152602001836004015481526020018360050180546120d090612da7565b80601f01602080910402602001604051908101604052809291908181526020018280546120fc90612da7565b80156121475780601f1061211e57610100808354040283529160200191612147565b820191905f5260205f20905b81548152906001019060200180831161212a57829003601f168201915b5050505050815260200183600601548152602001836007015481526020018360080154815260200183600a018054806020026020016040519081016040528092919081815260200182805480156121f057602002820191905f5260205f20905b815f9054906101000a900473ffffffffffffffffffffffffffffffffffffffff1673ffffffffffffffffffffffffffffffffffffffff16815260200190600101908083116121a7575b5050505050815260200183600b015f9054906101000a900460ff161515815260200183600b0160019054906101000a900460ff1615158152509050919050565b5f81600b015f9054906101000a900460ff168061225b575081600b0160019054906101000a900460ff165b806122695750816007015442115b9050919050565b60405180604001604052805f73ffffffffffffffffffffffffffffffffffffffff1681526020015f81525090565b6040518061018001604052805f73ffffffffffffffffffffffffffffffffffffffff1681526020016060815260200160608152602001606081526020015f8152602001606081526020015f81526020015f81526020015f8152602001606081526020015f151581526020015f151581525090565b5f604051905090565b5f80fd5b5f80fd5b5f819050919050565b61233581612323565b811461233f575f80fd5b50565b5f813590506123508161232c565b92915050565b5f6020828403121561236b5761236a61231b565b5b5f61237884828501612342565b91505092915050565b5f73ffffffffffffffffffffffffffffffffffffffff82169050919050565b5f6123aa82612381565b9050919050565b6123ba816123a0565b82525050565b5f81519050919050565b5f82825260208201905092915050565b5f5b838110156123f75780820151818401526020810190506123dc565b5f8484015250505050565b5f601f19601f8301169050919050565b5f61241c826123c0565b61242681856123ca565b93506124368185602086016123da565b61243f81612402565b840191505092915050565b61245381612323565b82525050565b5f8115159050919050565b61246d81612459565b82525050565b5f610160820190506124875f83018e6123b1565b8181036020830152612499818d612412565b905081810360408301526124ad818c612412565b905081810360608301526124c1818b612412565b90506124d0608083018a61244a565b81810360a08301526124e28189612412565b90506124f160c083018861244a565b6124fe60e083018761244a565b61250c61010083018661244a565b61251a610120830185612464565b612528610140830184612464565b9c9b505050505050505050505050565b5f60208201905061254b5f83018461244a565b92915050565b5f81519050919050565b5f82825260208201905092915050565b5f819050602082019050919050565b5f61258482612381565b9050919050565b6125948161257a565b82525050565b6125a381612323565b82525050565b604082015f8201516125bd5f85018261258b565b5060208201516125d0602085018261259a565b50505050565b5f6125e183836125a9565b60408301905092915050565b5f602082019050919050565b5f61260382612551565b61260d818561255b565b93506126188361256b565b805f5b8381101561264857815161262f88826125d6565b975061263a836125ed565b92505060018101905061261b565b5085935050505092915050565b5f6020820190508181035f83015261266d81846125f9565b905092915050565b61267e8161257a565b8114612688575f80fd5b50565b5f8135905061269981612675565b92915050565b5f602082840312156126b4576126b361231b565b5b5f6126c18482850161268b565b91505092915050565b5f81519050919050565b5f82825260208201905092915050565b5f819050602082019050919050565b5f82825260208201905092915050565b5f61270d826123c0565b61271781856126f3565b93506127278185602086016123da565b61273081612402565b840191505092915050565b5f81519050919050565b5f82825260208201905092915050565b5f819050602082019050919050565b5f61276f838361258b565b60208301905092915050565b5f602082019050919050565b5f6127918261273b565b61279b8185612745565b93506127a683612755565b805f5b838110156127d65781516127bd8882612764565b97506127c88361277b565b9250506001810190506127a9565b5085935050505092915050565b6127ec81612459565b82525050565b5f61018083015f8301516128085f86018261258b565b50602083015184820360208601526128208282612703565b9150506040830151848203604086015261283a8282612703565b915050606083015184820360608601526128548282612703565b9150506080830151612869608086018261259a565b5060a083015184820360a08601526128818282612703565b91505060c083015161289660c086018261259a565b5060e08301516128a960e086018261259a565b506101008301516128be61010086018261259a565b506101208301518482036101208601526128d88282612787565b9150506101408301516128ef6101408601826127e3565b506101608301516129046101608601826127e3565b508091505092915050565b5f61291a83836127f2565b905092915050565b5f602082019050919050565b5f612938826126ca565b61294281856126d4565b935083602082028501612954856126e4565b805f5b8581101561298f5784840389528151612970858261290f565b945061297b83612922565b925060208a01995050600181019050612957565b50829750879550505050505092915050565b5f6020820190508181035f8301526129b9818461292e565b905092915050565b5f80604083850312156129d7576129d661231b565b5b5f6129e485828601612342565b92505060206129f585828601612342565b9150509250929050565b5f602082019050612a125f830184612464565b92915050565b5f80fd5b5f80fd5b7f4e487b71000000000000000000000000000000000000000000000000000000005f52604160045260245ffd5b612a5682612402565b810181811067ffffffffffffffff82111715612a7557612a74612a20565b5b80604052505050565b5f612a87612312565b9050612a938282612a4d565b919050565b5f67ffffffffffffffff821115612ab257612ab1612a20565b5b612abb82612402565b9050602081019050919050565b828183375f83830152505050565b5f612ae8612ae384612a98565b612a7e565b905082815260208101848484011115612b0457612b03612a1c565b5b612b0f848285612ac8565b509392505050565b5f82601f830112612b2b57612b2a612a18565b5b8135612b3b848260208601612ad6565b91505092915050565b5f805f805f8060c08789031215612b5e57612b5d61231b565b5b5f87013567ffffffffffffffff811115612b7b57612b7a61231f565b5b612b8789828a01612b17565b965050602087013567ffffffffffffffff811115612ba857612ba761231f565b5b612bb489828a01612b17565b955050604087013567ffffffffffffffff811115612bd557612bd461231f565b5b612be189828a01612b17565b9450506060612bf289828a01612342565b935050608087013567ffffffffffffffff811115612c1357612c1261231f565b5b612c1f89828a01612b17565b92505060a0612c3089828a01612342565b9150509295509295509295565b5f61018083015f830151612c535f86018261258b565b5060208301518482036020860152612c6b8282612703565b91505060408301518482036040860152612c858282612703565b91505060608301518482036060860152612c9f8282612703565b9150506080830151612cb4608086018261259a565b5060a083015184820360a0860152612ccc8282612703565b91505060c0830151612ce160c086018261259a565b5060e0830151612cf460e086018261259a565b50610100830151612d0961010086018261259a565b50610120830151848203610120860152612d238282612787565b915050610140830151612d3a6101408601826127e3565b50610160830151612d4f6101608601826127e3565b508091505092915050565b5f6020820190508181035f830152612d728184612c3d565b905092915050565b7f4e487b71000000000000000000000000000000000000000000000000000000005f52602260045260245ffd5b5f6002820490506001821680612dbe57607f821691505b602082108103612dd157612dd0612d7a565b5b50919050565b7f43616d706169676e20646f6573206e6f742065786973740000000000000000005f82015250565b5f612e0b6017836123ca565b9150612e1682612dd7565b602082019050919050565b5f6020820190508181035f830152612e3881612dff565b9050919050565b7f4f6e6c79207468652063726561746f722063616e2077697468647261772066755f8201527f6e64732e00000000000000000000000000000000000000000000000000000000602082015250565b5f612e996024836123ca565b9150612ea482612e3f565b604082019050919050565b5f6020820190508181035f830152612ec681612e8d565b9050919050565b7f46756e647320616c72656164792077697468647261776e2e00000000000000005f82015250565b5f612f016018836123ca565b9150612f0c82612ecd565b602082019050919050565b5f6020820190508181035f830152612f2e81612ef5565b9050919050565b7f546172676574206e6f7420726561636865642e000000000000000000000000005f82015250565b5f612f696013836123ca565b9150612f7482612f35565b602082019050919050565b5f6020820190508181035f830152612f9681612f5d565b9050919050565b5f81905092915050565b50565b5f612fb55f83612f9d565b9150612fc082612fa7565b5f82019050919050565b5f612fd482612faa565b9150819050919050565b7f5472616e73666572206661696c656400000000000000000000000000000000005f82015250565b5f613012600f836123ca565b915061301d82612fde565b602082019050919050565b5f6020820190508181035f83015261303f81613006565b9050919050565b61304f8161257a565b82525050565b5f6060820190506130685f83018661244a565b6130756020830185613046565b613082604083018461244a565b949350505050565b7f4e487b71000000000000000000000000000000000000000000000000000000005f52603260045260245ffd5b7f4e487b71000000000000000000000000000000000000000000000000000000005f52601160045260245ffd5b5f6130ee82612323565b91507fffffffffffffffffffffffffffffffffffffffffffffffffffffffffffffffff82036131205761311f6130b7565b5b600182019050919050565b7f4f6e6c79207468652063726561746f722063616e2075706461746520746865205f8201527f74617267657420616d6f756e742e000000000000000000000000000000000000602082015250565b5f613185602e836123ca565b91506131908261312b565b604082019050919050565b5f6020820190508181035f8301526131b281613179565b9050919050565b7f4e657720746172676574206d7573742062652067726561746572207468616e205f8201527f74686520616d6f756e7420616c726561647920646f6e617465642e0000000000602082015250565b5f613213603b836123ca565b915061321e826131b9565b604082019050919050565b5f6020820190508181035f83015261324081613207565b9050919050565b5f60408201905061325a5f83018561244a565b613267602083018461244a565b9392505050565b7f43616d706169676e206973207374696c6c206163746976652e000000000000005f82015250565b5f6132a26019836123ca565b91506132ad8261326e565b602082019050919050565b5f6020820190508181035f8301526132cf81613296565b9050919050565b7f43616d706169676e207265616368656420697473207461726765743b207265665f8201527f756e64206e6f7420617661696c61626c652e0000000000000000000000000000602082015250565b5f6133306032836123ca565b915061333b826132d6565b604082019050919050565b5f6020820190508181035f83015261335d81613324565b9050919050565b7f4e6f20646f6e6174696f6e20666f756e6420666f722073656e6465722e0000005f82015250565b5f613398601d836123ca565b91506133a382613364565b602082019050919050565b5f6020820190508181035f8301526133c58161338c565b9050919050565b5f6133d682612323565b91506133e183612323565b92508282039050818111156133f9576133f86130b7565b5b92915050565b7f526566756e64207472616e73666572206661696c6564000000000000000000005f82015250565b5f6134336016836123ca565b915061343e826133ff565b602082019050919050565b5f6020820190508181035f83015261346081613427565b9050919050565b7f4f6e6c79207468652063726561746f722063616e2064656c65746520746869735f8201527f2063616d706169676e2e00000000000000000000000000000000000000000000602082015250565b5f6134c1602a836123ca565b91506134cc82613467565b604082019050919050565b5f6020820190508181035f8301526134ee816134b5565b9050919050565b7f43616e6e6f742064656c65746520612063616d706169676e20746861742068615f8201527f7320726563656976656420646f6e6174696f6e732e0000000000000000000000602082015250565b5f61354f6035836123ca565b915061355a826134f5565b604082019050919050565b5f6020820190508181035f83015261357c81613543565b9050919050565b7f54617267657420616d6f756e74206d75737420626520677265617465722074685f8201527f616e207a65726f2e000000000000000000000000000000000000000000000000602082015250565b5f6135dd6028836123ca565b91506135e882613583565b604082019050919050565b5f6020820190508181035f83015261360a816135d1565b9050919050565b7f446561646c696e65206d75737420626520696e20746865206675747572652e005f82015250565b5f613645601f836123ca565b915061365082613611565b602082019050919050565b5f6020820190508181035f83015261367281613639565b9050919050565b5f819050815f5260205f209050919050565b5f6020601f8301049050919050565b5f82821b905092915050565b5f600883026136d57fffffffffffffffffffffffffffffffffffffffffffffffffffffffffffffffff8261369a565b6136df868361369a565b95508019841693508086168417925050509392505050565b5f819050919050565b5f61371a61371561371084612323565b6136f7565b612323565b9050919050565b5f819050919050565b61373383613700565b61374761373f82613721565b8484546136a6565b825550505050565b5f90565b61375b61374f565b61376681848461372a565b505050565b5b818110156137895761377e5f82613753565b60018101905061376c565b5050565b601f8211156137ce5761379f81613679565b6137a88461368b565b810160208510156137b7578190505b6137cb6137c38561368b565b83018261376b565b50505b505050565b5f82821c905092915050565b5f6137ee5f19846008026137d3565b1980831691505092915050565b5f61380683836137df565b9150826002028217905092915050565b61381f826123c0565b67ffffffffffffffff81111561383857613837612a20565b5b6138428254612da7565b61384d82828561378d565b5f60209050601f83116001811461387e575f841561386c578287015190505b61387685826137fb565b8655506138dd565b601f19841661388c86613679565b5f5b828110156138b35784890151825560018201915060208501945060208101905061388e565b868310156138d057848901516138cc601f8916826137df565b8355505b6001600288020188555050505b505050505050565b5f60c0820190506138f85f83018961244a565b6139056020830188613046565b613912604083018761244a565b61391f606083018661244a565b81810360808301526139318185612412565b905081810360a08301526139458184612412565b9050979650505050505050565b7f43616d706169676e2066756e647320616c72656164792077697468647261776e5f8201527f2e00000000000000000000000000000000000000000000000000000000000000602082015250565b5f6139ac6021836123ca565b91506139b782613952565b604082019050919050565b5f6020820190508181035f8301526139d9816139a0565b9050919050565b7f43616d706169676e2068617320657870697265640000000000000000000000005f82015250565b5f613a146014836123ca565b9150613a1f826139e0565b602082019050919050565b5f6020820190508181035f830152613a4181613a08565b9050919050565b7f43616d706169676e20646561646c696e6520686173207061737365642e0000005f82015250565b5f613a7c601d836123ca565b9150613a8782613a48565b602082019050919050565b5f6020820190508181035f830152613aa981613a70565b9050919050565b5f613aba82612323565b9150613ac583612323565b9250828201905080821115613add57613adc6130b7565b5b9291505056fea26469706673582212207a52008674a703c68ac8fc5458b5681196e8f74b16afd21a0e86851c7010667d64736f6c63430008150033",
  "immutableReferences": {},
  "source": "// SPDX-License-Identifier: MIT\npragma solidity ^0.8.11;\n\ncontract GoFundme {\n    constructor() payable {}\n\n    struct Campaign {\n        address payable creator;\n        string name;\n        string title; \n        string description;\n        uint256 targetAmount;\n        string image;\n        uint256 createdAt;\n        uint256 deadline; // Unix timestamp (seconds since epoch)\n        uint256 totalDonated;\n        mapping(address => uint256) donations;\n        address[] donators;\n        bool withdrawn;\n        bool reachedDeadline;\n    }\n    \n    // Struct for returning campaign details in memory (no mappings)\n    struct CampaignDetails {\n        address creator;\n        string name;\n        string title;\n        string description;\n        uint256 targetAmount;\n        string image;\n        uint256 createdAt;\n        uint256 deadline;\n        uint256 totalDonated;\n        address[] donators;\n        bool withdrawn;\n        bool reachedDeadline;\n    }\n\n    // Struct for returning donor information\n    struct Donor {\n        address donor;\n        uint256 amount;\n    }\n\n    mapping(uint256 => Campaign) public campaigns;\n    uint256 public campaignCount;\n\n    // Events\n    event CampaignCreated(uint256 campaignId, address creator, uint256 targetAmount, uint256 deadline, string title, string description);\n    event DonationMade(uint256 campaignId, address donor, uint256 amount);\n    event FundsWithdrawn(uint256 campaignId, address creator, uint256 amount);\n    event TargetUpdated(uint256 campaignId, uint256 newTargetAmount);\n    event RefundClaimed(uint256 campaignId, address donor, uint256 amount);\n\n    modifier campaignExists(uint campaignId) {\n        require(campaignId < campaignCount, \"Campaign does not exist\");\n        _;\n    }\n\n    // 1. Create a new campaign\n    function createCampaign(\n        string memory name,\n        string memory title,\n        string memory description,\n        uint256 targetAmount,\n        string memory image,\n        uint256 deadline\n    ) public payable returns (uint256) {\n        require(targetAmount > 0, \"Target amount must be greater than zero.\");\n        require(deadline > block.timestamp, \"Deadline must be in the future.\");\n\n        Campaign storage newCampaign = campaigns[campaignCount];\n        newCampaign.creator = payable(msg.sender);\n        newCampaign.name = name;\n        newCampaign.title = title;\n        newCampaign.description = description;\n        newCampaign.targetAmount = targetAmount;\n        newCampaign.image = image;\n        newCampaign.createdAt = block.timestamp;\n        newCampaign.deadline = deadline;\n        newCampaign.totalDonated = 0;\n        newCampaign.withdrawn = false;\n        newCampaign.reachedDeadline = false;\n\n        emit CampaignCreated(campaignCount, msg.sender, targetAmount, deadline, title, description);\n        campaignCount++; // Increment campaign count\n        return campaignCount - 1;\n    }\n\n    // 2. Donate to the campaign\n    function donate(uint256 campaignId) public payable campaignExists(campaignId) {\n        Campaign storage campaign = campaigns[campaignId];\n        require(!campaign.withdrawn, \"Campaign funds already withdrawn.\");\n        require(block.timestamp <= campaign.deadline, \"Campaign has expired\");\n        require(!campaign.reachedDeadline, \"Campaign deadline has passed.\");\n\n        // If first donation from sender, add them to the donators array.\n        if (campaign.donations[msg.sender] == 0) {\n            campaign.donators.push(msg.sender);\n        }\n\n        campaign.totalDonated += msg.value;\n        campaign.donations[msg.sender] += msg.value;\n        emit DonationMade(campaignId, msg.sender, msg.value);\n    }\n\n    // 3. Check if campaign has reached the deadline\n    function checkDeadline(uint256 campaignId) public view campaignExists(campaignId) returns (bool) {\n        Campaign storage campaign = campaigns[campaignId];\n        return campaign.deadline <= block.timestamp;\n    }\n\n    // 4. Check if the target for the campaign has been reached \n    function checkTargetReached(uint256 campaignId) public view campaignExists(campaignId) returns (bool) {\n        Campaign storage campaign = campaigns[campaignId];\n        return campaign.totalDonated >= campaign.targetAmount;\n    }\n\n    // 5. Withdraw funds by the campaign creator\n    function withdrawFunds(uint256 campaignId) public campaignExists(campaignId) {\n        updateDeadlineStatus(campaignId); \n        Campaign storage campaign = campaigns[campaignId];\n        require(campaign.creator == msg.sender, \"Only the creator can withdraw funds.\");\n        require(!campaign.withdrawn, \"Funds already withdrawn.\");\n        require(checkTargetReached(campaignId), \"Target not reached.\");\n\n        uint256 amount = campaign.totalDonated;\n        campaign.withdrawn = true;\n        campaign.reachedDeadline = true;\n\n        // Transfer funds\n        (bool success, ) = payable(campaign.creator).call{value: amount}(\"\");\n        require(success, \"Transfer failed\");\n\n        emit FundsWithdrawn(campaignId, msg.sender, amount);\n    }\nfunction getAddressBalance() public view returns (uint256) {\n        return address(this).balance;\n    }\n    // 6. Fetch the balance for a campaign\n    function getBalance(uint256 campaignId) public view campaignExists(campaignId) returns (uint256) {\n        Campaign storage campaign = campaigns[campaignId];\n        return campaign.totalDonated;\n    }\n\n    // 7. Get donators with the amounts they donated\n    function getDonors(uint256 campaignId) public view campaignExists(campaignId) returns (Donor[] memory) {\n        Campaign storage campaign = campaigns[campaignId];\n        uint256 donorCount = campaign.donators.length;\n        Donor[] memory donorsList = new Donor[](donorCount);\n\n        for (uint256 i = 0; i < donorCount; i++) {\n            address donorAddr = campaign.donators[i];\n            donorsList[i] = Donor({\n                donor: donorAddr,\n                amount: campaign.donations[donorAddr]\n            });\n        }\n        return donorsList;\n    }\n\n    // 8. Get all campaigns for a particular creator using _mapCampaign\n    function getAvailableCampaignsByCreator(address creator) public view returns (CampaignDetails[] memory) {\n        // First, count how many campaigns are created by the given creator.\n        uint256 countResult;\n        for (uint256 i = 0; i < campaignCount; i++) {\n            if (_isAvailable(campaigns[i]) && campaigns[i].creator == creator) {\n                countResult++;\n            }\n        }\n\n        // Allocate a new array for matching campaigns.\n        CampaignDetails[] memory result = new CampaignDetails[](countResult);\n        uint256 index;\n        for (uint256 i = 0; i < campaignCount; i++) {\n            if (_isAvailable(campaigns[i]) && campaigns[i].creator == creator) {\n                result[index] = _mapCampaign(campaigns[i]);\n                index++;\n            }\n        }\n        return result;\n    }\n    function getPastCampaignsByCreator(address creator) public view returns (CampaignDetails[] memory) {\n        // First, count how many campaigns are created by the given creator.\n        uint256 countResult;\n        for (uint256 i = 0; i < campaignCount; i++) {\n            if (_isPast(campaigns[i]) && campaigns[i].creator == creator) {\n                countResult++;\n            }\n        }\n\n        // Allocate a new array for matching campaigns.\n        CampaignDetails[] memory result = new CampaignDetails[](countResult);\n        uint256 index;\n        for (uint256 i = 0; i < campaignCount; i++) {\n            if (_isPast(campaigns[i]) && campaigns[i].creator == creator) {\n                result[index] = _mapCampaign(campaigns[i]);\n                index++;\n            }\n        }\n        return result;\n    }\n\n    // 9. Get all active campaigns\n    function getAvailableCampaigns() public view returns (CampaignDetails[] memory) {\n        uint256 matchCount;\n        for (uint256 i = 0; i < campaignCount; i++) {\n            if (_isAvailable(campaigns[i])) {\n                matchCount++;\n            }\n        }\n\n        CampaignDetails[] memory result = new CampaignDetails[](matchCount);\n        uint256 index;\n        for (uint256 i = 0; i < campaignCount; i++) {\n            if (_isAvailable(campaigns[i])) {\n                result[index++] = _mapCampaign(campaigns[i]);\n            }\n        }\n        return result;\n    }\n\n    // 10. Get all past campaigns\n    function getPastCampaigns() public view returns (CampaignDetails[] memory) {\n        uint256 matchCount;\n        for (uint256 i = 0; i < campaignCount; i++) {\n            if (_isPast(campaigns[i])) {\n                matchCount++;\n            }\n        }\n\n        CampaignDetails[] memory result = new CampaignDetails[](matchCount);\n        uint256 index;\n        for (uint256 i = 0; i < campaignCount; i++) {\n            if (_isPast(campaigns[i])) {\n                result[index++] = _mapCampaign(campaigns[i]);\n            }\n        }\n        return result;\n    }\n\n    // Internal helper to check campaign availability\n    function _isAvailable(Campaign storage c) internal view returns (bool) {\n        return !c.withdrawn && !c.reachedDeadline && block.timestamp <= c.deadline;\n    }\n\n    // Internal helper to check if a campaign is past (i.e. finished or expired)\n    function _isPast(Campaign storage c) internal view returns (bool) {\n        return c.withdrawn || c.reachedDeadline || block.timestamp > c.deadline;\n    }\n\n    // Internal helper to map storage Campaign struct to a memory CampaignDetails struct\n    function _mapCampaign(Campaign storage c) internal view returns (CampaignDetails memory) {\n        return CampaignDetails({\n            creator: c.creator,\n            name: c.name,\n            title: c.title,\n            description: c.description,\n            targetAmount: c.targetAmount,\n            image: c.image,\n            createdAt: c.createdAt,\n            deadline: c.deadline,\n            totalDonated: c.totalDonated,\n            donators: c.donators,\n            withdrawn: c.withdrawn,\n            reachedDeadline: c.reachedDeadline\n        });\n    }\n\n    // 11. Delete a campaign by the creator\n    function deleteCampaign(uint256 campaignId) public campaignExists(campaignId) {\n        Campaign storage campaign = campaigns[campaignId];\n        require(campaign.creator == msg.sender, \"Only the creator can delete this campaign.\");\n        require(campaign.totalDonated == 0, \"Cannot delete a campaign that has received donations.\");\n\n        campaign.withdrawn = true;\n        campaign.reachedDeadline = true;\n        // The donators array remains intact to maintain record history.\n    }\n\n    // 12. Get a campaign using its ID\n    function getCampaignById(uint256 campaignId) public view campaignExists(campaignId) returns (CampaignDetails memory) {\n        return _mapCampaign(campaigns[campaignId]);\n    }\n\n   function updateDeadlineStatus(uint256 campaignId) internal {\n    Campaign storage campaign = campaigns[campaignId];\n    if (block.timestamp >= campaign.deadline && !campaign.reachedDeadline) {\n        campaign.reachedDeadline = true;  // Mark as reached the deadline\n    }\n}\n\n    // Update targetAmount field for a campaign.\n    function updateTargetAmount(uint256 campaignId, uint256 newTargetAmount) public campaignExists(campaignId) {\n        Campaign storage campaign = campaigns[campaignId];\n        require(campaign.creator == msg.sender, \"Only the creator can update the target amount.\");\n        // Ensure the new target is greater than the amount already donated.\n        require(newTargetAmount > campaign.totalDonated, \"New target must be greater than the amount already donated.\");\n        campaign.targetAmount = newTargetAmount;\n        emit TargetUpdated(campaignId, newTargetAmount);\n    }\n\n    // Allow donors to claim a refund if the campaign did not reach its target by the deadline.\n    function claimRefund(uint256 campaignId) public campaignExists(campaignId) {\n        Campaign storage campaign = campaigns[campaignId];\n        require(block.timestamp > campaign.deadline, \"Campaign is still active.\");\n        require(campaign.totalDonated < campaign.targetAmount, \"Campaign reached its target; refund not available.\");\n        uint256 donatedAmount = campaign.donations[msg.sender];\n        require(donatedAmount > 0, \"No donation found for sender.\");\n\n        // Set donation to zero before transfer to prevent re-entrancy.\n        campaign.donations[msg.sender] = 0;\n        // Adjust totalDonated if needed (optional)\n        campaign.totalDonated -= donatedAmount;\n        \n        (bool success, ) = payable(msg.sender).call{value: donatedAmount}(\"\");\n        require(success, \"Refund transfer failed\");\n\n        emit RefundClaimed(campaignId, msg.sender, donatedAmount);\n    }\n}\n",
  "sourcePath": "/home/alibaba/Downloads/projects/Crowdfund-web3/smart_contract/contracts/Crowdfund.sol",
  "compiler": {
    "name": "solc",
    "version": "0.8.21+commit.d9974bed.Emscripten.clang"
  },
  "schemaVersion": "3.4.16",
  "updatedAt": "2025-02-06T13:58:37.641Z",
  "devdoc": {
    "kind": "dev",
    "methods": {},
    "version": 1
  },
  "userdoc": {
    "kind": "user",
    "methods": {},
    "version": 1
  }
}