{
  "contractName": "GoFundme",
  "abi": [
    {
      "inputs": [],
      "stateMutability": "payable",
      "type": "constructor"
    },
    {
      "anonymous": false,
      "inputs": [
        {
          "indexed": false,
          "internalType": "uint256",
          "name": "campaignId",
          "type": "uint256"
        },
        {
          "indexed": false,
          "internalType": "address",
          "name": "creator",
          "type": "address"
        },
        {
          "indexed": false,
          "internalType": "uint256",
          "name": "targetAmount",
          "type": "uint256"
        },
        {
          "indexed": false,
          "internalType": "uint256",
          "name": "deadline",
          "type": "uint256"
        },
        {
          "indexed": false,
          "internalType": "string",
          "name": "title",
          "type": "string"
        },
        {
          "indexed": false,
          "internalType": "string",
          "name": "description",
          "type": "string"
        }
      ],
      "name": "CampaignCreated",
      "type": "event"
    },
    {
      "anonymous": false,
      "inputs": [
        {
          "indexed": false,
          "internalType": "uint256",
          "name": "campaignId",
          "type": "uint256"
        },
        {
          "indexed": false,
          "internalType": "address",
          "name": "donor",
          "type": "address"
        },
        {
          "indexed": false,
          "internalType": "uint256",
          "name": "amount",
          "type": "uint256"
        }
      ],
      "name": "DonationMade",
      "type": "event"
    },
    {
      "anonymous": false,
      "inputs": [
        {
          "indexed": false,
          "internalType": "uint256",
          "name": "campaignId",
          "type": "uint256"
        },
        {
          "indexed": false,
          "internalType": "address",
          "name": "creator",
          "type": "address"
        },
        {
          "indexed": false,
          "internalType": "uint256",
          "name": "amount",
          "type": "uint256"
        }
      ],
      "name": "FundsWithdrawn",
      "type": "event"
    },
    {
      "anonymous": false,
      "inputs": [
        {
          "indexed": false,
          "internalType": "uint256",
          "name": "campaignId",
          "type": "uint256"
        },
        {
          "indexed": false,
          "internalType": "address",
          "name": "donor",
          "type": "address"
        },
        {
          "indexed": false,
          "internalType": "uint256",
          "name": "amount",
          "type": "uint256"
        }
      ],
      "name": "RefundClaimed",
      "type": "event"
    },
    {
      "anonymous": false,
      "inputs": [
        {
          "indexed": false,
          "internalType": "uint256",
          "name": "campaignId",
          "type": "uint256"
        },
        {
          "indexed": false,
          "internalType": "uint256",
          "name": "newTargetAmount",
          "type": "uint256"
        }
      ],
      "name": "TargetUpdated",
      "type": "event"
    },
    {
      "inputs": [],
      "name": "campaignCount",
      "outputs": [
        {
          "internalType": "uint256",
          "name": "",
          "type": "uint256"
        }
      ],
      "stateMutability": "view",
      "type": "function"
    },
    {
      "inputs": [
        {
          "internalType": "uint256",
          "name": "",
          "type": "uint256"
        }
      ],
      "name": "campaigns",
      "outputs": [
        {
          "internalType": "uint256",
          "name": "id",
          "type": "uint256"
        },
        {
          "internalType": "address payable",
          "name": "creator",
          "type": "address"
        },
        {
          "internalType": "string",
          "name": "name",
          "type": "string"
        },
        {
          "internalType": "string",
          "name": "title",
          "type": "string"
        },
        {
          "internalType": "string",
          "name": "description",
          "type": "string"
        },
        {
          "internalType": "uint256",
          "name": "targetAmount",
          "type": "uint256"
        },
        {
          "internalType": "string",
          "name": "image",
          "type": "string"
        },
        {
          "internalType": "uint256",
          "name": "createdAt",
          "type": "uint256"
        },
        {
          "internalType": "uint256",
          "name": "deadline",
          "type": "uint256"
        },
        {
          "internalType": "uint256",
          "name": "totalDonated",
          "type": "uint256"
        },
        {
          "internalType": "bool",
          "name": "withdrawn",
          "type": "bool"
        },
        {
          "internalType": "bool",
          "name": "reachedDeadline",
          "type": "bool"
        }
      ],
      "stateMutability": "view",
      "type": "function"
    },
    {
      "inputs": [
        {
          "internalType": "uint256",
          "name": "campaignId",
          "type": "uint256"
        },
        {
          "internalType": "string",
          "name": "name",
          "type": "string"
        },
        {
          "internalType": "string",
          "name": "title",
          "type": "string"
        },
        {
          "internalType": "string",
          "name": "description",
          "type": "string"
        },
        {
          "internalType": "uint256",
          "name": "targetAmount",
          "type": "uint256"
        },
        {
          "internalType": "string",
          "name": "image",
          "type": "string"
        },
        {
          "internalType": "uint256",
          "name": "deadline",
          "type": "uint256"
        }
      ],
      "name": "createCampaign",
      "outputs": [
        {
          "internalType": "uint256",
          "name": "",
          "type": "uint256"
        }
      ],
      "stateMutability": "payable",
      "type": "function"
    },
    {
      "inputs": [
        {
          "internalType": "uint256",
          "name": "campaignId",
          "type": "uint256"
        }
      ],
      "name": "donate",
      "outputs": [],
      "stateMutability": "payable",
      "type": "function"
    },
    {
      "inputs": [
        {
          "internalType": "uint256",
          "name": "campaignId",
          "type": "uint256"
        }
      ],
      "name": "checkDeadline",
      "outputs": [
        {
          "internalType": "bool",
          "name": "",
          "type": "bool"
        }
      ],
      "stateMutability": "view",
      "type": "function"
    },
    {
      "inputs": [
        {
          "internalType": "uint256",
          "name": "campaignId",
          "type": "uint256"
        }
      ],
      "name": "checkTargetReached",
      "outputs": [
        {
          "internalType": "bool",
          "name": "",
          "type": "bool"
        }
      ],
      "stateMutability": "view",
      "type": "function"
    },
    {
      "inputs": [
        {
          "internalType": "uint256",
          "name": "campaignId",
          "type": "uint256"
        }
      ],
      "name": "withdrawFunds",
      "outputs": [],
      "stateMutability": "nonpayable",
      "type": "function"
    },
    {
      "inputs": [],
      "name": "getAddressBalance",
      "outputs": [
        {
          "internalType": "uint256",
          "name": "",
          "type": "uint256"
        }
      ],
      "stateMutability": "view",
      "type": "function"
    },
    {
      "inputs": [
        {
          "internalType": "uint256",
          "name": "campaignId",
          "type": "uint256"
        }
      ],
      "name": "getBalance",
      "outputs": [
        {
          "internalType": "uint256",
          "name": "",
          "type": "uint256"
        }
      ],
      "stateMutability": "view",
      "type": "function"
    },
    {
      "inputs": [
        {
          "internalType": "uint256",
          "name": "campaignId",
          "type": "uint256"
        }
      ],
      "name": "getDonors",
      "outputs": [
        {
          "components": [
            {
              "internalType": "address",
              "name": "donor",
              "type": "address"
            },
            {
              "internalType": "uint256",
              "name": "amount",
              "type": "uint256"
            }
          ],
          "internalType": "struct GoFundme.Donor[]",
          "name": "",
          "type": "tuple[]"
        }
      ],
      "stateMutability": "view",
      "type": "function"
    },
    {
      "inputs": [
        {
          "internalType": "address",
          "name": "creator",
          "type": "address"
        }
      ],
      "name": "getAvailableCampaignsByCreator",
      "outputs": [
        {
          "components": [
            {
              "internalType": "uint256",
              "name": "id",
              "type": "uint256"
            },
            {
              "internalType": "address",
              "name": "creator",
              "type": "address"
            },
            {
              "internalType": "string",
              "name": "name",
              "type": "string"
            },
            {
              "internalType": "string",
              "name": "title",
              "type": "string"
            },
            {
              "internalType": "string",
              "name": "description",
              "type": "string"
            },
            {
              "internalType": "uint256",
              "name": "targetAmount",
              "type": "uint256"
            },
            {
              "internalType": "string",
              "name": "image",
              "type": "string"
            },
            {
              "internalType": "uint256",
              "name": "createdAt",
              "type": "uint256"
            },
            {
              "internalType": "uint256",
              "name": "deadline",
              "type": "uint256"
            },
            {
              "internalType": "uint256",
              "name": "totalDonated",
              "type": "uint256"
            },
            {
              "internalType": "address[]",
              "name": "donators",
              "type": "address[]"
            },
            {
              "internalType": "bool",
              "name": "withdrawn",
              "type": "bool"
            },
            {
              "internalType": "bool",
              "name": "reachedDeadline",
              "type": "bool"
            }
          ],
          "internalType": "struct GoFundme.CampaignDetails[]",
          "name": "",
          "type": "tuple[]"
        }
      ],
      "stateMutability": "view",
      "type": "function"
    },
    {
      "inputs": [
        {
          "internalType": "address",
          "name": "creator",
          "type": "address"
        }
      ],
      "name": "getPastCampaignsByCreator",
      "outputs": [
        {
          "components": [
            {
              "internalType": "uint256",
              "name": "id",
              "type": "uint256"
            },
            {
              "internalType": "address",
              "name": "creator",
              "type": "address"
            },
            {
              "internalType": "string",
              "name": "name",
              "type": "string"
            },
            {
              "internalType": "string",
              "name": "title",
              "type": "string"
            },
            {
              "internalType": "string",
              "name": "description",
              "type": "string"
            },
            {
              "internalType": "uint256",
              "name": "targetAmount",
              "type": "uint256"
            },
            {
              "internalType": "string",
              "name": "image",
              "type": "string"
            },
            {
              "internalType": "uint256",
              "name": "createdAt",
              "type": "uint256"
            },
            {
              "internalType": "uint256",
              "name": "deadline",
              "type": "uint256"
            },
            {
              "internalType": "uint256",
              "name": "totalDonated",
              "type": "uint256"
            },
            {
              "internalType": "address[]",
              "name": "donators",
              "type": "address[]"
            },
            {
              "internalType": "bool",
              "name": "withdrawn",
              "type": "bool"
            },
            {
              "internalType": "bool",
              "name": "reachedDeadline",
              "type": "bool"
            }
          ],
          "internalType": "struct GoFundme.CampaignDetails[]",
          "name": "",
          "type": "tuple[]"
        }
      ],
      "stateMutability": "view",
      "type": "function"
    },
    {
      "inputs": [],
      "name": "getAvailableCampaigns",
      "outputs": [
        {
          "components": [
            {
              "internalType": "uint256",
              "name": "id",
              "type": "uint256"
            },
            {
              "internalType": "address",
              "name": "creator",
              "type": "address"
            },
            {
              "internalType": "string",
              "name": "name",
              "type": "string"
            },
            {
              "internalType": "string",
              "name": "title",
              "type": "string"
            },
            {
              "internalType": "string",
              "name": "description",
              "type": "string"
            },
            {
              "internalType": "uint256",
              "name": "targetAmount",
              "type": "uint256"
            },
            {
              "internalType": "string",
              "name": "image",
              "type": "string"
            },
            {
              "internalType": "uint256",
              "name": "createdAt",
              "type": "uint256"
            },
            {
              "internalType": "uint256",
              "name": "deadline",
              "type": "uint256"
            },
            {
              "internalType": "uint256",
              "name": "totalDonated",
              "type": "uint256"
            },
            {
              "internalType": "address[]",
              "name": "donators",
              "type": "address[]"
            },
            {
              "internalType": "bool",
              "name": "withdrawn",
              "type": "bool"
            },
            {
              "internalType": "bool",
              "name": "reachedDeadline",
              "type": "bool"
            }
          ],
          "internalType": "struct GoFundme.CampaignDetails[]",
          "name": "",
          "type": "tuple[]"
        }
      ],
      "stateMutability": "view",
      "type": "function"
    },
    {
      "inputs": [],
      "name": "getPastCampaigns",
      "outputs": [
        {
          "components": [
            {
              "internalType": "uint256",
              "name": "id",
              "type": "uint256"
            },
            {
              "internalType": "address",
              "name": "creator",
              "type": "address"
            },
            {
              "internalType": "string",
              "name": "name",
              "type": "string"
            },
            {
              "internalType": "string",
              "name": "title",
              "type": "string"
            },
            {
              "internalType": "string",
              "name": "description",
              "type": "string"
            },
            {
              "internalType": "uint256",
              "name": "targetAmount",
              "type": "uint256"
            },
            {
              "internalType": "string",
              "name": "image",
              "type": "string"
            },
            {
              "internalType": "uint256",
              "name": "createdAt",
              "type": "uint256"
            },
            {
              "internalType": "uint256",
              "name": "deadline",
              "type": "uint256"
            },
            {
              "internalType": "uint256",
              "name": "totalDonated",
              "type": "uint256"
            },
            {
              "internalType": "address[]",
              "name": "donators",
              "type": "address[]"
            },
            {
              "internalType": "bool",
              "name": "withdrawn",
              "type": "bool"
            },
            {
              "internalType": "bool",
              "name": "reachedDeadline",
              "type": "bool"
            }
          ],
          "internalType": "struct GoFundme.CampaignDetails[]",
          "name": "",
          "type": "tuple[]"
        }
      ],
      "stateMutability": "view",
      "type": "function"
    },
    {
      "inputs": [
        {
          "internalType": "uint256",
          "name": "campaignId",
          "type": "uint256"
        }
      ],
      "name": "deleteCampaign",
      "outputs": [],
      "stateMutability": "nonpayable",
      "type": "function"
    },
    {
      "inputs": [
        {
          "internalType": "uint256",
          "name": "campaignId",
          "type": "uint256"
        }
      ],
      "name": "getCampaignById",
      "outputs": [
        {
          "components": [
            {
              "internalType": "uint256",
              "name": "id",
              "type": "uint256"
            },
            {
              "internalType": "address",
              "name": "creator",
              "type": "address"
            },
            {
              "internalType": "string",
              "name": "name",
              "type": "string"
            },
            {
              "internalType": "string",
              "name": "title",
              "type": "string"
            },
            {
              "internalType": "string",
              "name": "description",
              "type": "string"
            },
            {
              "internalType": "uint256",
              "name": "targetAmount",
              "type": "uint256"
            },
            {
              "internalType": "string",
              "name": "image",
              "type": "string"
            },
            {
              "internalType": "uint256",
              "name": "createdAt",
              "type": "uint256"
            },
            {
              "internalType": "uint256",
              "name": "deadline",
              "type": "uint256"
            },
            {
              "internalType": "uint256",
              "name": "totalDonated",
              "type": "uint256"
            },
            {
              "internalType": "address[]",
              "name": "donators",
              "type": "address[]"
            },
            {
              "internalType": "bool",
              "name": "withdrawn",
              "type": "bool"
            },
            {
              "internalType": "bool",
              "name": "reachedDeadline",
              "type": "bool"
            }
          ],
          "internalType": "struct GoFundme.CampaignDetails",
          "name": "",
          "type": "tuple"
        }
      ],
      "stateMutability": "view",
      "type": "function"
    },
    {
      "inputs": [
        {
          "internalType": "uint256",
          "name": "campaignId",
          "type": "uint256"
        },
        {
          "internalType": "uint256",
          "name": "newTargetAmount",
          "type": "uint256"
        }
      ],
      "name": "updateTargetAmount",
      "outputs": [],
      "stateMutability": "nonpayable",
      "type": "function"
    },
    {
      "inputs": [
        {
          "internalType": "uint256",
          "name": "campaignId",
          "type": "uint256"
        }
      ],
      "name": "claimRefund",
      "outputs": [],
      "stateMutability": "nonpayable",
      "type": "function"
    }
  ],
  "bytecode": "0x6080604052613b70806100115f395ff3fe608060405260043610610108575f3560e01c80637274e30d116100945780639fd23cd3116100635780639fd23cd314610391578063a6990946146103cd578063e6ffcaa114610409578063f14faf6f14610445578063f4e7cb361461046157610108565b80637274e30d146102e5578063759701931461030f57806375eb2ad1146103375780637e9dc4d01461036157610108565b80633243382d116100db5780633243382d146101f35780634eedb7d91461022f5780635b7baf64146102575780636c7558b01461027f5780636e5b46f5146102bb57610108565b8063141961bc1461010c578063155dd5ee146101535780631e0104391461017b57806329516511146101b7575b5f80fd5b348015610117575f80fd5b50610132600480360381019061012d9190612360565b61048b565b60405161014a9c9b9a9998979695949392919061247d565b60405180910390f35b34801561015e575f80fd5b5061017960048036038101906101749190612360565b610736565b005b348015610186575f80fd5b506101a1600480360381019061019c9190612360565b610a06565b6040516101ae9190612551565b60405180910390f35b3480156101c2575f80fd5b506101dd60048036038101906101d89190612360565b610a6d565b6040516101ea919061266e565b60405180910390f35b3480156101fe575f80fd5b50610219600480360381019061021491906126b8565b610c1d565b60405161022691906129cf565b60405180910390f35b34801561023a575f80fd5b50610255600480360381019061025091906129ef565b610e29565b005b348015610262575f80fd5b5061027d60048036038101906102789190612360565b610fa0565b005b34801561028a575f80fd5b506102a560048036038101906102a09190612360565b611255565b6040516102b29190612a2d565b60405180910390f35b3480156102c6575f80fd5b506102cf6112c3565b6040516102dc91906129cf565b60405180910390f35b3480156102f0575f80fd5b506102f96113f9565b6040516103069190612551565b60405180910390f35b34801561031a575f80fd5b5061033560048036038101906103309190612360565b6113ff565b005b348015610342575f80fd5b5061034b61156c565b6040516103589190612551565b60405180910390f35b61037b60048036038101906103769190612b72565b611573565b6040516103889190612551565b60405180910390f35b34801561039c575f80fd5b506103b760048036038101906103b291906126b8565b611770565b6040516103c491906129cf565b60405180910390f35b3480156103d8575f80fd5b506103f360048036038101906103ee9190612360565b61197c565b6040516104009190612a2d565b60405180910390f35b348015610414575f80fd5b5061042f600480360381019061042a9190612360565b6119e6565b60405161043c9190612db1565b60405180910390f35b61045f600480360381019061045a9190612360565b611a53565b005b34801561046c575f80fd5b50610475611d34565b60405161048291906129cf565b60405180910390f35b5f602052805f5260405f205f91509050805f015490806001015f9054906101000a900473ffffffffffffffffffffffffffffffffffffffff16908060020180546104d490612dfe565b80601f016020809104026020016040519081016040528092919081815260200182805461050090612dfe565b801561054b5780601f106105225761010080835404028352916020019161054b565b820191905f5260205f20905b81548152906001019060200180831161052e57829003601f168201915b50505050509080600301805461056090612dfe565b80601f016020809104026020016040519081016040528092919081815260200182805461058c90612dfe565b80156105d75780601f106105ae576101008083540402835291602001916105d7565b820191905f5260205f20905b8154815290600101906020018083116105ba57829003601f168201915b5050505050908060040180546105ec90612dfe565b80601f016020809104026020016040519081016040528092919081815260200182805461061890612dfe565b80156106635780601f1061063a57610100808354040283529160200191610663565b820191905f5260205f20905b81548152906001019060200180831161064657829003601f168201915b50505050509080600501549080600601805461067e90612dfe565b80601f01602080910402602001604051908101604052809291908181526020018280546106aa90612dfe565b80156106f55780601f106106cc576101008083540402835291602001916106f5565b820191905f5260205f20905b8154815290600101906020018083116106d857829003601f168201915b50505050509080600701549080600801549080600901549080600c015f9054906101000a900460ff169080600c0160019054906101000a900460ff1690508c565b80600154811061077b576040517f08c379a000000000000000000000000000000000000000000000000000000000815260040161077290612e78565b60405180910390fd5b5f805f8481526020019081526020015f2090503373ffffffffffffffffffffffffffffffffffffffff16816001015f9054906101000a900473ffffffffffffffffffffffffffffffffffffffff1673ffffffffffffffffffffffffffffffffffffffff161461081f576040517f08c379a000000000000000000000000000000000000000000000000000000000815260040161081690612f06565b60405180910390fd5b80600c015f9054906101000a900460ff1615610870576040517f08c379a000000000000000000000000000000000000000000000000000000000815260040161086790612f6e565b60405180910390fd5b61087983611255565b6108b8576040517f08c379a00000000000000000000000000000000000000000000000000000000081526004016108af90612fd6565b60405180910390fd5b5f81600901549050600182600c015f6101000a81548160ff021916908315150217905550600182600c0160016101000a81548160ff0219169083151502179055505f826001015f9054906101000a900473ffffffffffffffffffffffffffffffffffffffff1673ffffffffffffffffffffffffffffffffffffffff168260405161094190613021565b5f6040518083038185875af1925050503d805f811461097b576040519150601f19603f3d011682016040523d82523d5f602084013e610980565b606091505b50509050806109c4576040517f08c379a00000000000000000000000000000000000000000000000000000000081526004016109bb9061307f565b60405180910390fd5b7ff440aec6b52895984d061d622e6edeba6210f7c3e059be920663140c084560d78533846040516109f7939291906130ac565b60405180910390a15050505050565b5f816001548110610a4c576040517f08c379a0000000000000000000000000000000000000000000000000000000008152600401610a4390612e78565b60405180910390fd5b5f805f8581526020019081526020015f209050806009015492505050919050565b6060816001548110610ab4576040517f08c379a0000000000000000000000000000000000000000000000000000000008152600401610aab90612e78565b60405180910390fd5b5f805f8581526020019081526020015f2090505f81600b018054905090505f8167ffffffffffffffff811115610aed57610aec612a4e565b5b604051908082528060200260200182016040528015610b2657816020015b610b13612274565b815260200190600190039081610b0b5790505b5090505f5b82811015610c10575f84600b018281548110610b4a57610b496130e1565b5b905f5260205f20015f9054906101000a900473ffffffffffffffffffffffffffffffffffffffff16905060405180604001604052808273ffffffffffffffffffffffffffffffffffffffff16815260200186600a015f8473ffffffffffffffffffffffffffffffffffffffff1673ffffffffffffffffffffffffffffffffffffffff1681526020019081526020015f2054815250838381518110610bf157610bf06130e1565b5b6020026020010181905250508080610c089061313b565b915050610b2b565b5080945050505050919050565b60605f805f90505b600154811015610cd757610c475f808381526020019081526020015f20611e6a565b8015610cb057508373ffffffffffffffffffffffffffffffffffffffff165f808381526020019081526020015f206001015f9054906101000a900473ffffffffffffffffffffffffffffffffffffffff1673ffffffffffffffffffffffffffffffffffffffff16145b15610cc4578180610cc09061313b565b9250505b8080610ccf9061313b565b915050610c25565b505f8167ffffffffffffffff811115610cf357610cf2612a4e565b5b604051908082528060200260200182016040528015610d2c57816020015b610d196122a2565b815260200190600190039081610d115790505b5090505f805f90505b600154811015610e1d57610d575f808381526020019081526020015f20611e6a565b8015610dc057508573ffffffffffffffffffffffffffffffffffffffff165f808381526020019081526020015f206001015f9054906101000a900473ffffffffffffffffffffffffffffffffffffffff1673ffffffffffffffffffffffffffffffffffffffff16145b15610e0a57610ddd5f808381526020019081526020015f20611eaf565b838381518110610df057610def6130e1565b5b60200260200101819052508180610e069061313b565b9250505b8080610e159061313b565b915050610d35565b50819350505050919050565b816001548110610e6e576040517f08c379a0000000000000000000000000000000000000000000000000000000008152600401610e6590612e78565b60405180910390fd5b5f805f8581526020019081526020015f2090503373ffffffffffffffffffffffffffffffffffffffff16816001015f9054906101000a900473ffffffffffffffffffffffffffffffffffffffff1673ffffffffffffffffffffffffffffffffffffffff1614610f12576040517f08c379a0000000000000000000000000000000000000000000000000000000008152600401610f09906131f2565b60405180910390fd5b80600901548311610f58576040517f08c379a0000000000000000000000000000000000000000000000000000000008152600401610f4f90613280565b60405180910390fd5b8281600501819055507f7f88365aae4228588bbe2e4fe761eb6c12cbdef7cac2a092afe3cfaee88199738484604051610f9292919061329e565b60405180910390a150505050565b806001548110610fe5576040517f08c379a0000000000000000000000000000000000000000000000000000000008152600401610fdc90612e78565b60405180910390fd5b5f805f8481526020019081526020015f2090508060080154421161103e576040517f08c379a00000000000000000000000000000000000000000000000000000000081526004016110359061330f565b60405180910390fd5b8060050154816009015410611088576040517f08c379a000000000000000000000000000000000000000000000000000000000815260040161107f9061339d565b60405180910390fd5b5f81600a015f3373ffffffffffffffffffffffffffffffffffffffff1673ffffffffffffffffffffffffffffffffffffffff1681526020019081526020015f205490505f811161110d576040517f08c379a000000000000000000000000000000000000000000000000000000000815260040161110490613405565b60405180910390fd5b5f82600a015f3373ffffffffffffffffffffffffffffffffffffffff1673ffffffffffffffffffffffffffffffffffffffff1681526020019081526020015f208190555080826009015f8282546111649190613423565b925050819055505f3373ffffffffffffffffffffffffffffffffffffffff168260405161119090613021565b5f6040518083038185875af1925050503d805f81146111ca576040519150601f19603f3d011682016040523d82523d5f602084013e6111cf565b606091505b5050905080611213576040517f08c379a000000000000000000000000000000000000000000000000000000000815260040161120a906134a0565b60405180910390fd5b7ff3f402280ef0a7905e124aa621b65eaeb2725c343e8b36d398ed78c29daf285c853384604051611246939291906130ac565b60405180910390a15050505050565b5f81600154811061129b576040517f08c379a000000000000000000000000000000000000000000000000000000000815260040161129290612e78565b60405180910390fd5b5f805f8581526020019081526020015f20905080600501548160090154101592505050919050565b60605f805f90505b600154811015611314576112ed5f808381526020019081526020015f20611e6a565b156113015781806112fd9061313b565b9250505b808061130c9061313b565b9150506112cb565b505f8167ffffffffffffffff8111156113305761132f612a4e565b5b60405190808252806020026020018201604052801561136957816020015b6113566122a2565b81526020019060019003908161134e5790505b5090505f805f90505b6001548110156113ef576113945f808381526020019081526020015f20611e6a565b156113dc576113b15f808381526020019081526020015f20611eaf565b8383806113bd9061313b565b9450815181106113d0576113cf6130e1565b5b60200260200101819052505b80806113e79061313b565b915050611372565b5081935050505090565b60015481565b806001548110611444576040517f08c379a000000000000000000000000000000000000000000000000000000000815260040161143b90612e78565b60405180910390fd5b5f805f8481526020019081526020015f2090503373ffffffffffffffffffffffffffffffffffffffff16816001015f9054906101000a900473ffffffffffffffffffffffffffffffffffffffff1673ffffffffffffffffffffffffffffffffffffffff16146114e8576040517f08c379a00000000000000000000000000000000000000000000000000000000081526004016114df9061352e565b60405180910390fd5b5f81600901541461152e576040517f08c379a0000000000000000000000000000000000000000000000000000000008152600401611525906135bc565b60405180910390fd5b600181600c015f6101000a81548160ff021916908315150217905550600181600c0160016101000a81548160ff021916908315150217905550505050565b5f47905090565b5f8084116115b6576040517f08c379a00000000000000000000000000000000000000000000000000000000081526004016115ad9061364a565b60405180910390fd5b4282116115f8576040517f08c379a00000000000000000000000000000000000000000000000000000000081526004016115ef906136b2565b60405180910390fd5b5f805f60015481526020019081526020015f20905088815f018190555033816001015f6101000a81548173ffffffffffffffffffffffffffffffffffffffff021916908373ffffffffffffffffffffffffffffffffffffffff16021790555087816002019081611668919061386d565b508681600301908161167a919061386d565b508581600401908161168c919061386d565b50848160050181905550838160060190816116a7919061386d565b504281600701819055508281600801819055505f81600901819055505f81600c015f6101000a81548160ff0219169083151502179055505f81600c0160016101000a81548160ff0219169083151502179055507f98a0d441b7626ac9b31750373850d01cdb57ad3406ddc03bb1d40a12c18de8226001543387868b8b6040516117359695949392919061393c565b60405180910390a160015f81548092919061174f9061313b565b9190505550600180546117629190613423565b915050979650505050505050565b60605f805f90505b60015481101561182a5761179a5f808381526020019081526020015f20612234565b801561180357508373ffffffffffffffffffffffffffffffffffffffff165f808381526020019081526020015f206001015f9054906101000a900473ffffffffffffffffffffffffffffffffffffffff1673ffffffffffffffffffffffffffffffffffffffff16145b156118175781806118139061313b565b9250505b80806118229061313b565b915050611778565b505f8167ffffffffffffffff81111561184657611845612a4e565b5b60405190808252806020026020018201604052801561187f57816020015b61186c6122a2565b8152602001906001900390816118645790505b5090505f805f90505b600154811015611970576118aa5f808381526020019081526020015f20612234565b801561191357508573ffffffffffffffffffffffffffffffffffffffff165f808381526020019081526020015f206001015f9054906101000a900473ffffffffffffffffffffffffffffffffffffffff1673ffffffffffffffffffffffffffffffffffffffff16145b1561195d576119305f808381526020019081526020015f20611eaf565b838381518110611943576119426130e1565b5b602002602001018190525081806119599061313b565b9250505b80806119689061313b565b915050611888565b50819350505050919050565b5f8160015481106119c2576040517f08c379a00000000000000000000000000000000000000000000000000000000081526004016119b990612e78565b60405180910390fd5b5f805f8581526020019081526020015f209050428160080154111592505050919050565b6119ee6122a2565b816001548110611a33576040517f08c379a0000000000000000000000000000000000000000000000000000000008152600401611a2a90612e78565b60405180910390fd5b611a4b5f808581526020019081526020015f20611eaf565b915050919050565b806001548110611a98576040517f08c379a0000000000000000000000000000000000000000000000000000000008152600401611a8f90612e78565b60405180910390fd5b5f805f8481526020019081526020015f209050611ab48361197c565b8015611acf575080600c0160019054906101000a900460ff16155b15611af257600181600c0160016101000a81548160ff0219169083151502179055505b80600c015f9054906101000a900460ff1615611b43576040517f08c379a0000000000000000000000000000000000000000000000000000000008152600401611b3a90613a19565b60405180910390fd5b8060080154421115611b8a576040517f08c379a0000000000000000000000000000000000000000000000000000000008152600401611b8190613a81565b60405180910390fd5b80600c0160019054906101000a900460ff1615611bdc576040517f08c379a0000000000000000000000000000000000000000000000000000000008152600401611bd390613ae9565b60405180910390fd5b5f81600a015f3373ffffffffffffffffffffffffffffffffffffffff1673ffffffffffffffffffffffffffffffffffffffff1681526020019081526020015f205403611c855780600b0133908060018154018082558091505060019003905f5260205f20015f9091909190916101000a81548173ffffffffffffffffffffffffffffffffffffffff021916908373ffffffffffffffffffffffffffffffffffffffff1602179055505b34816009015f828254611c989190613b07565b925050819055503481600a015f3373ffffffffffffffffffffffffffffffffffffffff1673ffffffffffffffffffffffffffffffffffffffff1681526020019081526020015f205f828254611ced9190613b07565b925050819055507fe555da28bdb778f65d22794d88927ebaeca03f7de9d1b7d39245bc8fb5ca078a833334604051611d27939291906130ac565b60405180910390a1505050565b60605f805f90505b600154811015611d8557611d5e5f808381526020019081526020015f20612234565b15611d72578180611d6e9061313b565b9250505b8080611d7d9061313b565b915050611d3c565b505f8167ffffffffffffffff811115611da157611da0612a4e565b5b604051908082528060200260200182016040528015611dda57816020015b611dc76122a2565b815260200190600190039081611dbf5790505b5090505f805f90505b600154811015611e6057611e055f808381526020019081526020015f20612234565b15611e4d57611e225f808381526020019081526020015f20611eaf565b838380611e2e9061313b565b945081518110611e4157611e406130e1565b5b60200260200101819052505b8080611e589061313b565b915050611de3565b5081935050505090565b5f81600c015f9054906101000a900460ff16158015611e98575081600c0160019054906101000a900460ff16155b8015611ea8575081600801544211155b9050919050565b611eb76122a2565b604051806101a00160405280835f01548152602001836001015f9054906101000a900473ffffffffffffffffffffffffffffffffffffffff1673ffffffffffffffffffffffffffffffffffffffff168152602001836002018054611f1a90612dfe565b80601f0160208091040260200160405190810160405280929190818152602001828054611f4690612dfe565b8015611f915780601f10611f6857610100808354040283529160200191611f91565b820191905f5260205f20905b815481529060010190602001808311611f7457829003601f168201915b50505050508152602001836003018054611faa90612dfe565b80601f0160208091040260200160405190810160405280929190818152602001828054611fd690612dfe565b80156120215780601f10611ff857610100808354040283529160200191612021565b820191905f5260205f20905b81548152906001019060200180831161200457829003601f168201915b5050505050815260200183600401805461203a90612dfe565b80601f016020809104026020016040519081016040528092919081815260200182805461206690612dfe565b80156120b15780601f10612088576101008083540402835291602001916120b1565b820191905f5260205f20905b81548152906001019060200180831161209457829003601f168201915b50505050508152602001836005015481526020018360060180546120d490612dfe565b80601f016020809104026020016040519081016040528092919081815260200182805461210090612dfe565b801561214b5780601f106121225761010080835404028352916020019161214b565b820191905f5260205f20905b81548152906001019060200180831161212e57829003601f168201915b5050505050815260200183600701548152602001836008015481526020018360090154815260200183600b018054806020026020016040519081016040528092919081815260200182805480156121f457602002820191905f5260205f20905b815f9054906101000a900473ffffffffffffffffffffffffffffffffffffffff1673ffffffffffffffffffffffffffffffffffffffff16815260200190600101908083116121ab575b5050505050815260200183600c015f9054906101000a900460ff161515815260200183600c0160019054906101000a900460ff1615158152509050919050565b5f81600c015f9054906101000a900460ff168061225f575081600c0160019054906101000a900460ff165b8061226d5750816008015442115b9050919050565b60405180604001604052805f73ffffffffffffffffffffffffffffffffffffffff1681526020015f81525090565b604051806101a001604052805f81526020015f73ffffffffffffffffffffffffffffffffffffffff1681526020016060815260200160608152602001606081526020015f8152602001606081526020015f81526020015f81526020015f8152602001606081526020015f151581526020015f151581525090565b5f604051905090565b5f80fd5b5f80fd5b5f819050919050565b61233f8161232d565b8114612349575f80fd5b50565b5f8135905061235a81612336565b92915050565b5f6020828403121561237557612374612325565b5b5f6123828482850161234c565b91505092915050565b6123948161232d565b82525050565b5f73ffffffffffffffffffffffffffffffffffffffff82169050919050565b5f6123c38261239a565b9050919050565b6123d3816123b9565b82525050565b5f81519050919050565b5f82825260208201905092915050565b5f5b838110156124105780820151818401526020810190506123f5565b5f8484015250505050565b5f601f19601f8301169050919050565b5f612435826123d9565b61243f81856123e3565b935061244f8185602086016123f3565b6124588161241b565b840191505092915050565b5f8115159050919050565b61247781612463565b82525050565b5f610180820190506124915f83018f61238b565b61249e602083018e6123ca565b81810360408301526124b0818d61242b565b905081810360608301526124c4818c61242b565b905081810360808301526124d8818b61242b565b90506124e760a083018a61238b565b81810360c08301526124f9818961242b565b905061250860e083018861238b565b61251661010083018761238b565b61252461012083018661238b565b61253261014083018561246e565b61254061016083018461246e565b9d9c50505050505050505050505050565b5f6020820190506125645f83018461238b565b92915050565b5f81519050919050565b5f82825260208201905092915050565b5f819050602082019050919050565b5f61259d8261239a565b9050919050565b6125ad81612593565b82525050565b6125bc8161232d565b82525050565b604082015f8201516125d65f8501826125a4565b5060208201516125e960208501826125b3565b50505050565b5f6125fa83836125c2565b60408301905092915050565b5f602082019050919050565b5f61261c8261256a565b6126268185612574565b935061263183612584565b805f5b8381101561266157815161264888826125ef565b975061265383612606565b925050600181019050612634565b5085935050505092915050565b5f6020820190508181035f8301526126868184612612565b905092915050565b61269781612593565b81146126a1575f80fd5b50565b5f813590506126b28161268e565b92915050565b5f602082840312156126cd576126cc612325565b5b5f6126da848285016126a4565b91505092915050565b5f81519050919050565b5f82825260208201905092915050565b5f819050602082019050919050565b5f82825260208201905092915050565b5f612726826123d9565b612730818561270c565b93506127408185602086016123f3565b6127498161241b565b840191505092915050565b5f81519050919050565b5f82825260208201905092915050565b5f819050602082019050919050565b5f61278883836125a4565b60208301905092915050565b5f602082019050919050565b5f6127aa82612754565b6127b4818561275e565b93506127bf8361276e565b805f5b838110156127ef5781516127d6888261277d565b97506127e183612794565b9250506001810190506127c2565b5085935050505092915050565b61280581612463565b82525050565b5f6101a083015f8301516128215f8601826125b3565b50602083015161283460208601826125a4565b506040830151848203604086015261284c828261271c565b91505060608301518482036060860152612866828261271c565b91505060808301518482036080860152612880828261271c565b91505060a083015161289560a08601826125b3565b5060c083015184820360c08601526128ad828261271c565b91505060e08301516128c260e08601826125b3565b506101008301516128d76101008601826125b3565b506101208301516128ec6101208601826125b3565b5061014083015184820361014086015261290682826127a0565b91505061016083015161291d6101608601826127fc565b506101808301516129326101808601826127fc565b508091505092915050565b5f612948838361280b565b905092915050565b5f602082019050919050565b5f612966826126e3565b61297081856126ed565b935083602082028501612982856126fd565b805f5b858110156129bd578484038952815161299e858261293d565b94506129a983612950565b925060208a01995050600181019050612985565b50829750879550505050505092915050565b5f6020820190508181035f8301526129e7818461295c565b905092915050565b5f8060408385031215612a0557612a04612325565b5b5f612a128582860161234c565b9250506020612a238582860161234c565b9150509250929050565b5f602082019050612a405f83018461246e565b92915050565b5f80fd5b5f80fd5b7f4e487b71000000000000000000000000000000000000000000000000000000005f52604160045260245ffd5b612a848261241b565b810181811067ffffffffffffffff82111715612aa357612aa2612a4e565b5b80604052505050565b5f612ab561231c565b9050612ac18282612a7b565b919050565b5f67ffffffffffffffff821115612ae057612adf612a4e565b5b612ae98261241b565b9050602081019050919050565b828183375f83830152505050565b5f612b16612b1184612ac6565b612aac565b905082815260208101848484011115612b3257612b31612a4a565b5b612b3d848285612af6565b509392505050565b5f82601f830112612b5957612b58612a46565b5b8135612b69848260208601612b04565b91505092915050565b5f805f805f805f60e0888a031215612b8d57612b8c612325565b5b5f612b9a8a828b0161234c565b975050602088013567ffffffffffffffff811115612bbb57612bba612329565b5b612bc78a828b01612b45565b965050604088013567ffffffffffffffff811115612be857612be7612329565b5b612bf48a828b01612b45565b955050606088013567ffffffffffffffff811115612c1557612c14612329565b5b612c218a828b01612b45565b9450506080612c328a828b0161234c565b93505060a088013567ffffffffffffffff811115612c5357612c52612329565b5b612c5f8a828b01612b45565b92505060c0612c708a828b0161234c565b91505092959891949750929550565b5f6101a083015f830151612c955f8601826125b3565b506020830151612ca860208601826125a4565b5060408301518482036040860152612cc0828261271c565b91505060608301518482036060860152612cda828261271c565b91505060808301518482036080860152612cf4828261271c565b91505060a0830151612d0960a08601826125b3565b5060c083015184820360c0860152612d21828261271c565b91505060e0830151612d3660e08601826125b3565b50610100830151612d4b6101008601826125b3565b50610120830151612d606101208601826125b3565b50610140830151848203610140860152612d7a82826127a0565b915050610160830151612d916101608601826127fc565b50610180830151612da66101808601826127fc565b508091505092915050565b5f6020820190508181035f830152612dc98184612c7f565b905092915050565b7f4e487b71000000000000000000000000000000000000000000000000000000005f52602260045260245ffd5b5f6002820490506001821680612e1557607f821691505b602082108103612e2857612e27612dd1565b5b50919050565b7f43616d706169676e20646f6573206e6f742065786973740000000000000000005f82015250565b5f612e626017836123e3565b9150612e6d82612e2e565b602082019050919050565b5f6020820190508181035f830152612e8f81612e56565b9050919050565b7f4f6e6c79207468652063726561746f722063616e2077697468647261772066755f8201527f6e64732e00000000000000000000000000000000000000000000000000000000602082015250565b5f612ef06024836123e3565b9150612efb82612e96565b604082019050919050565b5f6020820190508181035f830152612f1d81612ee4565b9050919050565b7f46756e647320616c72656164792077697468647261776e2e00000000000000005f82015250565b5f612f586018836123e3565b9150612f6382612f24565b602082019050919050565b5f6020820190508181035f830152612f8581612f4c565b9050919050565b7f546172676574206e6f7420726561636865642e000000000000000000000000005f82015250565b5f612fc06013836123e3565b9150612fcb82612f8c565b602082019050919050565b5f6020820190508181035f830152612fed81612fb4565b9050919050565b5f81905092915050565b50565b5f61300c5f83612ff4565b915061301782612ffe565b5f82019050919050565b5f61302b82613001565b9150819050919050565b7f5472616e73666572206661696c656400000000000000000000000000000000005f82015250565b5f613069600f836123e3565b915061307482613035565b602082019050919050565b5f6020820190508181035f8301526130968161305d565b9050919050565b6130a681612593565b82525050565b5f6060820190506130bf5f83018661238b565b6130cc602083018561309d565b6130d9604083018461238b565b949350505050565b7f4e487b71000000000000000000000000000000000000000000000000000000005f52603260045260245ffd5b7f4e487b71000000000000000000000000000000000000000000000000000000005f52601160045260245ffd5b5f6131458261232d565b91507fffffffffffffffffffffffffffffffffffffffffffffffffffffffffffffffff82036131775761317661310e565b5b600182019050919050565b7f4f6e6c79207468652063726561746f722063616e2075706461746520746865205f8201527f74617267657420616d6f756e742e000000000000000000000000000000000000602082015250565b5f6131dc602e836123e3565b91506131e782613182565b604082019050919050565b5f6020820190508181035f830152613209816131d0565b9050919050565b7f4e657720746172676574206d7573742062652067726561746572207468616e205f8201527f74686520616d6f756e7420616c726561647920646f6e617465642e0000000000602082015250565b5f61326a603b836123e3565b915061327582613210565b604082019050919050565b5f6020820190508181035f8301526132978161325e565b9050919050565b5f6040820190506132b15f83018561238b565b6132be602083018461238b565b9392505050565b7f43616d706169676e206973207374696c6c206163746976652e000000000000005f82015250565b5f6132f96019836123e3565b9150613304826132c5565b602082019050919050565b5f6020820190508181035f830152613326816132ed565b9050919050565b7f43616d706169676e207265616368656420697473207461726765743b207265665f8201527f756e64206e6f7420617661696c61626c652e0000000000000000000000000000602082015250565b5f6133876032836123e3565b91506133928261332d565b604082019050919050565b5f6020820190508181035f8301526133b48161337b565b9050919050565b7f4e6f20646f6e6174696f6e20666f756e6420666f722073656e6465722e0000005f82015250565b5f6133ef601d836123e3565b91506133fa826133bb565b602082019050919050565b5f6020820190508181035f83015261341c816133e3565b9050919050565b5f61342d8261232d565b91506134388361232d565b92508282039050818111156134505761344f61310e565b5b92915050565b7f526566756e64207472616e73666572206661696c6564000000000000000000005f82015250565b5f61348a6016836123e3565b915061349582613456565b602082019050919050565b5f6020820190508181035f8301526134b78161347e565b9050919050565b7f4f6e6c79207468652063726561746f722063616e2064656c65746520746869735f8201527f2063616d706169676e2e00000000000000000000000000000000000000000000602082015250565b5f613518602a836123e3565b9150613523826134be565b604082019050919050565b5f6020820190508181035f8301526135458161350c565b9050919050565b7f43616e6e6f742064656c65746520612063616d706169676e20746861742068615f8201527f7320726563656976656420646f6e6174696f6e732e0000000000000000000000602082015250565b5f6135a66035836123e3565b91506135b18261354c565b604082019050919050565b5f6020820190508181035f8301526135d38161359a565b9050919050565b7f54617267657420616d6f756e74206d75737420626520677265617465722074685f8201527f616e207a65726f2e000000000000000000000000000000000000000000000000602082015250565b5f6136346028836123e3565b915061363f826135da565b604082019050919050565b5f6020820190508181035f83015261366181613628565b9050919050565b7f446561646c696e65206d75737420626520696e20746865206675747572652e005f82015250565b5f61369c601f836123e3565b91506136a782613668565b602082019050919050565b5f6020820190508181035f8301526136c981613690565b9050919050565b5f819050815f5260205f209050919050565b5f6020601f8301049050919050565b5f82821b905092915050565b5f6008830261372c7fffffffffffffffffffffffffffffffffffffffffffffffffffffffffffffffff826136f1565b61373686836136f1565b95508019841693508086168417925050509392505050565b5f819050919050565b5f61377161376c6137678461232d565b61374e565b61232d565b9050919050565b5f819050919050565b61378a83613757565b61379e61379682613778565b8484546136fd565b825550505050565b5f90565b6137b26137a6565b6137bd818484613781565b505050565b5b818110156137e0576137d55f826137aa565b6001810190506137c3565b5050565b601f821115613825576137f6816136d0565b6137ff846136e2565b8101602085101561380e578190505b61382261381a856136e2565b8301826137c2565b50505b505050565b5f82821c905092915050565b5f6138455f198460080261382a565b1980831691505092915050565b5f61385d8383613836565b9150826002028217905092915050565b613876826123d9565b67ffffffffffffffff81111561388f5761388e612a4e565b5b6138998254612dfe565b6138a48282856137e4565b5f60209050601f8311600181146138d5575f84156138c3578287015190505b6138cd8582613852565b865550613934565b601f1984166138e3866136d0565b5f5b8281101561390a578489015182556001820191506020850194506020810190506138e5565b868310156139275784890151613923601f891682613836565b8355505b6001600288020188555050505b505050505050565b5f60c08201905061394f5f83018961238b565b61395c602083018861309d565b613969604083018761238b565b613976606083018661238b565b8181036080830152613988818561242b565b905081810360a083015261399c818461242b565b9050979650505050505050565b7f43616d706169676e2066756e647320616c72656164792077697468647261776e5f8201527f2e00000000000000000000000000000000000000000000000000000000000000602082015250565b5f613a036021836123e3565b9150613a0e826139a9565b604082019050919050565b5f6020820190508181035f830152613a30816139f7565b9050919050565b7f43616d706169676e2068617320657870697265640000000000000000000000005f82015250565b5f613a6b6014836123e3565b9150613a7682613a37565b602082019050919050565b5f6020820190508181035f830152613a9881613a5f565b9050919050565b7f43616d706169676e20646561646c696e6520686173207061737365642e0000005f82015250565b5f613ad3601d836123e3565b9150613ade82613a9f565b602082019050919050565b5f6020820190508181035f830152613b0081613ac7565b9050919050565b5f613b118261232d565b9150613b1c8361232d565b9250828201905080821115613b3457613b3361310e565b5b9291505056fea2646970667358221220a1c17309d266e19fd2c70b33cb4ee5a66a37d29701d44d3569a92e8246867dce64736f6c63430008150033",
  "immutableReferences": {},
  "source": "// SPDX-License-Identifier: MIT\npragma solidity ^0.8.11;\n\ncontract GoFundme {\n    constructor() payable {}\n\n    struct Campaign {\n        uint256 id;\n        address payable creator;\n        string name;\n        string title; \n        string description;\n        uint256 targetAmount;\n        string image;\n        uint256 createdAt;\n        uint256 deadline; // Unix timestamp (seconds since epoch)\n        uint256 totalDonated;\n        mapping(address => uint256) donations;\n        address[] donators;\n        bool withdrawn;\n        bool reachedDeadline;\n    }\n    \n    // Struct for returning campaign details in memory (no mappings)\n    struct CampaignDetails {\n        uint256 id;\n        address creator;\n        string name;\n        string title;\n        string description;\n        uint256 targetAmount;\n        string image;\n        uint256 createdAt;\n        uint256 deadline;\n        uint256 totalDonated;\n        address[] donators;\n        bool withdrawn;\n        bool reachedDeadline;\n    }\n\n    // Struct for returning donor information\n    struct Donor {\n        address donor;\n        uint256 amount;\n    }\n\n    mapping(uint256 => Campaign) public campaigns;\n    uint256 public campaignCount;\n\n    // Events\n    event CampaignCreated(uint256 campaignId, address creator, uint256 targetAmount, uint256 deadline, string title, string description);\n    event DonationMade(uint256 campaignId, address donor, uint256 amount);\n    event FundsWithdrawn(uint256 campaignId, address creator, uint256 amount);\n    event TargetUpdated(uint256 campaignId, uint256 newTargetAmount);\n    event RefundClaimed(uint256 campaignId, address donor, uint256 amount);\n\n    modifier campaignExists(uint campaignId) {\n        require(campaignId < campaignCount, \"Campaign does not exist\");\n        _;\n    }\n\n    // 1. Create a new campaign\n    function createCampaign(\n        uint256 campaignId,\n        string memory name,\n        string memory title,\n        string memory description,\n        uint256 targetAmount,\n        string memory image,\n        uint256 deadline\n    ) public payable returns (uint256) {\n        require(targetAmount > 0, \"Target amount must be greater than zero.\");\n        require(deadline > block.timestamp, \"Deadline must be in the future.\");\n\n        Campaign storage newCampaign = campaigns[campaignCount];\n\n        newCampaign.id = campaignId;\n        newCampaign.creator = payable(msg.sender);\n        newCampaign.name = name;\n        newCampaign.title = title;\n        newCampaign.description = description;\n        newCampaign.targetAmount = targetAmount;\n        newCampaign.image = image;\n        newCampaign.createdAt = block.timestamp;\n        newCampaign.deadline = deadline;\n        newCampaign.totalDonated = 0;\n        newCampaign.withdrawn = false;\n        newCampaign.reachedDeadline = false;\n\n        emit CampaignCreated(campaignCount, msg.sender, targetAmount, deadline, title, description);\n        campaignCount++; // Increment campaign count\n        return campaignCount - 1;\n    }\n\n    // 2. Donate to the campaign\nfunction donate(uint256 campaignId) public payable campaignExists(campaignId) {\n    Campaign storage campaign = campaigns[campaignId];\n    \n    // Only mark reachedDeadline if the actual deadline has passed.\n    if (checkDeadline(campaignId) && !campaign.reachedDeadline) {\n        campaign.reachedDeadline = true;\n    }\n    \n    require(!campaign.withdrawn, \"Campaign funds already withdrawn.\");\n    require(block.timestamp <= campaign.deadline, \"Campaign has expired\");\n    require(!campaign.reachedDeadline, \"Campaign deadline has passed.\");\n\n    // If first donation from sender, add them to the donators array.\n    if (campaign.donations[msg.sender] == 0) {\n        campaign.donators.push(msg.sender);\n    }\n\n    campaign.totalDonated += msg.value;\n    campaign.donations[msg.sender] += msg.value;\n    emit DonationMade(campaignId, msg.sender, msg.value);\n}\n    // 3. Check if campaign has reached the deadline\n    function checkDeadline(uint256 campaignId) public view campaignExists(campaignId) returns (bool) {\n        Campaign storage campaign = campaigns[campaignId];\n        return campaign.deadline <= block.timestamp;\n    }\n\n    // 4. Check if the target for the campaign has been reached \n    function checkTargetReached(uint256 campaignId) public view campaignExists(campaignId) returns (bool) {\n        Campaign storage campaign = campaigns[campaignId];\n        return campaign.totalDonated >= campaign.targetAmount;\n    }\n\n    // 5. Withdraw funds by the campaign creator\n    function withdrawFunds(uint256 campaignId) public campaignExists(campaignId) {\n        Campaign storage campaign = campaigns[campaignId];\n         \n        require(campaign.creator == msg.sender, \"Only the creator can withdraw funds.\");\n        require(!campaign.withdrawn, \"Funds already withdrawn.\");\n        require(checkTargetReached(campaignId), \"Target not reached.\");\n\n        uint256 amount = campaign.totalDonated;\n        campaign.withdrawn = true;\n        campaign.reachedDeadline = true;\n\n        // Transfer funds\n        (bool success, ) = payable(campaign.creator).call{value: amount}(\"\");\n        require(success, \"Transfer failed\");\n\n        emit FundsWithdrawn(campaignId, msg.sender, amount);\n    }\nfunction getAddressBalance() public view returns (uint256) {\n        return address(this).balance;\n    }\n    // 6. Fetch the balance for a campaign\n    function getBalance(uint256 campaignId) public view campaignExists(campaignId) returns (uint256) {\n        Campaign storage campaign = campaigns[campaignId];\n        return campaign.totalDonated;\n    }\n\n    // 7. Get donators with the amounts they donated\n    function getDonors(uint256 campaignId) public view campaignExists(campaignId) returns (Donor[] memory) {\n        Campaign storage campaign = campaigns[campaignId];\n        uint256 donorCount = campaign.donators.length;\n        Donor[] memory donorsList = new Donor[](donorCount);\n\n        for (uint256 i = 0; i < donorCount; i++) {\n            address donorAddr = campaign.donators[i];\n            donorsList[i] = Donor({\n                donor: donorAddr,\n                amount: campaign.donations[donorAddr]\n            });\n        }\n        return donorsList;\n    }\n\n    // 8. Get all campaigns for a particular creator using _mapCampaign\n    function getAvailableCampaignsByCreator(address creator) public view returns (CampaignDetails[] memory) {\n        // First, count how many campaigns are created by the given creator.\n        uint256 countResult;\n        for (uint256 i = 0; i < campaignCount; i++) {\n            if (_isAvailable(campaigns[i]) && campaigns[i].creator == creator) {\n                countResult++;\n            }\n        }\n\n        // Allocate a new array for matching campaigns.\n        CampaignDetails[] memory result = new CampaignDetails[](countResult);\n        uint256 index;\n        for (uint256 i = 0; i < campaignCount; i++) {\n            if (_isAvailable(campaigns[i]) && campaigns[i].creator == creator) {\n                result[index] = _mapCampaign(campaigns[i]);\n                index++;\n            }\n        }\n        return result;\n    }\n    function getPastCampaignsByCreator(address creator) public view returns (CampaignDetails[] memory) {\n        // First, count how many campaigns are created by the given creator.\n        uint256 countResult;\n        for (uint256 i = 0; i < campaignCount; i++) {\n            if (_isPast(campaigns[i]) && campaigns[i].creator == creator) {\n                countResult++;\n            }\n        }\n\n        // Allocate a new array for matching campaigns.\n        CampaignDetails[] memory result = new CampaignDetails[](countResult);\n        uint256 index;\n        for (uint256 i = 0; i < campaignCount; i++) {\n            if (_isPast(campaigns[i]) && campaigns[i].creator == creator) {\n                result[index] = _mapCampaign(campaigns[i]);\n                index++;\n            }\n        }\n        return result;\n    }\n\n    // 9. Get all active campaigns\n    function getAvailableCampaigns() public view returns (CampaignDetails[] memory) {\n        uint256 matchCount;\n        for (uint256 i = 0; i < campaignCount; i++) {\n            if (_isAvailable(campaigns[i])) {\n                matchCount++;\n            }\n        }\n\n        CampaignDetails[] memory result = new CampaignDetails[](matchCount);\n        uint256 index;\n        for (uint256 i = 0; i < campaignCount; i++) {\n            if (_isAvailable(campaigns[i])) {\n                result[index++] = _mapCampaign(campaigns[i]);\n            }\n        }\n        return result;\n    }\n\n    // 10. Get all past campaigns\n    function getPastCampaigns() public view returns (CampaignDetails[] memory) {\n        uint256 matchCount;\n        for (uint256 i = 0; i < campaignCount; i++) {\n            if (_isPast(campaigns[i])) {\n                matchCount++;\n            }\n        }\n\n        CampaignDetails[] memory result = new CampaignDetails[](matchCount);\n        uint256 index;\n        for (uint256 i = 0; i < campaignCount; i++) {\n            if (_isPast(campaigns[i])) {\n                result[index++] = _mapCampaign(campaigns[i]);\n            }\n        }\n        return result;\n    }\n\n    // Internal helper to check campaign availability\n    function _isAvailable(Campaign storage c) internal view returns (bool) {\n        return !c.withdrawn && !c.reachedDeadline && block.timestamp <= c.deadline;\n    }\n\n    // Internal helper to check if a campaign is past (i.e. finished or expired)\n    function _isPast(Campaign storage c) internal view returns (bool) {\n        return c.withdrawn || c.reachedDeadline || block.timestamp > c.deadline;\n    }\n\n    // Internal helper to map storage Campaign struct to a memory CampaignDetails struct\n    function _mapCampaign(Campaign storage c) internal view returns (CampaignDetails memory) {\n        return CampaignDetails({\n            id: c.id,\n            creator: c.creator,\n            name: c.name,\n            title: c.title,\n            description: c.description,\n            targetAmount: c.targetAmount,\n            image: c.image,\n            createdAt: c.createdAt,\n            deadline: c.deadline,\n            totalDonated: c.totalDonated,\n            donators: c.donators,\n            withdrawn: c.withdrawn,\n            reachedDeadline: c.reachedDeadline\n        });\n    }\n\n    // 11. Delete a campaign by the creator\n    function deleteCampaign(uint256 campaignId) public campaignExists(campaignId) {\n        Campaign storage campaign = campaigns[campaignId];\n        require(campaign.creator == msg.sender, \"Only the creator can delete this campaign.\");\n        require(campaign.totalDonated == 0, \"Cannot delete a campaign that has received donations.\");\n\n        campaign.withdrawn = true;\n        campaign.reachedDeadline = true;\n        // The donators array remains intact to maintain record history.\n    }\n\n    // 12. Get a campaign using its ID\n    function getCampaignById(uint256 campaignId) public view campaignExists(campaignId) returns (CampaignDetails memory) {\n        return _mapCampaign(campaigns[campaignId]);\n    }\n\n\n    // Update targetAmount field for a campaign.\n    function updateTargetAmount(uint256 campaignId, uint256 newTargetAmount) public campaignExists(campaignId) {\n        Campaign storage campaign = campaigns[campaignId];\n        require(campaign.creator == msg.sender, \"Only the creator can update the target amount.\");\n        // Ensure the new target is greater than the amount already donated.\n        require(newTargetAmount > campaign.totalDonated, \"New target must be greater than the amount already donated.\");\n        campaign.targetAmount = newTargetAmount;\n        emit TargetUpdated(campaignId, newTargetAmount);\n    }\n\n    // Allow donors to claim a refund if the campaign did not reach its target by the deadline.\n    function claimRefund(uint256 campaignId) public campaignExists(campaignId) {\n        Campaign storage campaign = campaigns[campaignId];\n        require(block.timestamp > campaign.deadline, \"Campaign is still active.\");\n        require(campaign.totalDonated < campaign.targetAmount, \"Campaign reached its target; refund not available.\");\n        uint256 donatedAmount = campaign.donations[msg.sender];\n        require(donatedAmount > 0, \"No donation found for sender.\");\n\n        // Set donation to zero before transfer to prevent re-entrancy.\n        campaign.donations[msg.sender] = 0;\n        // Adjust totalDonated if needed (optional)\n        campaign.totalDonated -= donatedAmount;\n        \n        (bool success, ) = payable(msg.sender).call{value: donatedAmount}(\"\");\n        require(success, \"Refund transfer failed\");\n\n        emit RefundClaimed(campaignId, msg.sender, donatedAmount);\n    }\n}\n",
  "sourcePath": "/home/alibaba/Downloads/projects/Crowdfund-web3/smart_contract/contracts/Crowdfund.sol",
  "compiler": {
    "name": "solc",
    "version": "0.8.21+commit.d9974bed.Emscripten.clang"
  },
  "schemaVersion": "3.4.16",
  "updatedAt": "2025-02-06T23:41:56.056Z",
  "devdoc": {
    "kind": "dev",
    "methods": {},
    "version": 1
  },
  "userdoc": {
    "kind": "user",
    "methods": {},
    "version": 1
  }
}