{
  "contractName": "GoFundme",
  "abi": [
    {
      "inputs": [],
      "stateMutability": "payable",
      "type": "constructor",
      "payable": true
    },
    {
      "anonymous": false,
      "inputs": [
        {
          "indexed": false,
          "internalType": "uint256",
          "name": "campaignId",
          "type": "uint256"
        },
        {
          "indexed": false,
          "internalType": "address",
          "name": "creator",
          "type": "address"
        },
        {
          "indexed": false,
          "internalType": "uint256",
          "name": "targetAmount",
          "type": "uint256"
        },
        {
          "indexed": false,
          "internalType": "uint256",
          "name": "deadline",
          "type": "uint256"
        },
        {
          "indexed": false,
          "internalType": "string",
          "name": "title",
          "type": "string"
        },
        {
          "indexed": false,
          "internalType": "string",
          "name": "description",
          "type": "string"
        }
      ],
      "name": "CampaignCreated",
      "type": "event"
    },
    {
      "anonymous": false,
      "inputs": [
        {
          "indexed": false,
          "internalType": "uint256",
          "name": "campaignId",
          "type": "uint256"
        },
        {
          "indexed": false,
          "internalType": "address",
          "name": "donor",
          "type": "address"
        },
        {
          "indexed": false,
          "internalType": "uint256",
          "name": "amount",
          "type": "uint256"
        }
      ],
      "name": "DonationMade",
      "type": "event"
    },
    {
      "anonymous": false,
      "inputs": [
        {
          "indexed": false,
          "internalType": "uint256",
          "name": "campaignId",
          "type": "uint256"
        },
        {
          "indexed": false,
          "internalType": "address",
          "name": "creator",
          "type": "address"
        },
        {
          "indexed": false,
          "internalType": "uint256",
          "name": "amount",
          "type": "uint256"
        }
      ],
      "name": "FundsWithdrawn",
      "type": "event"
    },
    {
      "inputs": [],
      "name": "campaignCount",
      "outputs": [
        {
          "internalType": "uint256",
          "name": "",
          "type": "uint256"
        }
      ],
      "stateMutability": "view",
      "type": "function",
      "constant": true
    },
    {
      "inputs": [
        {
          "internalType": "uint256",
          "name": "",
          "type": "uint256"
        }
      ],
      "name": "campaigns",
      "outputs": [
        {
          "internalType": "address payable",
          "name": "creator",
          "type": "address"
        },
        {
          "internalType": "string",
          "name": "name",
          "type": "string"
        },
        {
          "internalType": "string",
          "name": "title",
          "type": "string"
        },
        {
          "internalType": "string",
          "name": "description",
          "type": "string"
        },
        {
          "internalType": "uint256",
          "name": "targetAmount",
          "type": "uint256"
        },
        {
          "internalType": "string",
          "name": "image",
          "type": "string"
        },
        {
          "internalType": "uint256",
          "name": "createdAt",
          "type": "uint256"
        },
        {
          "internalType": "uint256",
          "name": "deadline",
          "type": "uint256"
        },
        {
          "internalType": "uint256",
          "name": "totalDonated",
          "type": "uint256"
        },
        {
          "internalType": "bool",
          "name": "withdrawn",
          "type": "bool"
        },
        {
          "internalType": "bool",
          "name": "reachedDeadline",
          "type": "bool"
        }
      ],
      "stateMutability": "view",
      "type": "function",
      "constant": true
    },
    {
      "inputs": [
        {
          "internalType": "string",
          "name": "name",
          "type": "string"
        },
        {
          "internalType": "string",
          "name": "title",
          "type": "string"
        },
        {
          "internalType": "string",
          "name": "description",
          "type": "string"
        },
        {
          "internalType": "uint256",
          "name": "targetAmount",
          "type": "uint256"
        },
        {
          "internalType": "string",
          "name": "image",
          "type": "string"
        },
        {
          "internalType": "uint256",
          "name": "deadline",
          "type": "uint256"
        }
      ],
      "name": "createCampaign",
      "outputs": [
        {
          "internalType": "uint256",
          "name": "",
          "type": "uint256"
        }
      ],
      "stateMutability": "payable",
      "type": "function",
      "payable": true
    },
    {
      "inputs": [
        {
          "internalType": "uint256",
          "name": "campaignId",
          "type": "uint256"
        }
      ],
      "name": "donate",
      "outputs": [],
      "stateMutability": "payable",
      "type": "function",
      "payable": true
    },
    {
      "inputs": [
        {
          "internalType": "uint256",
          "name": "campaignId",
          "type": "uint256"
        }
      ],
      "name": "checkDeadline",
      "outputs": [
        {
          "internalType": "bool",
          "name": "",
          "type": "bool"
        }
      ],
      "stateMutability": "view",
      "type": "function",
      "constant": true
    },
    {
      "inputs": [
        {
          "internalType": "uint256",
          "name": "campaignId",
          "type": "uint256"
        }
      ],
      "name": "checkTargetReached",
      "outputs": [
        {
          "internalType": "bool",
          "name": "",
          "type": "bool"
        }
      ],
      "stateMutability": "view",
      "type": "function",
      "constant": true
    },
    {
      "inputs": [
        {
          "internalType": "uint256",
          "name": "campaignId",
          "type": "uint256"
        }
      ],
      "name": "withdrawFunds",
      "outputs": [],
      "stateMutability": "nonpayable",
      "type": "function"
    },
    {
      "inputs": [
        {
          "internalType": "uint256",
          "name": "campaignId",
          "type": "uint256"
        }
      ],
      "name": "getBalance",
      "outputs": [
        {
          "internalType": "uint256",
          "name": "",
          "type": "uint256"
        }
      ],
      "stateMutability": "view",
      "type": "function",
      "constant": true
    },
    {
      "inputs": [
        {
          "internalType": "uint256",
          "name": "campaignId",
          "type": "uint256"
        }
      ],
      "name": "getDonors",
      "outputs": [
        {
          "internalType": "address[]",
          "name": "",
          "type": "address[]"
        }
      ],
      "stateMutability": "view",
      "type": "function",
      "constant": true
    },
    {
      "inputs": [
        {
          "internalType": "address",
          "name": "creator",
          "type": "address"
        }
      ],
      "name": "getCampaignsByCreator",
      "outputs": [
        {
          "internalType": "uint256[]",
          "name": "",
          "type": "uint256[]"
        }
      ],
      "stateMutability": "view",
      "type": "function",
      "constant": true
    },
    {
      "inputs": [],
      "name": "getAvailableCampaigns",
      "outputs": [
        {
          "components": [
            {
              "internalType": "address",
              "name": "creator",
              "type": "address"
            },
            {
              "internalType": "string",
              "name": "name",
              "type": "string"
            },
            {
              "internalType": "string",
              "name": "title",
              "type": "string"
            },
            {
              "internalType": "string",
              "name": "description",
              "type": "string"
            },
            {
              "internalType": "uint256",
              "name": "targetAmount",
              "type": "uint256"
            },
            {
              "internalType": "string",
              "name": "image",
              "type": "string"
            },
            {
              "internalType": "uint256",
              "name": "createdAt",
              "type": "uint256"
            },
            {
              "internalType": "uint256",
              "name": "deadline",
              "type": "uint256"
            },
            {
              "internalType": "uint256",
              "name": "totalDonated",
              "type": "uint256"
            },
            {
              "internalType": "address[]",
              "name": "donators",
              "type": "address[]"
            },
            {
              "internalType": "bool",
              "name": "withdrawn",
              "type": "bool"
            },
            {
              "internalType": "bool",
              "name": "reachedDeadline",
              "type": "bool"
            }
          ],
          "internalType": "struct GoFundme.CampaignDetails[]",
          "name": "",
          "type": "tuple[]"
        }
      ],
      "stateMutability": "view",
      "type": "function",
      "constant": true
    },
    {
      "inputs": [],
      "name": "getPastCampaigns",
      "outputs": [
        {
          "components": [
            {
              "internalType": "address",
              "name": "creator",
              "type": "address"
            },
            {
              "internalType": "string",
              "name": "name",
              "type": "string"
            },
            {
              "internalType": "string",
              "name": "title",
              "type": "string"
            },
            {
              "internalType": "string",
              "name": "description",
              "type": "string"
            },
            {
              "internalType": "uint256",
              "name": "targetAmount",
              "type": "uint256"
            },
            {
              "internalType": "string",
              "name": "image",
              "type": "string"
            },
            {
              "internalType": "uint256",
              "name": "createdAt",
              "type": "uint256"
            },
            {
              "internalType": "uint256",
              "name": "deadline",
              "type": "uint256"
            },
            {
              "internalType": "uint256",
              "name": "totalDonated",
              "type": "uint256"
            },
            {
              "internalType": "address[]",
              "name": "donators",
              "type": "address[]"
            },
            {
              "internalType": "bool",
              "name": "withdrawn",
              "type": "bool"
            },
            {
              "internalType": "bool",
              "name": "reachedDeadline",
              "type": "bool"
            }
          ],
          "internalType": "struct GoFundme.CampaignDetails[]",
          "name": "",
          "type": "tuple[]"
        }
      ],
      "stateMutability": "view",
      "type": "function",
      "constant": true
    },
    {
      "inputs": [
        {
          "internalType": "uint256",
          "name": "campaignId",
          "type": "uint256"
        }
      ],
      "name": "deleteCampaign",
      "outputs": [],
      "stateMutability": "nonpayable",
      "type": "function"
    },
    {
      "inputs": [
        {
          "internalType": "uint256",
          "name": "campaignId",
          "type": "uint256"
        }
      ],
      "name": "getCampaignById",
      "outputs": [
        {
          "components": [
            {
              "internalType": "address",
              "name": "creator",
              "type": "address"
            },
            {
              "internalType": "string",
              "name": "name",
              "type": "string"
            },
            {
              "internalType": "string",
              "name": "title",
              "type": "string"
            },
            {
              "internalType": "string",
              "name": "description",
              "type": "string"
            },
            {
              "internalType": "uint256",
              "name": "targetAmount",
              "type": "uint256"
            },
            {
              "internalType": "string",
              "name": "image",
              "type": "string"
            },
            {
              "internalType": "uint256",
              "name": "createdAt",
              "type": "uint256"
            },
            {
              "internalType": "uint256",
              "name": "deadline",
              "type": "uint256"
            },
            {
              "internalType": "uint256",
              "name": "totalDonated",
              "type": "uint256"
            },
            {
              "internalType": "address[]",
              "name": "donators",
              "type": "address[]"
            },
            {
              "internalType": "bool",
              "name": "withdrawn",
              "type": "bool"
            },
            {
              "internalType": "bool",
              "name": "reachedDeadline",
              "type": "bool"
            }
          ],
          "internalType": "struct GoFundme.CampaignDetails",
          "name": "",
          "type": "tuple"
        }
      ],
      "stateMutability": "view",
      "type": "function",
      "constant": true
    }
  ],
  "bytecode": "0x608060405261314e806100115f395ff3fe6080604052600436106100dc575f3560e01c8063759701931161007e578063d5b8d84a11610058578063d5b8d84a146102ea578063e6ffcaa114610326578063f14faf6f14610362578063f4e7cb361461037e576100dc565b80637597019314610256578063a69909461461027e578063b3795aad146102ba576100dc565b806329516511116100ba578063295165111461018a5780636c7558b0146101c65780636e5b46f5146102025780637274e30d1461022c576100dc565b8063141961bc146100e0578063155dd5ee146101265780631e0104391461014e575b5f80fd5b3480156100eb575f80fd5b5061010660048036038101906101019190611ba3565b6103a8565b60405161011d9b9a99989796959493929190611cc0565b60405180910390f35b348015610131575f80fd5b5061014c60048036038101906101479190611ba3565b61064d565b005b348015610159575f80fd5b50610174600480360381019061016f9190611ba3565b6109ca565b6040516101819190611d85565b60405180910390f35b348015610195575f80fd5b506101b060048036038101906101ab9190611ba3565b610a76565b6040516101bd9190611e66565b60405180910390f35b3480156101d1575f80fd5b506101ec60048036038101906101e79190611ba3565b610b5f565b6040516101f99190611e86565b60405180910390f35b34801561020d575f80fd5b50610216610bcc565b6040516102239190612149565b60405180910390f35b348015610237575f80fd5b50610240610cf8565b60405161024d9190611d85565b60405180910390f35b348015610261575f80fd5b5061027c60048036038101906102779190611ba3565b610cfe565b005b348015610289575f80fd5b506102a4600480360381019061029f9190611ba3565b610e6a565b6040516102b19190611e86565b60405180910390f35b6102d460048036038101906102cf9190612295565b610ed4565b6040516102e19190611d85565b60405180910390f35b3480156102f5575f80fd5b50610310600480360381019061030b91906123b8565b6110c7565b60405161031d919061248b565b60405180910390f35b348015610331575f80fd5b5061034c60048036038101906103479190611ba3565b61127a565b60405161035991906125c8565b60405180910390f35b61037c60048036038101906103779190611ba3565b6112ec565b005b348015610389575f80fd5b506103926115bf565b60405161039f9190612149565b60405180910390f35b5f602052805f5260405f205f91509050805f015f9054906101000a900473ffffffffffffffffffffffffffffffffffffffff16908060010180546103eb90612615565b80601f016020809104026020016040519081016040528092919081815260200182805461041790612615565b80156104625780601f1061043957610100808354040283529160200191610462565b820191905f5260205f20905b81548152906001019060200180831161044557829003601f168201915b50505050509080600201805461047790612615565b80601f01602080910402602001604051908101604052809291908181526020018280546104a390612615565b80156104ee5780601f106104c5576101008083540402835291602001916104ee565b820191905f5260205f20905b8154815290600101906020018083116104d157829003601f168201915b50505050509080600301805461050390612615565b80601f016020809104026020016040519081016040528092919081815260200182805461052f90612615565b801561057a5780601f106105515761010080835404028352916020019161057a565b820191905f5260205f20905b81548152906001019060200180831161055d57829003601f168201915b50505050509080600401549080600501805461059590612615565b80601f01602080910402602001604051908101604052809291908181526020018280546105c190612615565b801561060c5780601f106105e35761010080835404028352916020019161060c565b820191905f5260205f20905b8154815290600101906020018083116105ef57829003601f168201915b50505050509080600601549080600701549080600801549080600b015f9054906101000a900460ff169080600b0160019054906101000a900460ff1690508b565b806001548110610692576040517f08c379a00000000000000000000000000000000000000000000000000000000081526004016106899061268f565b60405180910390fd5b5f805f8481526020019081526020015f2090503373ffffffffffffffffffffffffffffffffffffffff16815f015f9054906101000a900473ffffffffffffffffffffffffffffffffffffffff1673ffffffffffffffffffffffffffffffffffffffff1614610735576040517f08c379a000000000000000000000000000000000000000000000000000000000815260040161072c9061271d565b60405180910390fd5b80600b015f9054906101000a900460ff1615610786576040517f08c379a000000000000000000000000000000000000000000000000000000000815260040161077d90612785565b60405180910390fd5b61078f83610b5f565b6107ce576040517f08c379a00000000000000000000000000000000000000000000000000000000081526004016107c5906127ed565b60405180910390fd5b6107d783610e6a565b15610817576040517f08c379a000000000000000000000000000000000000000000000000000000000815260040161080e90612855565b60405180910390fd5b5f81600801549050815f015f9054906101000a900473ffffffffffffffffffffffffffffffffffffffff1673ffffffffffffffffffffffffffffffffffffffff166108fc8290811502906040515f60405180830381858888f19350505050158015610884573d5f803e3d5ffd5b50600182600b015f6101000a81548160ff021916908315150217905550600182600b0160016101000a81548160ff0219169083151502179055505f825f015f9054906101000a900473ffffffffffffffffffffffffffffffffffffffff1673ffffffffffffffffffffffffffffffffffffffff1682604051610905906128a0565b5f6040518083038185875af1925050503d805f811461093f576040519150601f19603f3d011682016040523d82523d5f602084013e610944565b606091505b5050905080610988576040517f08c379a000000000000000000000000000000000000000000000000000000000815260040161097f906128fe565b60405180910390fd5b7ff440aec6b52895984d061d622e6edeba6210f7c3e059be920663140c084560d78533846040516109bb9392919061292b565b60405180910390a15050505050565b5f816001548110610a10576040517f08c379a0000000000000000000000000000000000000000000000000000000008152600401610a079061268f565b60405180910390fd5b5f805f8581526020019081526020015f209050600154841115610a68576040517f08c379a0000000000000000000000000000000000000000000000000000000008152600401610a5f906129aa565b60405180910390fd5b806008015492505050919050565b6060816001548110610abd576040517f08c379a0000000000000000000000000000000000000000000000000000000008152600401610ab49061268f565b60405180910390fd5b5f805f8581526020019081526020015f20905080600a01805480602002602001604051908101604052809291908181526020018280548015610b5157602002820191905f5260205f20905b815f9054906101000a900473ffffffffffffffffffffffffffffffffffffffff1673ffffffffffffffffffffffffffffffffffffffff1681526020019060010190808311610b08575b505050505092505050919050565b5f816001548110610ba5576040517f08c379a0000000000000000000000000000000000000000000000000000000008152600401610b9c9061268f565b60405180910390fd5b5f805f8581526020019081526020015f209050806004015481600801541492505050919050565b60605f805f90505b600154811015610c1d57610bf65f808381526020019081526020015f206116eb565b15610c0a578180610c06906129f5565b9250505b8080610c15906129f5565b915050610bd4565b505f8167ffffffffffffffff811115610c3957610c38612171565b5b604051908082528060200260200182016040528015610c7257816020015b610c5f611aeb565b815260200190600190039081610c575790505b5090505f805f90505b600154811015610cee575f805f8381526020019081526020015f209050610ca1816116eb565b15610cda57610caf81611730565b848480610cbb906129f5565b955081518110610cce57610ccd612a3c565b5b60200260200101819052505b508080610ce6906129f5565b915050610c7b565b5081935050505090565b60015481565b806001548110610d43576040517f08c379a0000000000000000000000000000000000000000000000000000000008152600401610d3a9061268f565b60405180910390fd5b5f805f8481526020019081526020015f2090503373ffffffffffffffffffffffffffffffffffffffff16815f015f9054906101000a900473ffffffffffffffffffffffffffffffffffffffff1673ffffffffffffffffffffffffffffffffffffffff1614610de6576040517f08c379a0000000000000000000000000000000000000000000000000000000008152600401610ddd90612ad9565b60405180910390fd5b5f816008015414610e2c576040517f08c379a0000000000000000000000000000000000000000000000000000000008152600401610e2390612b67565b60405180910390fd5b600181600b015f6101000a81548160ff021916908315150217905550600181600b0160016101000a81548160ff021916908315150217905550505050565b5f816001548110610eb0576040517f08c379a0000000000000000000000000000000000000000000000000000000008152600401610ea79061268f565b60405180910390fd5b5f805f8581526020019081526020015f209050428160070154111592505050919050565b5f808411610f17576040517f08c379a0000000000000000000000000000000000000000000000000000000008152600401610f0e90612bf5565b60405180910390fd5b428211610f59576040517f08c379a0000000000000000000000000000000000000000000000000000000008152600401610f5090612c5d565b60405180910390fd5b5f805f60015481526020019081526020015f20905033815f015f6101000a81548173ffffffffffffffffffffffffffffffffffffffff021916908373ffffffffffffffffffffffffffffffffffffffff16021790555087816001019081610fc09190612e18565b5086816002019081610fd29190612e18565b5084816004018190555083816005019081610fed9190612e18565b50428160060181905550858160030190816110089190612e18565b508281600701819055505f81600801819055505f81600b0160016101000a81548160ff0219169083151502179055505f81600b015f6101000a81548160ff0219169083151502179055507f98a0d441b7626ac9b31750373850d01cdb57ad3406ddc03bb1d40a12c18de8226001543387868b8b60405161108d96959493929190612ee7565b60405180910390a160015f8154809291906110a7906129f5565b9190505550600180546110ba9190612f54565b9150509695505050505050565b60605f60015467ffffffffffffffff8111156110e6576110e5612171565b5b6040519080825280602002602001820160405280156111145781602001602082028036833780820191505090505b5090505f805b6001548110156111ca578473ffffffffffffffffffffffffffffffffffffffff165f808381526020019081526020015f205f015f9054906101000a900473ffffffffffffffffffffffffffffffffffffffff1673ffffffffffffffffffffffffffffffffffffffff16036111b7578083838151811061119c5761119b612a3c565b5b60200260200101818152505081806111b3906129f5565b9250505b80806111c2906129f5565b91505061111a565b505f8167ffffffffffffffff8111156111e6576111e5612171565b5b6040519080825280602002602001820160405280156112145781602001602082028036833780820191505090505b5090505f5b8281101561126e5783818151811061123457611233612a3c565b5b602002602001015182828151811061124f5761124e612a3c565b5b6020026020010181815250508080611266906129f5565b915050611219565b50809350505050919050565b611282611aeb565b8160015481106112c7576040517f08c379a00000000000000000000000000000000000000000000000000000000081526004016112be9061268f565b60405180910390fd5b5f805f8581526020019081526020015f2090506112e381611730565b92505050919050565b806001548110611331576040517f08c379a00000000000000000000000000000000000000000000000000000000081526004016113289061268f565b60405180910390fd5b5f805f8481526020019081526020015f20905080600b015f9054906101000a900460ff1615611395576040517f08c379a000000000000000000000000000000000000000000000000000000000815260040161138c90612ff7565b60405180910390fd5b80600701544211156113dc576040517f08c379a00000000000000000000000000000000000000000000000000000000081526004016113d39061305f565b60405180910390fd5b80600b0160019054906101000a900460ff161561142e576040517f08c379a0000000000000000000000000000000000000000000000000000000008152600401611425906130c7565b60405180910390fd5b5f816009015f3373ffffffffffffffffffffffffffffffffffffffff1673ffffffffffffffffffffffffffffffffffffffff1681526020019081526020015f2054036114d75780600a0133908060018154018082558091505060019003905f5260205f20015f9091909190916101000a81548173ffffffffffffffffffffffffffffffffffffffff021916908373ffffffffffffffffffffffffffffffffffffffff1602179055505b34816008015f8282546114ea91906130e5565b9250508190555034816009015f3373ffffffffffffffffffffffffffffffffffffffff1673ffffffffffffffffffffffffffffffffffffffff1681526020019081526020015f205461153c91906130e5565b816009015f3373ffffffffffffffffffffffffffffffffffffffff1673ffffffffffffffffffffffffffffffffffffffff1681526020019081526020015f20819055507fe555da28bdb778f65d22794d88927ebaeca03f7de9d1b7d39245bc8fb5ca078a8333346040516115b29392919061292b565b60405180910390a1505050565b60605f805f90505b600154811015611610576115e95f808381526020019081526020015f20611aab565b156115fd5781806115f9906129f5565b9250505b8080611608906129f5565b9150506115c7565b505f8167ffffffffffffffff81111561162c5761162b612171565b5b60405190808252806020026020018201604052801561166557816020015b611652611aeb565b81526020019060019003908161164a5790505b5090505f805f90505b6001548110156116e1575f805f8381526020019081526020015f20905061169481611aab565b156116cd576116a281611730565b8484806116ae906129f5565b9550815181106116c1576116c0612a3c565b5b60200260200101819052505b5080806116d9906129f5565b91505061166e565b5081935050505090565b5f81600b015f9054906101000a900460ff16158015611719575081600b0160019054906101000a900460ff16155b8015611729575081600701544211155b9050919050565b611738611aeb565b604051806101800160405280835f015f9054906101000a900473ffffffffffffffffffffffffffffffffffffffff1673ffffffffffffffffffffffffffffffffffffffff16815260200183600101805461179190612615565b80601f01602080910402602001604051908101604052809291908181526020018280546117bd90612615565b80156118085780601f106117df57610100808354040283529160200191611808565b820191905f5260205f20905b8154815290600101906020018083116117eb57829003601f168201915b5050505050815260200183600201805461182190612615565b80601f016020809104026020016040519081016040528092919081815260200182805461184d90612615565b80156118985780601f1061186f57610100808354040283529160200191611898565b820191905f5260205f20905b81548152906001019060200180831161187b57829003601f168201915b505050505081526020018360030180546118b190612615565b80601f01602080910402602001604051908101604052809291908181526020018280546118dd90612615565b80156119285780601f106118ff57610100808354040283529160200191611928565b820191905f5260205f20905b81548152906001019060200180831161190b57829003601f168201915b505050505081526020018360040154815260200183600501805461194b90612615565b80601f016020809104026020016040519081016040528092919081815260200182805461197790612615565b80156119c25780601f10611999576101008083540402835291602001916119c2565b820191905f5260205f20905b8154815290600101906020018083116119a557829003601f168201915b5050505050815260200183600601548152602001836007015481526020018360080154815260200183600a01805480602002602001604051908101604052809291908181526020018280548015611a6b57602002820191905f5260205f20905b815f9054906101000a900473ffffffffffffffffffffffffffffffffffffffff1673ffffffffffffffffffffffffffffffffffffffff1681526020019060010190808311611a22575b5050505050815260200183600b015f9054906101000a900460ff161515815260200183600b0160019054906101000a900460ff1615158152509050919050565b5f81600b015f9054906101000a900460ff1680611ad6575081600b0160019054906101000a900460ff165b80611ae45750816007015442115b9050919050565b6040518061018001604052805f73ffffffffffffffffffffffffffffffffffffffff1681526020016060815260200160608152602001606081526020015f8152602001606081526020015f81526020015f81526020015f8152602001606081526020015f151581526020015f151581525090565b5f604051905090565b5f80fd5b5f80fd5b5f819050919050565b611b8281611b70565b8114611b8c575f80fd5b50565b5f81359050611b9d81611b79565b92915050565b5f60208284031215611bb857611bb7611b68565b5b5f611bc584828501611b8f565b91505092915050565b5f73ffffffffffffffffffffffffffffffffffffffff82169050919050565b5f611bf782611bce565b9050919050565b611c0781611bed565b82525050565b5f81519050919050565b5f82825260208201905092915050565b5f5b83811015611c44578082015181840152602081019050611c29565b5f8484015250505050565b5f601f19601f8301169050919050565b5f611c6982611c0d565b611c738185611c17565b9350611c83818560208601611c27565b611c8c81611c4f565b840191505092915050565b611ca081611b70565b82525050565b5f8115159050919050565b611cba81611ca6565b82525050565b5f61016082019050611cd45f83018e611bfe565b8181036020830152611ce6818d611c5f565b90508181036040830152611cfa818c611c5f565b90508181036060830152611d0e818b611c5f565b9050611d1d608083018a611c97565b81810360a0830152611d2f8189611c5f565b9050611d3e60c0830188611c97565b611d4b60e0830187611c97565b611d59610100830186611c97565b611d67610120830185611cb1565b611d75610140830184611cb1565b9c9b505050505050505050505050565b5f602082019050611d985f830184611c97565b92915050565b5f81519050919050565b5f82825260208201905092915050565b5f819050602082019050919050565b5f611dd182611bce565b9050919050565b611de181611dc7565b82525050565b5f611df28383611dd8565b60208301905092915050565b5f602082019050919050565b5f611e1482611d9e565b611e1e8185611da8565b9350611e2983611db8565b805f5b83811015611e59578151611e408882611de7565b9750611e4b83611dfe565b925050600181019050611e2c565b5085935050505092915050565b5f6020820190508181035f830152611e7e8184611e0a565b905092915050565b5f602082019050611e995f830184611cb1565b92915050565b5f81519050919050565b5f82825260208201905092915050565b5f819050602082019050919050565b5f82825260208201905092915050565b5f611ee282611c0d565b611eec8185611ec8565b9350611efc818560208601611c27565b611f0581611c4f565b840191505092915050565b611f1981611b70565b82525050565b5f82825260208201905092915050565b5f611f3982611d9e565b611f438185611f1f565b9350611f4e83611db8565b805f5b83811015611f7e578151611f658882611de7565b9750611f7083611dfe565b925050600181019050611f51565b5085935050505092915050565b611f9481611ca6565b82525050565b5f61018083015f830151611fb05f860182611dd8565b5060208301518482036020860152611fc88282611ed8565b91505060408301518482036040860152611fe28282611ed8565b91505060608301518482036060860152611ffc8282611ed8565b91505060808301516120116080860182611f10565b5060a083015184820360a08601526120298282611ed8565b91505060c083015161203e60c0860182611f10565b5060e083015161205160e0860182611f10565b50610100830151612066610100860182611f10565b506101208301518482036101208601526120808282611f2f565b915050610140830151612097610140860182611f8b565b506101608301516120ac610160860182611f8b565b508091505092915050565b5f6120c28383611f9a565b905092915050565b5f602082019050919050565b5f6120e082611e9f565b6120ea8185611ea9565b9350836020820285016120fc85611eb9565b805f5b85811015612137578484038952815161211885826120b7565b9450612123836120ca565b925060208a019950506001810190506120ff565b50829750879550505050505092915050565b5f6020820190508181035f83015261216181846120d6565b905092915050565b5f80fd5b5f80fd5b7f4e487b71000000000000000000000000000000000000000000000000000000005f52604160045260245ffd5b6121a782611c4f565b810181811067ffffffffffffffff821117156121c6576121c5612171565b5b80604052505050565b5f6121d8611b5f565b90506121e4828261219e565b919050565b5f67ffffffffffffffff82111561220357612202612171565b5b61220c82611c4f565b9050602081019050919050565b828183375f83830152505050565b5f612239612234846121e9565b6121cf565b9050828152602081018484840111156122555761225461216d565b5b612260848285612219565b509392505050565b5f82601f83011261227c5761227b612169565b5b813561228c848260208601612227565b91505092915050565b5f805f805f8060c087890312156122af576122ae611b68565b5b5f87013567ffffffffffffffff8111156122cc576122cb611b6c565b5b6122d889828a01612268565b965050602087013567ffffffffffffffff8111156122f9576122f8611b6c565b5b61230589828a01612268565b955050604087013567ffffffffffffffff81111561232657612325611b6c565b5b61233289828a01612268565b945050606061234389828a01611b8f565b935050608087013567ffffffffffffffff81111561236457612363611b6c565b5b61237089828a01612268565b92505060a061238189828a01611b8f565b9150509295509295509295565b61239781611dc7565b81146123a1575f80fd5b50565b5f813590506123b28161238e565b92915050565b5f602082840312156123cd576123cc611b68565b5b5f6123da848285016123a4565b91505092915050565b5f81519050919050565b5f82825260208201905092915050565b5f819050602082019050919050565b5f6124178383611f10565b60208301905092915050565b5f602082019050919050565b5f612439826123e3565b61244381856123ed565b935061244e836123fd565b805f5b8381101561247e578151612465888261240c565b975061247083612423565b925050600181019050612451565b5085935050505092915050565b5f6020820190508181035f8301526124a3818461242f565b905092915050565b5f61018083015f8301516124c15f860182611dd8565b50602083015184820360208601526124d98282611ed8565b915050604083015184820360408601526124f38282611ed8565b9150506060830151848203606086015261250d8282611ed8565b91505060808301516125226080860182611f10565b5060a083015184820360a086015261253a8282611ed8565b91505060c083015161254f60c0860182611f10565b5060e083015161256260e0860182611f10565b50610100830151612577610100860182611f10565b506101208301518482036101208601526125918282611f2f565b9150506101408301516125a8610140860182611f8b565b506101608301516125bd610160860182611f8b565b508091505092915050565b5f6020820190508181035f8301526125e081846124ab565b905092915050565b7f4e487b71000000000000000000000000000000000000000000000000000000005f52602260045260245ffd5b5f600282049050600182168061262c57607f821691505b60208210810361263f5761263e6125e8565b5b50919050565b7f43616d706169676e20646f6573206e6f742065786973740000000000000000005f82015250565b5f612679601783611c17565b915061268482612645565b602082019050919050565b5f6020820190508181035f8301526126a68161266d565b9050919050565b7f4f6e6c79207468652063726561746f722063616e2077697468647261772066755f8201527f6e64732e00000000000000000000000000000000000000000000000000000000602082015250565b5f612707602483611c17565b9150612712826126ad565b604082019050919050565b5f6020820190508181035f830152612734816126fb565b9050919050565b7f46756e647320616c72656164792077697468647261776e2e00000000000000005f82015250565b5f61276f601883611c17565b915061277a8261273b565b602082019050919050565b5f6020820190508181035f83015261279c81612763565b9050919050565b7f546172676574206e6f7420726561636865642e000000000000000000000000005f82015250565b5f6127d7601383611c17565b91506127e2826127a3565b602082019050919050565b5f6020820190508181035f830152612804816127cb565b9050919050565b7f446561646c696e652070617373656400000000000000000000000000000000005f82015250565b5f61283f600f83611c17565b915061284a8261280b565b602082019050919050565b5f6020820190508181035f83015261286c81612833565b9050919050565b5f81905092915050565b50565b5f61288b5f83612873565b91506128968261287d565b5f82019050919050565b5f6128aa82612880565b9150819050919050565b7f5472616e73666572206661696c656400000000000000000000000000000000005f82015250565b5f6128e8600f83611c17565b91506128f3826128b4565b602082019050919050565b5f6020820190508181035f830152612915816128dc565b9050919050565b61292581611dc7565b82525050565b5f60608201905061293e5f830186611c97565b61294b602083018561291c565b6129586040830184611c97565b949350505050565b7f496e76616c69642063616d706169676e2049442e0000000000000000000000005f82015250565b5f612994601483611c17565b915061299f82612960565b602082019050919050565b5f6020820190508181035f8301526129c181612988565b9050919050565b7f4e487b71000000000000000000000000000000000000000000000000000000005f52601160045260245ffd5b5f6129ff82611b70565b91507fffffffffffffffffffffffffffffffffffffffffffffffffffffffffffffffff8203612a3157612a306129c8565b5b600182019050919050565b7f4e487b71000000000000000000000000000000000000000000000000000000005f52603260045260245ffd5b7f4f6e6c79207468652063726561746f722063616e2064656c65746520746869735f8201527f2063616d706169676e2e00000000000000000000000000000000000000000000602082015250565b5f612ac3602a83611c17565b9150612ace82612a69565b604082019050919050565b5f6020820190508181035f830152612af081612ab7565b9050919050565b7f43616e6e6f742064656c65746520612063616d706169676e20746861742068615f8201527f7320726563656976656420646f6e6174696f6e732e0000000000000000000000602082015250565b5f612b51603583611c17565b9150612b5c82612af7565b604082019050919050565b5f6020820190508181035f830152612b7e81612b45565b9050919050565b7f54617267657420616d6f756e74206d75737420626520677265617465722074685f8201527f616e207a65726f2e000000000000000000000000000000000000000000000000602082015250565b5f612bdf602883611c17565b9150612bea82612b85565b604082019050919050565b5f6020820190508181035f830152612c0c81612bd3565b9050919050565b7f446561646c696e65206d75737420626520696e20746865206675747572652e005f82015250565b5f612c47601f83611c17565b9150612c5282612c13565b602082019050919050565b5f6020820190508181035f830152612c7481612c3b565b9050919050565b5f819050815f5260205f209050919050565b5f6020601f8301049050919050565b5f82821b905092915050565b5f60088302612cd77fffffffffffffffffffffffffffffffffffffffffffffffffffffffffffffffff82612c9c565b612ce18683612c9c565b95508019841693508086168417925050509392505050565b5f819050919050565b5f612d1c612d17612d1284611b70565b612cf9565b611b70565b9050919050565b5f819050919050565b612d3583612d02565b612d49612d4182612d23565b848454612ca8565b825550505050565b5f90565b612d5d612d51565b612d68818484612d2c565b505050565b5b81811015612d8b57612d805f82612d55565b600181019050612d6e565b5050565b601f821115612dd057612da181612c7b565b612daa84612c8d565b81016020851015612db9578190505b612dcd612dc585612c8d565b830182612d6d565b50505b505050565b5f82821c905092915050565b5f612df05f1984600802612dd5565b1980831691505092915050565b5f612e088383612de1565b9150826002028217905092915050565b612e2182611c0d565b67ffffffffffffffff811115612e3a57612e39612171565b5b612e448254612615565b612e4f828285612d8f565b5f60209050601f831160018114612e80575f8415612e6e578287015190505b612e788582612dfd565b865550612edf565b601f198416612e8e86612c7b565b5f5b82811015612eb557848901518255600182019150602085019450602081019050612e90565b86831015612ed25784890151612ece601f891682612de1565b8355505b6001600288020188555050505b505050505050565b5f60c082019050612efa5f830189611c97565b612f07602083018861291c565b612f146040830187611c97565b612f216060830186611c97565b8181036080830152612f338185611c5f565b905081810360a0830152612f478184611c5f565b9050979650505050505050565b5f612f5e82611b70565b9150612f6983611b70565b9250828203905081811115612f8157612f806129c8565b5b92915050565b7f43616d706169676e2066756e647320616c72656164792077697468647261776e5f8201527f2e00000000000000000000000000000000000000000000000000000000000000602082015250565b5f612fe1602183611c17565b9150612fec82612f87565b604082019050919050565b5f6020820190508181035f83015261300e81612fd5565b9050919050565b7f43616d706169676e2068617320657870697265640000000000000000000000005f82015250565b5f613049601483611c17565b915061305482613015565b602082019050919050565b5f6020820190508181035f8301526130768161303d565b9050919050565b7f43616d706169676e20646561646c696e6520686173207061737365642e0000005f82015250565b5f6130b1601d83611c17565b91506130bc8261307d565b602082019050919050565b5f6020820190508181035f8301526130de816130a5565b9050919050565b5f6130ef82611b70565b91506130fa83611b70565b9250828201905080821115613112576131116129c8565b5b9291505056fea2646970667358221220dba846c69135b7c057f638baea087352180117e614f99236b92715b64a86abac64736f6c63430008150033",
  "immutableReferences": {},
  "source": "// SPDX-License-Identifier: MIT\npragma solidity ^0.8.11;\n\ncontract GoFundme {\nconstructor() payable {}\n    struct Campaign {\n        address payable creator;\n        string name; // 1\n        string title; \n        string description;\n        uint256 targetAmount;\n        string image; // 2\n        uint256 createdAt; // 3\n        uint256 deadline; // Unix timestamp (seconds since epoch)\n        uint256 totalDonated;\n        mapping(address => uint256) donations; //   \n        address[] donators; // Tracks individual donor contributions\n        bool withdrawn;\n        bool reachedDeadline;\n    }\n    struct CampaignDetails {\n    address creator;\n    string name; // 1\n    string title;\n    string description;\n    uint256 targetAmount;\n    string image; // 2\n    uint256 createdAt; // 3\n    uint256 deadline;\n    uint256 totalDonated;\n    address[] donators;\n    bool withdrawn;\n    bool reachedDeadline;\n    }\n\n    mapping(uint256 => Campaign) public campaigns;\n    uint256 public campaignCount; // Keeps track of the number of campaigns\n\n    // Event to notify when a campaign is created\n    event CampaignCreated(uint256 campaignId, address creator, uint256 targetAmount, uint256 deadline, string title, string description);\n\n    // Event to notify when a donation is made\n    event DonationMade(uint256 campaignId, address donor, uint256 amount);\n\n    // Event to notify when funds are withdrawn\n    event FundsWithdrawn(uint256 campaignId, address creator, uint256 amount);\n\n    modifier campaignExists(uint campaignId) {\n        require(campaignId < campaignCount, \"Campaign does not exist\");\n        _;\n    }\n// 1. Create a new campaign\n// add a name\n    function createCampaign(string memory name, string memory title, string memory description, uint256 targetAmount, string memory image, uint256 deadline) public payable returns (uint256){\n        require(targetAmount > 0, \"Target amount must be greater than zero.\");\n        require(deadline > block.timestamp, \"Deadline must be in the future.\");\n\n Campaign storage newCampaign = campaigns[campaignCount];\n        newCampaign.creator = payable(msg.sender);\n        newCampaign.name = name;\n        newCampaign.title = title;\n        newCampaign.targetAmount = targetAmount;\n        newCampaign.image = image;\n        newCampaign.createdAt = block.timestamp;\n        newCampaign.description = description;\n        newCampaign.deadline = deadline;\n        newCampaign.totalDonated = 0;\n        newCampaign.reachedDeadline = false;\n        newCampaign.withdrawn = false;  \n\n        emit CampaignCreated(campaignCount, msg.sender, targetAmount, deadline, title, description);\n        campaignCount++; // Increment campaign count\n        return  campaignCount - 1;\n    }\n// 2, Donate to the campaign\n    function donate(uint256 campaignId) public payable campaignExists(campaignId){\n        Campaign storage campaign = campaigns[campaignId];\n        require(!campaign.withdrawn, \"Campaign funds already withdrawn.\");\n        require(block.timestamp <= campaign.deadline, \"Campaign has expired\");\n        require(!campaign.reachedDeadline, \"Campaign deadline has passed.\");\n\n   if (campaign.donations[msg.sender] == 0) {\n            campaign.donators.push(msg.sender); // Add the donor if not already present\n        }\n\n       \n        campaign.totalDonated += msg.value;\n        campaign.donations[msg.sender] = campaign.donations[msg.sender] + msg.value;\n        emit DonationMade(campaignId, msg.sender, msg.value);\n    }\n// 3. Check if campaign hasn't exist the deadline\n    function checkDeadline(uint256 campaignId) public view campaignExists(campaignId) returns (bool) {\n        Campaign storage campaign = campaigns[campaignId];\n        return campaign.deadline <= block.timestamp;\n    }\n// 4. Check if the target for the deadline has been reached \n    function checkTargetReached(uint256 campaignId) public view campaignExists(campaignId) returns (bool) {\n        Campaign storage campaign = campaigns[campaignId];\n        return campaign.totalDonated == campaign.targetAmount;\n    }\n// 5. Withdraw funds by the campaign creator\n    function withdrawFunds(uint256 campaignId) campaignExists(campaignId) public {\n        Campaign storage campaign = campaigns[campaignId];\n        require(campaign.creator == msg.sender, \"Only the creator can withdraw funds.\");\n        require(!campaign.withdrawn, \"Funds already withdrawn.\");\n        require(checkTargetReached(campaignId), \"Target not reached.\");\n require(!checkDeadline(campaignId), \"Deadline passed\");\n        uint256 amount = campaign.totalDonated;\n        campaign.creator.transfer(amount);\n        campaign.withdrawn = true;\n        campaign.reachedDeadline = true; // Set to true to prevent future withdrawals\n    (bool success,) = campaign.creator.call{value: amount}(\"\");\n    require(success, \"Transfer failed\");\n        emit FundsWithdrawn(campaignId, msg.sender, amount);\n    }\n// 6. Fetch the balance for a campaign\n    function getBalance(uint256 campaignId) campaignExists(campaignId) public view returns (uint256) {\n        Campaign storage campaign = campaigns[campaignId];\n        require(campaignId <= campaignCount, \"Invalid campaign ID.\");\n        return campaign.totalDonated;\n    }\n    // 7. Get donators\n   function getDonors(uint256 campaignId) public view campaignExists(campaignId) returns (address[] memory) {\n        Campaign storage campaign = campaigns[campaignId];\n        return campaign.donators;\n    }\n\n// 8, get all campaigns for a particular creator\nfunction getCampaignsByCreator(address creator) public view returns (uint256[] memory) {\n    uint256[] memory result = new uint256[](campaignCount);\n    uint256 count = 0;\n\n    for (uint256 i = 0; i < campaignCount; i++) {\n        if (campaigns[i].creator == creator) {\n            result[count] = i;\n            count++;\n        }\n    }\n\n    // Resize the array to fit the actual count\n    uint256[] memory filteredResult = new uint256[](count);\n    for (uint256 j = 0; j < count; j++) {\n        filteredResult[j] = result[j];\n    }\n\n    return filteredResult;\n}\n\n\n//9. Get all active campaigns\nfunction getAvailableCampaigns() public view returns (CampaignDetails[] memory) {\n    uint256 matchCount;\n    \n    // First pass - count matches\n    for (uint256 i = 0; i < campaignCount; i++) {\n        if (_isAvailable(campaigns[i])) {\n            matchCount++;\n        }\n    }\n\n    // Second pass - populate results\n    CampaignDetails[] memory result = new CampaignDetails[](matchCount);\n    uint256 index;\n    \n    for (uint256 i = 0; i < campaignCount; i++) {\n        Campaign storage c = campaigns[i];\n        if (_isAvailable(c)) {\n            result[index++] = _mapCampaign(c);\n        }\n    }\n    \n    return result;\n}\n\n//10. Get all past campaigns\nfunction getPastCampaigns() public view returns (CampaignDetails[] memory) {\n    uint256 matchCount;\n\n    // First pass - count matches\n    for (uint256 i = 0; i < campaignCount; i++) {\n        if (_isPast(campaigns[i])) {\n            matchCount++;\n        }\n    }\n\n    // Second pass - populate results\n    CampaignDetails[] memory result = new CampaignDetails[](matchCount);\n    uint256 index;\n    \n    for (uint256 i = 0; i < campaignCount; i++) {\n        Campaign storage c = campaigns[i];\n        if (_isPast(c)) {\n            result[index++] = _mapCampaign(c);\n        }\n    }\n    \n    return result;\n}\n\n// Internal helper to check availability\nfunction _isAvailable(Campaign storage c) internal view returns (bool) {\n    return !c.withdrawn && !c.reachedDeadline && block.timestamp <= c.deadline;\n}\n\n// Internal helper to check if campaign is concluded\nfunction _isPast(Campaign storage c) internal view returns (bool) {\n    return c.withdrawn || c.reachedDeadline || block.timestamp > c.deadline;\n}\n\n// Internal helper to map storage struct to memory struct\nfunction _mapCampaign(Campaign storage c) internal view returns (CampaignDetails memory) {\n    return CampaignDetails({\n        creator: c.creator,\n        name: c.name,\n        title: c.title,\n        description: c.description,\n        targetAmount: c.targetAmount,\n        image: c.image,\n        createdAt: c.createdAt,\n        deadline: c.deadline,\n        totalDonated: c.totalDonated,\n        donators: c.donators,\n        withdrawn: c.withdrawn,\n        reachedDeadline: c.reachedDeadline\n    });\n}\n\n   // 11. Delete a campaign by the creator\n    function deleteCampaign(uint256 campaignId) public campaignExists(campaignId) {\n        Campaign storage campaign = campaigns[campaignId];\n        require(campaign.creator == msg.sender, \"Only the creator can delete this campaign.\");\n        require(campaign.totalDonated == 0, \"Cannot delete a campaign that has received donations.\");\n\n       campaign.withdrawn = true;\n        campaign.reachedDeadline = true;\n          // Maintain donators list integrity\n    }\n\n    // 12. Get a campaign using its ID\n    function getCampaignById(uint256 campaignId) public view campaignExists(campaignId) returns (CampaignDetails memory) {\n        Campaign storage c = campaigns[campaignId];\n        return _mapCampaign(c);\n    }\n\n}",
  "sourcePath": "/home/alibaba/Downloads/projects/Crowdfund-web3/smart_contract/contracts/Crowdfund.sol",
  "compiler": {
    "name": "solc",
    "version": "0.8.21+commit.d9974bed.Emscripten.clang"
  },
  "schemaVersion": "3.4.16",
  "updatedAt": "2025-01-30T21:14:53.984Z",
  "networkType": "ethereum",
  "devdoc": {
    "kind": "dev",
    "methods": {},
    "version": 1
  },
  "userdoc": {
    "kind": "user",
    "methods": {},
    "version": 1
  }
}